{
  "_format": "hh-sol-artifact-1",
  "contractName": "ERC20Tonic",
  "sourceName": "contracts/classic/ERC20Tonic.sol",
  "abi": [
    {
      "inputs": [
        {
          "internalType": "contract IVerifier",
          "name": "_verifier",
          "type": "address"
        },
        {
          "internalType": "contract IHasher",
          "name": "_hasher",
          "type": "address"
        },
        {
          "internalType": "uint256",
          "name": "_denomination",
          "type": "uint256"
        },
        {
          "internalType": "uint32",
          "name": "_merkleTreeHeight",
          "type": "uint32"
        },
        {
          "internalType": "contract IERC20",
          "name": "_token",
          "type": "address"
        },
        {
          "internalType": "address payable",
          "name": "_feePolicyManagerAddress",
          "type": "address"
        }
      ],
      "stateMutability": "nonpayable",
      "type": "constructor"
    },
    {
      "anonymous": false,
      "inputs": [
        {
          "indexed": true,
          "internalType": "bytes32",
          "name": "commitment",
          "type": "bytes32"
        },
        {
          "indexed": false,
          "internalType": "uint32",
          "name": "leafIndex",
          "type": "uint32"
        },
        {
          "indexed": false,
          "internalType": "uint256",
          "name": "timestamp",
          "type": "uint256"
        }
      ],
      "name": "Deposit",
      "type": "event"
    },
    {
      "anonymous": false,
      "inputs": [
        {
          "indexed": true,
          "internalType": "address",
          "name": "previousOwner",
          "type": "address"
        },
        {
          "indexed": true,
          "internalType": "address",
          "name": "newOwner",
          "type": "address"
        }
      ],
      "name": "OwnershipTransferred",
      "type": "event"
    },
    {
      "anonymous": false,
      "inputs": [
        {
          "indexed": false,
          "internalType": "address",
          "name": "to",
          "type": "address"
        },
        {
          "indexed": false,
          "internalType": "bytes32",
          "name": "nullifierHash",
          "type": "bytes32"
        },
        {
          "indexed": true,
          "internalType": "address",
          "name": "relayer",
          "type": "address"
        },
        {
          "indexed": false,
          "internalType": "uint256",
          "name": "fee",
          "type": "uint256"
        }
      ],
      "name": "Withdrawal",
      "type": "event"
    },
    {
      "inputs": [],
      "name": "FIELD_SIZE",
      "outputs": [
        {
          "internalType": "uint256",
          "name": "",
          "type": "uint256"
        }
      ],
      "stateMutability": "view",
      "type": "function"
    },
    {
      "inputs": [],
      "name": "ROOT_HISTORY_SIZE",
      "outputs": [
        {
          "internalType": "uint32",
          "name": "",
          "type": "uint32"
        }
      ],
      "stateMutability": "view",
      "type": "function"
    },
    {
      "inputs": [],
      "name": "ZERO_VALUE",
      "outputs": [
        {
          "internalType": "uint256",
          "name": "",
          "type": "uint256"
        }
      ],
      "stateMutability": "view",
      "type": "function"
    },
    {
      "inputs": [
        {
          "internalType": "bytes32",
          "name": "",
          "type": "bytes32"
        }
      ],
      "name": "commitments",
      "outputs": [
        {
          "internalType": "bool",
          "name": "",
          "type": "bool"
        }
      ],
      "stateMutability": "view",
      "type": "function"
    },
    {
      "inputs": [],
      "name": "currentRootIndex",
      "outputs": [
        {
          "internalType": "uint32",
          "name": "",
          "type": "uint32"
        }
      ],
      "stateMutability": "view",
      "type": "function"
    },
    {
      "inputs": [],
      "name": "denomination",
      "outputs": [
        {
          "internalType": "uint256",
          "name": "",
          "type": "uint256"
        }
      ],
      "stateMutability": "view",
      "type": "function"
    },
    {
      "inputs": [
        {
          "internalType": "bytes32",
          "name": "_commitment",
          "type": "bytes32"
        }
      ],
      "name": "deposit",
      "outputs": [],
      "stateMutability": "payable",
      "type": "function"
    },
    {
      "inputs": [],
      "name": "feePolicyManager",
      "outputs": [
        {
          "internalType": "contract TonicFeePolicyManager",
          "name": "",
          "type": "address"
        }
      ],
      "stateMutability": "view",
      "type": "function"
    },
    {
      "inputs": [
        {
          "internalType": "uint256",
          "name": "",
          "type": "uint256"
        }
      ],
      "name": "filledSubtrees",
      "outputs": [
        {
          "internalType": "bytes32",
          "name": "",
          "type": "bytes32"
        }
      ],
      "stateMutability": "view",
      "type": "function"
    },
    {
      "inputs": [],
      "name": "getFeePolicyManagerAddress",
      "outputs": [
        {
          "internalType": "address",
          "name": "",
          "type": "address"
        }
      ],
      "stateMutability": "view",
      "type": "function"
    },
    {
      "inputs": [],
      "name": "getLastRoot",
      "outputs": [
        {
          "internalType": "bytes32",
          "name": "",
          "type": "bytes32"
        }
      ],
      "stateMutability": "view",
      "type": "function"
    },
    {
      "inputs": [],
      "name": "getStats",
      "outputs": [
        {
          "internalType": "uint256",
          "name": "_denomination",
          "type": "uint256"
        },
        {
          "internalType": "uint256",
          "name": "_numberOfDeposits",
          "type": "uint256"
        },
        {
          "internalType": "uint256",
          "name": "_numberOfWithdrawals",
          "type": "uint256"
        }
      ],
      "stateMutability": "view",
      "type": "function"
    },
    {
      "inputs": [
        {
          "internalType": "contract IHasher",
          "name": "_hasher",
          "type": "address"
        },
        {
          "internalType": "bytes32",
          "name": "_left",
          "type": "bytes32"
        },
        {
          "internalType": "bytes32",
          "name": "_right",
          "type": "bytes32"
        }
      ],
      "name": "hashLeftRight",
      "outputs": [
        {
          "internalType": "bytes32",
          "name": "",
          "type": "bytes32"
        }
      ],
      "stateMutability": "pure",
      "type": "function"
    },
    {
      "inputs": [],
      "name": "hasher",
      "outputs": [
        {
          "internalType": "contract IHasher",
          "name": "",
          "type": "address"
        }
      ],
      "stateMutability": "view",
      "type": "function"
    },
    {
      "inputs": [
        {
          "internalType": "bytes32",
          "name": "_root",
          "type": "bytes32"
        }
      ],
      "name": "isKnownRoot",
      "outputs": [
        {
          "internalType": "bool",
          "name": "",
          "type": "bool"
        }
      ],
      "stateMutability": "view",
      "type": "function"
    },
    {
      "inputs": [
        {
          "internalType": "bytes32",
          "name": "_nullifierHash",
          "type": "bytes32"
        }
      ],
      "name": "isSpent",
      "outputs": [
        {
          "internalType": "bool",
          "name": "",
          "type": "bool"
        }
      ],
      "stateMutability": "view",
      "type": "function"
    },
    {
      "inputs": [
        {
          "internalType": "bytes32[]",
          "name": "_nullifierHashes",
          "type": "bytes32[]"
        }
      ],
      "name": "isSpentArray",
      "outputs": [
        {
          "internalType": "bool[]",
          "name": "spent",
          "type": "bool[]"
        }
      ],
      "stateMutability": "view",
      "type": "function"
    },
    {
      "inputs": [],
      "name": "levels",
      "outputs": [
        {
          "internalType": "uint32",
          "name": "",
          "type": "uint32"
        }
      ],
      "stateMutability": "view",
      "type": "function"
    },
    {
      "inputs": [],
      "name": "nextIndex",
      "outputs": [
        {
          "internalType": "uint32",
          "name": "",
          "type": "uint32"
        }
      ],
      "stateMutability": "view",
      "type": "function"
    },
    {
      "inputs": [
        {
          "internalType": "bytes32",
          "name": "",
          "type": "bytes32"
        }
      ],
      "name": "nullifierHashes",
      "outputs": [
        {
          "internalType": "bool",
          "name": "",
          "type": "bool"
        }
      ],
      "stateMutability": "view",
      "type": "function"
    },
    {
      "inputs": [],
      "name": "numberOfDeposits",
      "outputs": [
        {
          "internalType": "uint256",
          "name": "",
          "type": "uint256"
        }
      ],
      "stateMutability": "view",
      "type": "function"
    },
    {
      "inputs": [],
      "name": "numberOfWithdrawals",
      "outputs": [
        {
          "internalType": "uint256",
          "name": "",
          "type": "uint256"
        }
      ],
      "stateMutability": "view",
      "type": "function"
    },
    {
      "inputs": [],
      "name": "owner",
      "outputs": [
        {
          "internalType": "address",
          "name": "",
          "type": "address"
        }
      ],
      "stateMutability": "view",
      "type": "function"
    },
    {
      "inputs": [],
      "name": "renounceOwnership",
      "outputs": [],
      "stateMutability": "nonpayable",
      "type": "function"
    },
    {
      "inputs": [
        {
          "internalType": "uint256",
          "name": "",
          "type": "uint256"
        }
      ],
      "name": "roots",
      "outputs": [
        {
          "internalType": "bytes32",
          "name": "",
          "type": "bytes32"
        }
      ],
      "stateMutability": "view",
      "type": "function"
    },
    {
      "inputs": [],
      "name": "token",
      "outputs": [
        {
          "internalType": "contract IERC20",
          "name": "",
          "type": "address"
        }
      ],
      "stateMutability": "view",
      "type": "function"
    },
    {
      "inputs": [
        {
          "internalType": "address",
          "name": "_recipient",
          "type": "address"
        },
        {
          "internalType": "uint256",
          "name": "_amount",
          "type": "uint256"
        }
      ],
      "name": "transfer",
      "outputs": [],
      "stateMutability": "nonpayable",
      "type": "function"
    },
    {
      "inputs": [
        {
          "internalType": "address",
          "name": "_recipient",
          "type": "address"
        },
        {
          "internalType": "address",
          "name": "_tokenAddr",
          "type": "address"
        },
        {
          "internalType": "uint256",
          "name": "_amount",
          "type": "uint256"
        }
      ],
      "name": "transfer",
      "outputs": [],
      "stateMutability": "nonpayable",
      "type": "function"
    },
    {
      "inputs": [
        {
          "internalType": "address",
          "name": "newOwner",
          "type": "address"
        }
      ],
      "name": "transferOwnership",
      "outputs": [],
      "stateMutability": "nonpayable",
      "type": "function"
    },
    {
      "inputs": [],
      "name": "verifier",
      "outputs": [
        {
          "internalType": "contract IVerifier",
          "name": "",
          "type": "address"
        }
      ],
      "stateMutability": "view",
      "type": "function"
    },
    {
      "inputs": [
        {
          "internalType": "bytes",
          "name": "_proof",
          "type": "bytes"
        },
        {
          "internalType": "bytes32",
          "name": "_root",
          "type": "bytes32"
        },
        {
          "internalType": "bytes32",
          "name": "_nullifierHash",
          "type": "bytes32"
        },
        {
          "internalType": "address payable",
          "name": "_recipient",
          "type": "address"
        },
        {
          "internalType": "address payable",
          "name": "_relayer",
          "type": "address"
        },
        {
          "internalType": "uint256",
          "name": "_relayerFee",
          "type": "uint256"
        },
        {
          "internalType": "uint256",
          "name": "_refund",
          "type": "uint256"
        }
      ],
      "name": "withdraw",
      "outputs": [],
      "stateMutability": "payable",
      "type": "function"
    },
    {
      "inputs": [
        {
          "internalType": "uint256",
          "name": "i",
          "type": "uint256"
        }
      ],
      "name": "zeros",
      "outputs": [
        {
          "internalType": "bytes32",
          "name": "",
          "type": "bytes32"
        }
      ],
      "stateMutability": "pure",
      "type": "function"
    },
    {
      "stateMutability": "payable",
      "type": "receive"
    }
  ],
  "bytecode": "0x60c0604052600380546001600160401b03191690553480156200002157600080fd5b506040516200372238038062003722833981016040819052620000449162000961565b8585858584818460008263ffffffff1611620000b35760405162461bcd60e51b815260206004820152602360248201527f5f6c6576656c732073686f756c642062652067726561746572207468616e207a60448201526265726f60e81b60648201526084015b60405180910390fd5b60208263ffffffff16106200010b5760405162461bcd60e51b815260206004820152601e60248201527f5f6c6576656c732073686f756c64206265206c657373207468616e20333200006044820152606401620000aa565b6000805463ffffffff191663ffffffff84161781556001600160a01b0382166080525b8263ffffffff168163ffffffff1610156200017f576200015463ffffffff821662000280565b63ffffffff821660009081526001602052604090205580620001768162000a07565b9150506200012e565b506200019d6200019160018462000a2e565b63ffffffff1662000280565b6000805260026020527fac33ff75c19e70fe83507db0d683fd3465c996598dc972688b7ace676c89077b5550620001d6905033620008e5565b600160045582620002385760405162461bcd60e51b815260206004820152602560248201527f64656e6f6d696e6174696f6e2073686f756c6420626520677265617465722074604482015264068616e20360dc1b6064820152608401620000aa565b6001600160a01b0394851660a05260069290925550600580549184166001600160a01b0319928316179055600b80549590931694169390931790555062000a56945050505050565b600081620002af57507f2fe54c60d3acabf3343a35b6eba15db4821b340f76e741e2249685ed4899af6c919050565b8160011415620002e057507f256a6135777eee2fd26f54b8b7037a25439d5235caee224154186d2b8a52e31d919050565b81600214156200031157507f1151949895e82ab19924de92c40a3d6f7bcb60d92b00504b8199613683f0c200919050565b81600314156200034257507f20121ee811489ff8d61f09fb89e313f14959a0f28bb428a20dba6b0b068b3bdb919050565b81600414156200037357507f0a89ca6ffa14cc462cfedb842c30ed221a50a3d6bf022a6a57dc82ab24c157c9919050565b8160051415620003a457507f24ca05c2b5cd42e890d6be94c68d0689f4f21c9cec9c0f13fe41d566dfb54959919050565b8160061415620003d557507f1ccb97c932565a92c60156bdba2d08f3bf1377464e025cee765679e604a7315c919050565b81600714156200040657507f19156fbd7d1a8bf5cba8909367de1b624534ebab4f0f79e003bccdd1b182bdb4919050565b81600814156200043757507f261af8c1f0912e465744641409f622d466c3920ac6e5ff37e36604cb11dfff80919050565b81600914156200046757507e58459724ff6ca5a1652fcbc3e82b93895cf08e975b19beab3f54c217d1c007919050565b81600a14156200049857507f1f04ef20dee48d39984d8eabe768a70eafa6310ad20849d4573c3c40c2ad1e30919050565b81600b1415620004c957507f1bea3dec5dab51567ce7e200a30f7ba6d4276aeaa53e2686f962a46c66d511e5919050565b81600c1415620004fa57507f0ee0f941e2da4b9e31c3ca97a40d8fa9ce68d97c084177071b3cb46cd3372f0f919050565b81600d14156200052b57507f1ca9503e8935884501bbaf20be14eb4c46b89772c97b96e3b2ebf3a36a948bbd919050565b81600e14156200055c57507f133a80e30697cd55d8f7d4b0965b7be24057ba5dc3da898ee2187232446cb108919050565b81600f14156200058d57507f13e6d8fc88839ed76e182c2a779af5b2c0da9dd18c90427a644f7e148a6253b6919050565b8160101415620005be57507f1eb16b057a477f4bc8f572ea6bee39561098f78f15bfb3699dcbb7bd8db61854919050565b8160111415620005ef57507f0da2cb16a1ceaabf1c16b838f7a9e3f2a3a3088d9e0a6debaa748114620696ea919050565b81601214156200062057507f24a3b3d822420b14b5d8cb6c28a574f01e98ea9e940551d2ebd75cee12649f9d919050565b81601314156200065157507f198622acbd783d1b0d9064105b1fc8e4d8889de95c4c519b3f635809fe6afc05919050565b81601414156200068257507f29d7ed391256ccc3ea596c86e933b89ff339d25ea8ddced975ae2fe30b5296d4919050565b8160151415620006b357507f19be59f2f0413ce78c0c3703a3a5451b1d7f39629fa33abd11548a76065b2967919050565b8160161415620006e457507f1ff3f61797e538b70e619310d33f2a063e7eb59104e112e95738da1254dc3453919050565b81601714156200071557507f10c16ae9959cf8358980d9dd9616e48228737310a10e2b6b731c1a548f036c48919050565b81601814156200074657507f0ba433a63174a90ac20992e75e3095496812b652685b5e1a2eae0b1bf4e8fcd1919050565b81601914156200077757507f019ddb9df2bc98d987d0dfeca9d2b643deafab8f7036562e627c3667266a044c919050565b81601a1415620007a857507f2d3c88b23175c5a5565db928414c66d1912b11acf974b2e644caaac04739ce99919050565b81601b1415620007d957507f2eab55f6ae4e66e32c5189eed5c470840863445760f5ed7e7b69b2a62600f354919050565b81601c14156200080957507e2df37a2642621802383cf952bf4dd1f32e05433beeb1fd41031fb7eace979d919050565b81601d14156200083a57507f104aeb41435db66c3e62feccc1d6f5d98d0a0ed75d1374db457cf462e3a1f427919050565b81601e14156200086b57507f1f3c6fd858e9a7d4b0d1f38e256a09d81d5a5e3c963987e2d4b814cfab7c6ebb919050565b81601f14156200089c57507f2c7a07d20dff79d01fecedc1134284a8d08436606c93693b67e333f671bf69cc919050565b60405162461bcd60e51b815260206004820152601360248201527f496e646578206f7574206f6620626f756e6473000000000000000000000000006044820152606401620000aa565b600380546001600160a01b0383811668010000000000000000818102600160401b600160e01b031985161790945560405193909204169182907f8be0079c531659141344cd1fd0a4f28419497f9722a3daafe3b4186f6b6457e090600090a35050565b6001600160a01b03811681146200095e57600080fd5b50565b60008060008060008060c087890312156200097b57600080fd5b8651620009888162000948565b60208801519096506200099b8162000948565b60408801516060890151919650945063ffffffff81168114620009bd57600080fd5b6080880151909350620009d08162000948565b60a0880151909250620009e38162000948565b809150509295509295509295565b634e487b7160e01b600052601160045260246000fd5b600063ffffffff8083168181141562000a245762000a24620009f1565b6001019392505050565b600063ffffffff8381169083168181101562000a4e5762000a4e620009f1565b039392505050565b60805160a051612c9862000a8a6000396000818161028301526108cf0152600081816106400152611d620152612c986000f3fe6080604052600436106101e75760003560e01c8063b0cd3d1411610102578063e5285dcc11610095578063f178e47c11610064578063f178e47c14610662578063f2fde38b1461068f578063fc0c546a146106af578063fc7e9c6f146106dc57600080fd5b8063e5285dcc146105aa578063e8295588146105da578063ec732959146105fa578063ed33639f1461062e57600080fd5b8063c2b40ae4116100d1578063c2b40ae41461050a578063c59d484714610537578063cd87a3b414610568578063e3a0f2641461057d57600080fd5b8063b0cd3d1414610482578063b214faa5146104ad578063ba70f757146104c0578063beabacc8146104ea57600080fd5b8063839df9451161017a57806390eeb02b1161014957806390eeb02b146104025780639fa12d0b1461041f578063a1244c671461044c578063a9059cbb1461046257600080fd5b8063839df945146103655780638bca6d16146103955780638da5cb5b146103ab5780638ea3099e146103e257600080fd5b8063414a37ba116101b6578063414a37ba146102ca5780634ecf518b146102fe5780636d9833e314610330578063715018a61461035057600080fd5b80631101f818146101f357806317cc915c1461021c57806321a0adb61461025c5780632b7ac3f31461027157600080fd5b366101ee57005b600080fd5b3480156101ff57600080fd5b50610209600a5481565b6040519081526020015b60405180910390f35b34801561022857600080fd5b5061024c610237366004612510565b60076020526000908152604090205460ff1681565b6040519015158152602001610213565b61026f61026a366004612556565b610701565b005b34801561027d57600080fd5b506102a57f000000000000000000000000000000000000000000000000000000000000000081565b60405173ffffffffffffffffffffffffffffffffffffffff9091168152602001610213565b3480156102d657600080fd5b506102097f30644e72e131a029b85045b68181585d2833e84879b9709143e1f593f000000181565b34801561030a57600080fd5b5060005461031b9063ffffffff1681565b60405163ffffffff9091168152602001610213565b34801561033c57600080fd5b5061024c61034b366004612510565b610a7c565b34801561035c57600080fd5b5061026f610af7565b34801561037157600080fd5b5061024c610380366004612510565b60086020526000908152604090205460ff1681565b3480156103a157600080fd5b5061020960065481565b3480156103b757600080fd5b5060035468010000000000000000900473ffffffffffffffffffffffffffffffffffffffff166102a5565b3480156103ee57600080fd5b506102096103fd36600461260c565b610b0b565b34801561040e57600080fd5b5060035461031b9063ffffffff1681565b34801561042b57600080fd5b5061043f61043a366004612641565b610daa565b60405161021391906126b6565b34801561045857600080fd5b5061020960095481565b34801561046e57600080fd5b5061026f61047d3660046126fc565b610e70565b34801561048e57600080fd5b5060055473ffffffffffffffffffffffffffffffffffffffff166102a5565b61026f6104bb366004612510565b610ec0565b3480156104cc57600080fd5b5060035463ffffffff16600090815260026020526040902054610209565b3480156104f657600080fd5b5061026f610505366004612728565b611019565b34801561051657600080fd5b50610209610525366004612510565b60026020526000908152604090205481565b34801561054357600080fd5b50600654600954600a5460408051938452602084019290925290820152606001610213565b34801561057457600080fd5b5061031b601e81565b34801561058957600080fd5b506005546102a59073ffffffffffffffffffffffffffffffffffffffff1681565b3480156105b657600080fd5b5061024c6105c5366004612510565b60009081526007602052604090205460ff1690565b3480156105e657600080fd5b506102096105f5366004612510565b61116f565b34801561060657600080fd5b506102097f2fe54c60d3acabf3343a35b6eba15db4821b340f76e741e2249685ed4899af6c81565b34801561063a57600080fd5b506102a57f000000000000000000000000000000000000000000000000000000000000000081565b34801561066e57600080fd5b5061020961067d366004612510565b60016020526000908152604090205481565b34801561069b57600080fd5b5061026f6106aa366004612769565b6117d2565b3480156106bb57600080fd5b50600b546102a59073ffffffffffffffffffffffffffffffffffffffff1681565b3480156106e857600080fd5b5060035461031b90640100000000900463ffffffff1681565b610709611886565b60065482111561077a576040517f08c379a000000000000000000000000000000000000000000000000000000000815260206004820152601a60248201527f4665652065786365656473207472616e736665722076616c756500000000000060448201526064015b60405180910390fd5b60008581526007602052604090205460ff16156107f3576040517f08c379a000000000000000000000000000000000000000000000000000000000815260206004820152601f60248201527f546865206e6f746520686173206265656e20616c7265616479207370656e74006044820152606401610771565b6107fc86610a7c565b610862576040517f08c379a000000000000000000000000000000000000000000000000000000000815260206004820152601c60248201527f43616e6e6f742066696e6420796f7572206d65726b6c6520726f6f74000000006044820152606401610771565b6040805160c0810182528781526020810187905273ffffffffffffffffffffffffffffffffffffffff8681168284015285811660608301526080820185905260a0820184905291517f695ef6f90000000000000000000000000000000000000000000000000000000081527f00000000000000000000000000000000000000000000000000000000000000009092169163695ef6f991610908918c918c9160040161278d565b6020604051808303816000875af1158015610927573d6000803e3d6000fd5b505050506040513d601f19601f8201168201806040525081019061094b9190612809565b6109b1576040517f08c379a000000000000000000000000000000000000000000000000000000000815260206004820152601660248201527f496e76616c69642077697468647261772070726f6f66000000000000000000006044820152606401610771565b600085815260076020526040902080547fffffffffffffffffffffffffffffffffffffffffffffffffffffffffffffff001660011790556109f4848484846118fa565b6001600a6000828254610a07919061285a565b90915550506040805173ffffffffffffffffffffffffffffffffffffffff868116825260208201889052918101849052908416907fe9e508bad6d4c3227e881ca19068f099da81b5164dd6d62b2eaf1e8bc6c349319060600160405180910390a2610a726001600455565b5050505050505050565b600081610a8b57506000919050565b60035463ffffffff16805b63ffffffff8116600090815260026020526040902054841415610abd575060019392505050565b63ffffffff8116610acc5750601e5b80610ad681612872565b9150508163ffffffff168163ffffffff161415610a96575060009392505050565b610aff611b0c565b610b096000611b9a565b565b60007f30644e72e131a029b85045b68181585d2833e84879b9709143e1f593f00000018310610b96576040517f08c379a000000000000000000000000000000000000000000000000000000000815260206004820181905260248201527f5f6c6566742073686f756c6420626520696e7369646520746865206669656c646044820152606401610771565b7f30644e72e131a029b85045b68181585d2833e84879b9709143e1f593f00000018210610c45576040517f08c379a000000000000000000000000000000000000000000000000000000000815260206004820152602160248201527f5f72696768742073686f756c6420626520696e7369646520746865206669656c60448201527f64000000000000000000000000000000000000000000000000000000000000006064820152608401610771565b6040517ff47d33b500000000000000000000000000000000000000000000000000000000815260048101849052600060248201819052849173ffffffffffffffffffffffffffffffffffffffff87169063f47d33b5906044016040805180830381865afa158015610cba573d6000803e3d6000fd5b505050506040513d601f19601f82011682018060405250810190610cde91906128b0565b90925090507f30644e72e131a029b85045b68181585d2833e84879b9709143e1f593f00000018483086040517ff47d33b5000000000000000000000000000000000000000000000000000000008152600481018290526024810183905290925073ffffffffffffffffffffffffffffffffffffffff87169063f47d33b5906044016040805180830381865afa158015610d7b573d6000803e3d6000fd5b505050506040513d601f19601f82011682018060405250810190610d9f91906128b0565b509695505050505050565b60608167ffffffffffffffff811115610dc557610dc5612903565b604051908082528060200260200182016040528015610dee578160200160208202803683370190505b50905060005b82811015610e6957610e2d848483818110610e1157610e11612932565b9050602002013560009081526007602052604090205460ff1690565b15610e57576001828281518110610e4657610e46612932565b911515602092830291909101909101525b80610e6181612961565b915050610df4565b5092915050565b610e78611b0c565b60405173ffffffffffffffffffffffffffffffffffffffff83169082156108fc029083906000818181858888f19350505050158015610ebb573d6000803e3d6000fd5b505050565b610ec8611886565b60008181526008602052604090205460ff1615610f67576040517f08c379a000000000000000000000000000000000000000000000000000000000815260206004820152602160248201527f54686520636f6d6d69746d656e7420686173206265656e207375626d6974746560448201527f64000000000000000000000000000000000000000000000000000000000000006064820152608401610771565b6000610f7282611c1f565b600083815260086020526040902080547fffffffffffffffffffffffffffffffffffffffffffffffffffffffffffffff001660011790559050610fb3611e69565b600160096000828254610fc6919061285a565b90915550506040805163ffffffff8316815242602082015283917fa945e51eec50ab98c161376f0db4cf2aeba3ec92755fe2fcd388bdbbb80ff196910160405180910390a2506110166001600455565b50565b611021611b0c565b600b5473ffffffffffffffffffffffffffffffffffffffff838116911614156110cc576040517f08c379a000000000000000000000000000000000000000000000000000000000815260206004820152603560248201527f746f6b656e20616464726573732073686f756c64206e6f74206265207468652060448201527f73616d65206173206465706f73697420746f6b656e00000000000000000000006064820152608401610771565b6040517fa9059cbb00000000000000000000000000000000000000000000000000000000815273ffffffffffffffffffffffffffffffffffffffff84811660048301526024820183905283919082169063a9059cbb906044016020604051808303816000875af1158015611144573d6000803e3d6000fd5b505050506040513d601f19601f820116820180604052508101906111689190612809565b5050505050565b60008161119d57507f2fe54c60d3acabf3343a35b6eba15db4821b340f76e741e2249685ed4899af6c919050565b81600114156111cd57507f256a6135777eee2fd26f54b8b7037a25439d5235caee224154186d2b8a52e31d919050565b81600214156111fd57507f1151949895e82ab19924de92c40a3d6f7bcb60d92b00504b8199613683f0c200919050565b816003141561122d57507f20121ee811489ff8d61f09fb89e313f14959a0f28bb428a20dba6b0b068b3bdb919050565b816004141561125d57507f0a89ca6ffa14cc462cfedb842c30ed221a50a3d6bf022a6a57dc82ab24c157c9919050565b816005141561128d57507f24ca05c2b5cd42e890d6be94c68d0689f4f21c9cec9c0f13fe41d566dfb54959919050565b81600614156112bd57507f1ccb97c932565a92c60156bdba2d08f3bf1377464e025cee765679e604a7315c919050565b81600714156112ed57507f19156fbd7d1a8bf5cba8909367de1b624534ebab4f0f79e003bccdd1b182bdb4919050565b816008141561131d57507f261af8c1f0912e465744641409f622d466c3920ac6e5ff37e36604cb11dfff80919050565b816009141561134c57507e58459724ff6ca5a1652fcbc3e82b93895cf08e975b19beab3f54c217d1c007919050565b81600a141561137c57507f1f04ef20dee48d39984d8eabe768a70eafa6310ad20849d4573c3c40c2ad1e30919050565b81600b14156113ac57507f1bea3dec5dab51567ce7e200a30f7ba6d4276aeaa53e2686f962a46c66d511e5919050565b81600c14156113dc57507f0ee0f941e2da4b9e31c3ca97a40d8fa9ce68d97c084177071b3cb46cd3372f0f919050565b81600d141561140c57507f1ca9503e8935884501bbaf20be14eb4c46b89772c97b96e3b2ebf3a36a948bbd919050565b81600e141561143c57507f133a80e30697cd55d8f7d4b0965b7be24057ba5dc3da898ee2187232446cb108919050565b81600f141561146c57507f13e6d8fc88839ed76e182c2a779af5b2c0da9dd18c90427a644f7e148a6253b6919050565b816010141561149c57507f1eb16b057a477f4bc8f572ea6bee39561098f78f15bfb3699dcbb7bd8db61854919050565b81601114156114cc57507f0da2cb16a1ceaabf1c16b838f7a9e3f2a3a3088d9e0a6debaa748114620696ea919050565b81601214156114fc57507f24a3b3d822420b14b5d8cb6c28a574f01e98ea9e940551d2ebd75cee12649f9d919050565b816013141561152c57507f198622acbd783d1b0d9064105b1fc8e4d8889de95c4c519b3f635809fe6afc05919050565b816014141561155c57507f29d7ed391256ccc3ea596c86e933b89ff339d25ea8ddced975ae2fe30b5296d4919050565b816015141561158c57507f19be59f2f0413ce78c0c3703a3a5451b1d7f39629fa33abd11548a76065b2967919050565b81601614156115bc57507f1ff3f61797e538b70e619310d33f2a063e7eb59104e112e95738da1254dc3453919050565b81601714156115ec57507f10c16ae9959cf8358980d9dd9616e48228737310a10e2b6b731c1a548f036c48919050565b816018141561161c57507f0ba433a63174a90ac20992e75e3095496812b652685b5e1a2eae0b1bf4e8fcd1919050565b816019141561164c57507f019ddb9df2bc98d987d0dfeca9d2b643deafab8f7036562e627c3667266a044c919050565b81601a141561167c57507f2d3c88b23175c5a5565db928414c66d1912b11acf974b2e644caaac04739ce99919050565b81601b14156116ac57507f2eab55f6ae4e66e32c5189eed5c470840863445760f5ed7e7b69b2a62600f354919050565b81601c14156116db57507e2df37a2642621802383cf952bf4dd1f32e05433beeb1fd41031fb7eace979d919050565b81601d141561170b57507f104aeb41435db66c3e62feccc1d6f5d98d0a0ed75d1374db457cf462e3a1f427919050565b81601e141561173b57507f1f3c6fd858e9a7d4b0d1f38e256a09d81d5a5e3c963987e2d4b814cfab7c6ebb919050565b81601f141561176b57507f2c7a07d20dff79d01fecedc1134284a8d08436606c93693b67e333f671bf69cc919050565b6040517f08c379a000000000000000000000000000000000000000000000000000000000815260206004820152601360248201527f496e646578206f7574206f6620626f756e6473000000000000000000000000006044820152606401610771565b919050565b6117da611b0c565b73ffffffffffffffffffffffffffffffffffffffff811661187d576040517f08c379a000000000000000000000000000000000000000000000000000000000815260206004820152602660248201527f4f776e61626c653a206e6577206f776e657220697320746865207a65726f206160448201527f64647265737300000000000000000000000000000000000000000000000000006064820152608401610771565b61101681611b9a565b600260045414156118f3576040517f08c379a000000000000000000000000000000000000000000000000000000000815260206004820152601f60248201527f5265656e7472616e637947756172643a207265656e7472616e742063616c6c006044820152606401610771565b6002600455565b803414611989576040517f08c379a000000000000000000000000000000000000000000000000000000000815260206004820152603060248201527f496e636f727265637420726566756e6420616d6f756e7420726563656976656460448201527f2062792074686520636f6e7472616374000000000000000000000000000000006064820152608401610771565b6000611993611f23565b61199b611fbc565b6006546119a8919061299a565b6119b291906129d7565b9050600083826006546119c591906129eb565b6119cf91906129eb565b600b549091506119f69073ffffffffffffffffffffffffffffffffffffffff16878361202c565b8115611a2757611a27611a07612100565b600b5473ffffffffffffffffffffffffffffffffffffffff16908461202c565b8315611a5157600b54611a519073ffffffffffffffffffffffffffffffffffffffff16868661202c565b8215611b045760008673ffffffffffffffffffffffffffffffffffffffff168460405160006040518083038185875af1925050503d8060008114611ab1576040519150601f19603f3d011682016040523d82523d6000602084013e611ab6565b606091505b5050905080611b025760405173ffffffffffffffffffffffffffffffffffffffff87169085156108fc029086906000818181858888f19350505050158015610a72573d6000803e3d6000fd5b505b505050505050565b60035473ffffffffffffffffffffffffffffffffffffffff68010000000000000000909104163314610b09576040517f08c379a000000000000000000000000000000000000000000000000000000000815260206004820181905260248201527f4f776e61626c653a2063616c6c6572206973206e6f7420746865206f776e65726044820152606401610771565b6003805473ffffffffffffffffffffffffffffffffffffffff838116680100000000000000008181027fffffffff0000000000000000000000000000000000000000ffffffffffffffff85161790945560405193909204169182907f8be0079c531659141344cd1fd0a4f28419497f9722a3daafe3b4186f6b6457e090600090a35050565b60035460008054909163ffffffff640100000000909104811691611c4591166002612b15565b63ffffffff168163ffffffff161415611ce0576040517f08c379a000000000000000000000000000000000000000000000000000000000815260206004820152603060248201527f4d65726b6c6520747265652069732066756c6c2e204e6f206d6f7265206c656160448201527f7665732063616e206265206164646564000000000000000000000000000000006064820152608401610771565b8083600080805b60005463ffffffff9081169082161015611da957611d06600286612b2a565b63ffffffff16611d4157839250611d228163ffffffff1661116f565b63ffffffff821660009081526001602052604090208590559150611d5d565b63ffffffff811660009081526001602052604090205492508391505b611d887f00000000000000000000000000000000000000000000000000000000000000008484610b0b565b9350611d95600286612b4d565b945080611da181612b70565b915050611ce7565b50600354600090601e90611dc49063ffffffff166001612b94565b611dce9190612b2a565b600380547fffffffffffffffffffffffffffffffffffffffffffffffffffffffff000000001663ffffffff831690811790915560009081526002602052604090208590559050611e1f866001612b94565b6003805463ffffffff92909216640100000000027fffffffffffffffffffffffffffffffffffffffffffffffff00000000ffffffff90921691909117905550939695505050505050565b3415611ef7576040517f08c379a000000000000000000000000000000000000000000000000000000000815260206004820152603060248201527f4554482076616c756520697320737570706f73656420746f206265203020666f60448201527f7220455243323020696e7374616e6365000000000000000000000000000000006064820152608401610771565b600654600b54610b099173ffffffffffffffffffffffffffffffffffffffff9091169033903090612194565b600554604080517f180b0d7e000000000000000000000000000000000000000000000000000000008152905160009273ffffffffffffffffffffffffffffffffffffffff169163180b0d7e9160048083019260209291908290030181865afa158015611f93573d6000803e3d6000fd5b505050506040513d601f19601f82011682018060405250810190611fb79190612bbc565b905090565b600554604080517fe86dea4a000000000000000000000000000000000000000000000000000000008152905160009273ffffffffffffffffffffffffffffffffffffffff169163e86dea4a9160048083019260209291908290030181865afa158015611f93573d6000803e3d6000fd5b60405173ffffffffffffffffffffffffffffffffffffffff8316602482015260448101829052610ebb9084907fa9059cbb00000000000000000000000000000000000000000000000000000000906064015b604080517fffffffffffffffffffffffffffffffffffffffffffffffffffffffffffffffe08184030181529190526020810180517bffffffffffffffffffffffffffffffffffffffffffffffffffffffff167fffffffff00000000000000000000000000000000000000000000000000000000909316929092179091526121f8565b600554604080517f61d027b3000000000000000000000000000000000000000000000000000000008152905160009273ffffffffffffffffffffffffffffffffffffffff16916361d027b39160048083019260209291908290030181865afa158015612170573d6000803e3d6000fd5b505050506040513d601f19601f82011682018060405250810190611fb79190612bd5565b60405173ffffffffffffffffffffffffffffffffffffffff808516602483015283166044820152606481018290526121f29085907f23b872dd000000000000000000000000000000000000000000000000000000009060840161207e565b50505050565b600061225a826040518060400160405280602081526020017f5361666545524332303a206c6f772d6c6576656c2063616c6c206661696c65648152508573ffffffffffffffffffffffffffffffffffffffff166123049092919063ffffffff16565b805190915015610ebb57808060200190518101906122789190612809565b610ebb576040517f08c379a000000000000000000000000000000000000000000000000000000000815260206004820152602a60248201527f5361666545524332303a204552433230206f7065726174696f6e20646964206e60448201527f6f742073756363656564000000000000000000000000000000000000000000006064820152608401610771565b6060612313848460008561231b565b949350505050565b6060824710156123ad576040517f08c379a000000000000000000000000000000000000000000000000000000000815260206004820152602660248201527f416464726573733a20696e73756666696369656e742062616c616e636520666f60448201527f722063616c6c00000000000000000000000000000000000000000000000000006064820152608401610771565b6000808673ffffffffffffffffffffffffffffffffffffffff1685876040516123d69190612c1e565b60006040518083038185875af1925050503d8060008114612413576040519150601f19603f3d011682016040523d82523d6000602084013e612418565b606091505b509150915061242987838387612434565b979650505050505050565b606083156124c75782516124c05773ffffffffffffffffffffffffffffffffffffffff85163b6124c0576040517f08c379a000000000000000000000000000000000000000000000000000000000815260206004820152601d60248201527f416464726573733a2063616c6c20746f206e6f6e2d636f6e74726163740000006044820152606401610771565b5081612313565b61231383838151156124dc5781518083602001fd5b806040517f08c379a00000000000000000000000000000000000000000000000000000000081526004016107719190612c3a565b60006020828403121561252257600080fd5b5035919050565b73ffffffffffffffffffffffffffffffffffffffff8116811461101657600080fd5b80356117cd81612529565b60008060008060008060008060e0898b03121561257257600080fd5b883567ffffffffffffffff8082111561258a57600080fd5b818b0191508b601f83011261259e57600080fd5b8135818111156125ad57600080fd5b8c60208285010111156125bf57600080fd5b60209283019a509850508901359550604089013594506125e160608a0161254b565b93506125ef60808a0161254b565b925060a0890135915060c089013590509295985092959890939650565b60008060006060848603121561262157600080fd5b833561262c81612529565b95602085013595506040909401359392505050565b6000806020838503121561265457600080fd5b823567ffffffffffffffff8082111561266c57600080fd5b818501915085601f83011261268057600080fd5b81358181111561268f57600080fd5b8660208260051b85010111156126a457600080fd5b60209290920196919550909350505050565b6020808252825182820181905260009190848201906040850190845b818110156126f05783511515835292840192918401916001016126d2565b50909695505050505050565b6000806040838503121561270f57600080fd5b823561271a81612529565b946020939093013593505050565b60008060006060848603121561273d57600080fd5b833561274881612529565b9250602084013561275881612529565b929592945050506040919091013590565b60006020828403121561277b57600080fd5b813561278681612529565b9392505050565b60e081528260e082015260006101008486828501376000818685010152807fffffffffffffffffffffffffffffffffffffffffffffffffffffffffffffffe0601f87011684010191505060208083018460005b60068110156127fd578151835291830191908301906001016127e0565b50505050949350505050565b60006020828403121561281b57600080fd5b8151801515811461278657600080fd5b7f4e487b7100000000000000000000000000000000000000000000000000000000600052601160045260246000fd5b6000821982111561286d5761286d61282b565b500190565b600063ffffffff8216806128885761288861282b565b7fffffffffffffffffffffffffffffffffffffffffffffffffffffffffffffffff0192915050565b600080604083850312156128c357600080fd5b505080516020909101519092909150565b7f4e487b7100000000000000000000000000000000000000000000000000000000600052601260045260246000fd5b7f4e487b7100000000000000000000000000000000000000000000000000000000600052604160045260246000fd5b7f4e487b7100000000000000000000000000000000000000000000000000000000600052603260045260246000fd5b60007fffffffffffffffffffffffffffffffffffffffffffffffffffffffffffffffff8214156129935761299361282b565b5060010190565b6000817fffffffffffffffffffffffffffffffffffffffffffffffffffffffffffffffff04831182151516156129d2576129d261282b565b500290565b6000826129e6576129e66128d4565b500490565b6000828210156129fd576129fd61282b565b500390565b600181815b80851115612a3f578163ffffffff04821115612a2557612a2561282b565b80851615612a3257918102915b93841c9390800290612a07565b509250929050565b600082612a5657506001612b0f565b81612a6357506000612b0f565b8160018114612a795760028114612a8357612ab4565b6001915050612b0f565b60ff841115612a9457612a9461282b565b6001841b915063ffffffff821115612aae57612aae61282b565b50612b0f565b5060208310610133831016604e8410600b8410161715612aeb575081810a63ffffffff811115612ae657612ae661282b565b612b0f565b612af58383612a02565b8063ffffffff04821115612b0b57612b0b61282b565b0290505b92915050565b600063ffffffff612313818516828516612a47565b600063ffffffff80841680612b4157612b416128d4565b92169190910692915050565b600063ffffffff80841680612b6457612b646128d4565b92169190910492915050565b600063ffffffff80831681811415612b8a57612b8a61282b565b6001019392505050565b600063ffffffff808316818516808303821115612bb357612bb361282b565b01949350505050565b600060208284031215612bce57600080fd5b5051919050565b600060208284031215612be757600080fd5b815161278681612529565b60005b83811015612c0d578181015183820152602001612bf5565b838111156121f25750506000910152565b60008251612c30818460208701612bf2565b9190910192915050565b6020815260008251806020840152612c59816040850160208701612bf2565b601f017fffffffffffffffffffffffffffffffffffffffffffffffffffffffffffffffe016919091016040019291505056fea164736f6c634300080a000a",
  "linkReferences": {},
  "deployedLinkReferences": {}
}