{
  "_format": "hh-sol-artifact-1",
  "contractName": "KIP7Tonic",
  "sourceName": "contracts/classic/KIP7Tonic.sol",
  "abi": [
    {
      "inputs": [
        {
          "internalType": "contract IVerifier",
          "name": "_verifier",
          "type": "address"
        },
        {
          "internalType": "contract IHasher",
          "name": "_hasher",
          "type": "address"
        },
        {
          "internalType": "uint256",
          "name": "_denomination",
          "type": "uint256"
        },
        {
          "internalType": "uint32",
          "name": "_merkleTreeHeight",
          "type": "uint32"
        },
        {
          "internalType": "contract IERC20",
          "name": "_token",
          "type": "address"
        },
        {
          "internalType": "address payable",
          "name": "_feePolicyManagerAddress",
          "type": "address"
        }
      ],
      "stateMutability": "nonpayable",
      "type": "constructor"
    },
    {
      "anonymous": false,
      "inputs": [
        {
          "indexed": true,
          "internalType": "bytes32",
          "name": "commitment",
          "type": "bytes32"
        },
        {
          "indexed": false,
          "internalType": "uint32",
          "name": "leafIndex",
          "type": "uint32"
        },
        {
          "indexed": false,
          "internalType": "uint256",
          "name": "timestamp",
          "type": "uint256"
        }
      ],
      "name": "Deposit",
      "type": "event"
    },
    {
      "anonymous": false,
      "inputs": [
        {
          "indexed": true,
          "internalType": "address",
          "name": "previousOwner",
          "type": "address"
        },
        {
          "indexed": true,
          "internalType": "address",
          "name": "newOwner",
          "type": "address"
        }
      ],
      "name": "OwnershipTransferred",
      "type": "event"
    },
    {
      "anonymous": false,
      "inputs": [
        {
          "indexed": false,
          "internalType": "address",
          "name": "to",
          "type": "address"
        },
        {
          "indexed": false,
          "internalType": "bytes32",
          "name": "nullifierHash",
          "type": "bytes32"
        },
        {
          "indexed": true,
          "internalType": "address",
          "name": "relayer",
          "type": "address"
        },
        {
          "indexed": false,
          "internalType": "uint256",
          "name": "fee",
          "type": "uint256"
        }
      ],
      "name": "Withdrawal",
      "type": "event"
    },
    {
      "inputs": [],
      "name": "FIELD_SIZE",
      "outputs": [
        {
          "internalType": "uint256",
          "name": "",
          "type": "uint256"
        }
      ],
      "stateMutability": "view",
      "type": "function"
    },
    {
      "inputs": [],
      "name": "ROOT_HISTORY_SIZE",
      "outputs": [
        {
          "internalType": "uint32",
          "name": "",
          "type": "uint32"
        }
      ],
      "stateMutability": "view",
      "type": "function"
    },
    {
      "inputs": [],
      "name": "ZERO_VALUE",
      "outputs": [
        {
          "internalType": "uint256",
          "name": "",
          "type": "uint256"
        }
      ],
      "stateMutability": "view",
      "type": "function"
    },
    {
      "inputs": [
        {
          "internalType": "bytes32",
          "name": "",
          "type": "bytes32"
        }
      ],
      "name": "commitments",
      "outputs": [
        {
          "internalType": "bool",
          "name": "",
          "type": "bool"
        }
      ],
      "stateMutability": "view",
      "type": "function"
    },
    {
      "inputs": [],
      "name": "currentRootIndex",
      "outputs": [
        {
          "internalType": "uint32",
          "name": "",
          "type": "uint32"
        }
      ],
      "stateMutability": "view",
      "type": "function"
    },
    {
      "inputs": [],
      "name": "denomination",
      "outputs": [
        {
          "internalType": "uint256",
          "name": "",
          "type": "uint256"
        }
      ],
      "stateMutability": "view",
      "type": "function"
    },
    {
      "inputs": [
        {
          "internalType": "bytes32",
          "name": "_commitment",
          "type": "bytes32"
        }
      ],
      "name": "deposit",
      "outputs": [],
      "stateMutability": "payable",
      "type": "function"
    },
    {
      "inputs": [],
      "name": "feePolicyManager",
      "outputs": [
        {
          "internalType": "contract TonicFeePolicyManager",
          "name": "",
          "type": "address"
        }
      ],
      "stateMutability": "view",
      "type": "function"
    },
    {
      "inputs": [
        {
          "internalType": "uint256",
          "name": "",
          "type": "uint256"
        }
      ],
      "name": "filledSubtrees",
      "outputs": [
        {
          "internalType": "bytes32",
          "name": "",
          "type": "bytes32"
        }
      ],
      "stateMutability": "view",
      "type": "function"
    },
    {
      "inputs": [],
      "name": "getFeePolicyManagerAddress",
      "outputs": [
        {
          "internalType": "address",
          "name": "",
          "type": "address"
        }
      ],
      "stateMutability": "view",
      "type": "function"
    },
    {
      "inputs": [],
      "name": "getLastRoot",
      "outputs": [
        {
          "internalType": "bytes32",
          "name": "",
          "type": "bytes32"
        }
      ],
      "stateMutability": "view",
      "type": "function"
    },
    {
      "inputs": [],
      "name": "getStats",
      "outputs": [
        {
          "internalType": "uint256",
          "name": "_denomination",
          "type": "uint256"
        },
        {
          "internalType": "uint256",
          "name": "_numberOfDeposits",
          "type": "uint256"
        },
        {
          "internalType": "uint256",
          "name": "_numberOfWithdrawals",
          "type": "uint256"
        }
      ],
      "stateMutability": "view",
      "type": "function"
    },
    {
      "inputs": [
        {
          "internalType": "contract IHasher",
          "name": "_hasher",
          "type": "address"
        },
        {
          "internalType": "bytes32",
          "name": "_left",
          "type": "bytes32"
        },
        {
          "internalType": "bytes32",
          "name": "_right",
          "type": "bytes32"
        }
      ],
      "name": "hashLeftRight",
      "outputs": [
        {
          "internalType": "bytes32",
          "name": "",
          "type": "bytes32"
        }
      ],
      "stateMutability": "pure",
      "type": "function"
    },
    {
      "inputs": [],
      "name": "hasher",
      "outputs": [
        {
          "internalType": "contract IHasher",
          "name": "",
          "type": "address"
        }
      ],
      "stateMutability": "view",
      "type": "function"
    },
    {
      "inputs": [
        {
          "internalType": "bytes32",
          "name": "_root",
          "type": "bytes32"
        }
      ],
      "name": "isKnownRoot",
      "outputs": [
        {
          "internalType": "bool",
          "name": "",
          "type": "bool"
        }
      ],
      "stateMutability": "view",
      "type": "function"
    },
    {
      "inputs": [
        {
          "internalType": "bytes32",
          "name": "_nullifierHash",
          "type": "bytes32"
        }
      ],
      "name": "isSpent",
      "outputs": [
        {
          "internalType": "bool",
          "name": "",
          "type": "bool"
        }
      ],
      "stateMutability": "view",
      "type": "function"
    },
    {
      "inputs": [
        {
          "internalType": "bytes32[]",
          "name": "_nullifierHashes",
          "type": "bytes32[]"
        }
      ],
      "name": "isSpentArray",
      "outputs": [
        {
          "internalType": "bool[]",
          "name": "spent",
          "type": "bool[]"
        }
      ],
      "stateMutability": "view",
      "type": "function"
    },
    {
      "inputs": [],
      "name": "levels",
      "outputs": [
        {
          "internalType": "uint32",
          "name": "",
          "type": "uint32"
        }
      ],
      "stateMutability": "view",
      "type": "function"
    },
    {
      "inputs": [],
      "name": "nextIndex",
      "outputs": [
        {
          "internalType": "uint32",
          "name": "",
          "type": "uint32"
        }
      ],
      "stateMutability": "view",
      "type": "function"
    },
    {
      "inputs": [
        {
          "internalType": "bytes32",
          "name": "",
          "type": "bytes32"
        }
      ],
      "name": "nullifierHashes",
      "outputs": [
        {
          "internalType": "bool",
          "name": "",
          "type": "bool"
        }
      ],
      "stateMutability": "view",
      "type": "function"
    },
    {
      "inputs": [],
      "name": "numberOfDeposits",
      "outputs": [
        {
          "internalType": "uint256",
          "name": "",
          "type": "uint256"
        }
      ],
      "stateMutability": "view",
      "type": "function"
    },
    {
      "inputs": [],
      "name": "numberOfWithdrawals",
      "outputs": [
        {
          "internalType": "uint256",
          "name": "",
          "type": "uint256"
        }
      ],
      "stateMutability": "view",
      "type": "function"
    },
    {
      "inputs": [
        {
          "internalType": "address",
          "name": "",
          "type": "address"
        },
        {
          "internalType": "address",
          "name": "",
          "type": "address"
        },
        {
          "internalType": "uint256",
          "name": "",
          "type": "uint256"
        },
        {
          "internalType": "bytes",
          "name": "",
          "type": "bytes"
        }
      ],
      "name": "onKIP7Received",
      "outputs": [
        {
          "internalType": "bytes4",
          "name": "",
          "type": "bytes4"
        }
      ],
      "stateMutability": "pure",
      "type": "function"
    },
    {
      "inputs": [],
      "name": "owner",
      "outputs": [
        {
          "internalType": "address",
          "name": "",
          "type": "address"
        }
      ],
      "stateMutability": "view",
      "type": "function"
    },
    {
      "inputs": [],
      "name": "renounceOwnership",
      "outputs": [],
      "stateMutability": "nonpayable",
      "type": "function"
    },
    {
      "inputs": [
        {
          "internalType": "uint256",
          "name": "",
          "type": "uint256"
        }
      ],
      "name": "roots",
      "outputs": [
        {
          "internalType": "bytes32",
          "name": "",
          "type": "bytes32"
        }
      ],
      "stateMutability": "view",
      "type": "function"
    },
    {
      "inputs": [],
      "name": "token",
      "outputs": [
        {
          "internalType": "contract IERC20",
          "name": "",
          "type": "address"
        }
      ],
      "stateMutability": "view",
      "type": "function"
    },
    {
      "inputs": [
        {
          "internalType": "address",
          "name": "_recipient",
          "type": "address"
        },
        {
          "internalType": "uint256",
          "name": "_amount",
          "type": "uint256"
        }
      ],
      "name": "transfer",
      "outputs": [],
      "stateMutability": "nonpayable",
      "type": "function"
    },
    {
      "inputs": [
        {
          "internalType": "address",
          "name": "_recipient",
          "type": "address"
        },
        {
          "internalType": "address",
          "name": "_tokenAddr",
          "type": "address"
        },
        {
          "internalType": "uint256",
          "name": "_amount",
          "type": "uint256"
        }
      ],
      "name": "transfer",
      "outputs": [],
      "stateMutability": "nonpayable",
      "type": "function"
    },
    {
      "inputs": [
        {
          "internalType": "address",
          "name": "newOwner",
          "type": "address"
        }
      ],
      "name": "transferOwnership",
      "outputs": [],
      "stateMutability": "nonpayable",
      "type": "function"
    },
    {
      "inputs": [],
      "name": "verifier",
      "outputs": [
        {
          "internalType": "contract IVerifier",
          "name": "",
          "type": "address"
        }
      ],
      "stateMutability": "view",
      "type": "function"
    },
    {
      "inputs": [
        {
          "internalType": "bytes",
          "name": "_proof",
          "type": "bytes"
        },
        {
          "internalType": "bytes32",
          "name": "_root",
          "type": "bytes32"
        },
        {
          "internalType": "bytes32",
          "name": "_nullifierHash",
          "type": "bytes32"
        },
        {
          "internalType": "address payable",
          "name": "_recipient",
          "type": "address"
        },
        {
          "internalType": "address payable",
          "name": "_relayer",
          "type": "address"
        },
        {
          "internalType": "uint256",
          "name": "_relayerFee",
          "type": "uint256"
        },
        {
          "internalType": "uint256",
          "name": "_refund",
          "type": "uint256"
        }
      ],
      "name": "withdraw",
      "outputs": [],
      "stateMutability": "payable",
      "type": "function"
    },
    {
      "inputs": [
        {
          "internalType": "uint256",
          "name": "i",
          "type": "uint256"
        }
      ],
      "name": "zeros",
      "outputs": [
        {
          "internalType": "bytes32",
          "name": "",
          "type": "bytes32"
        }
      ],
      "stateMutability": "pure",
      "type": "function"
    },
    {
      "stateMutability": "payable",
      "type": "receive"
    }
  ],
  "bytecode": "0x60c0604052600380546001600160401b03191690553480156200002157600080fd5b506040516200381838038062003818833981016040819052620000449162000961565b8585858584818460008263ffffffff1611620000b35760405162461bcd60e51b815260206004820152602360248201527f5f6c6576656c732073686f756c642062652067726561746572207468616e207a60448201526265726f60e81b60648201526084015b60405180910390fd5b60208263ffffffff16106200010b5760405162461bcd60e51b815260206004820152601e60248201527f5f6c6576656c732073686f756c64206265206c657373207468616e20333200006044820152606401620000aa565b6000805463ffffffff191663ffffffff84161781556001600160a01b0382166080525b8263ffffffff168163ffffffff1610156200017f576200015463ffffffff821662000280565b63ffffffff821660009081526001602052604090205580620001768162000a07565b9150506200012e565b506200019d6200019160018462000a2e565b63ffffffff1662000280565b6000805260026020527fac33ff75c19e70fe83507db0d683fd3465c996598dc972688b7ace676c89077b5550620001d6905033620008e5565b600160045582620002385760405162461bcd60e51b815260206004820152602560248201527f64656e6f6d696e6174696f6e2073686f756c6420626520677265617465722074604482015264068616e20360dc1b6064820152608401620000aa565b6001600160a01b0394851660a05260069290925550600580549184166001600160a01b0319928316179055600b80549590931694169390931790555062000a56945050505050565b600081620002af57507f2fe54c60d3acabf3343a35b6eba15db4821b340f76e741e2249685ed4899af6c919050565b8160011415620002e057507f256a6135777eee2fd26f54b8b7037a25439d5235caee224154186d2b8a52e31d919050565b81600214156200031157507f1151949895e82ab19924de92c40a3d6f7bcb60d92b00504b8199613683f0c200919050565b81600314156200034257507f20121ee811489ff8d61f09fb89e313f14959a0f28bb428a20dba6b0b068b3bdb919050565b81600414156200037357507f0a89ca6ffa14cc462cfedb842c30ed221a50a3d6bf022a6a57dc82ab24c157c9919050565b8160051415620003a457507f24ca05c2b5cd42e890d6be94c68d0689f4f21c9cec9c0f13fe41d566dfb54959919050565b8160061415620003d557507f1ccb97c932565a92c60156bdba2d08f3bf1377464e025cee765679e604a7315c919050565b81600714156200040657507f19156fbd7d1a8bf5cba8909367de1b624534ebab4f0f79e003bccdd1b182bdb4919050565b81600814156200043757507f261af8c1f0912e465744641409f622d466c3920ac6e5ff37e36604cb11dfff80919050565b81600914156200046757507e58459724ff6ca5a1652fcbc3e82b93895cf08e975b19beab3f54c217d1c007919050565b81600a14156200049857507f1f04ef20dee48d39984d8eabe768a70eafa6310ad20849d4573c3c40c2ad1e30919050565b81600b1415620004c957507f1bea3dec5dab51567ce7e200a30f7ba6d4276aeaa53e2686f962a46c66d511e5919050565b81600c1415620004fa57507f0ee0f941e2da4b9e31c3ca97a40d8fa9ce68d97c084177071b3cb46cd3372f0f919050565b81600d14156200052b57507f1ca9503e8935884501bbaf20be14eb4c46b89772c97b96e3b2ebf3a36a948bbd919050565b81600e14156200055c57507f133a80e30697cd55d8f7d4b0965b7be24057ba5dc3da898ee2187232446cb108919050565b81600f14156200058d57507f13e6d8fc88839ed76e182c2a779af5b2c0da9dd18c90427a644f7e148a6253b6919050565b8160101415620005be57507f1eb16b057a477f4bc8f572ea6bee39561098f78f15bfb3699dcbb7bd8db61854919050565b8160111415620005ef57507f0da2cb16a1ceaabf1c16b838f7a9e3f2a3a3088d9e0a6debaa748114620696ea919050565b81601214156200062057507f24a3b3d822420b14b5d8cb6c28a574f01e98ea9e940551d2ebd75cee12649f9d919050565b81601314156200065157507f198622acbd783d1b0d9064105b1fc8e4d8889de95c4c519b3f635809fe6afc05919050565b81601414156200068257507f29d7ed391256ccc3ea596c86e933b89ff339d25ea8ddced975ae2fe30b5296d4919050565b8160151415620006b357507f19be59f2f0413ce78c0c3703a3a5451b1d7f39629fa33abd11548a76065b2967919050565b8160161415620006e457507f1ff3f61797e538b70e619310d33f2a063e7eb59104e112e95738da1254dc3453919050565b81601714156200071557507f10c16ae9959cf8358980d9dd9616e48228737310a10e2b6b731c1a548f036c48919050565b81601814156200074657507f0ba433a63174a90ac20992e75e3095496812b652685b5e1a2eae0b1bf4e8fcd1919050565b81601914156200077757507f019ddb9df2bc98d987d0dfeca9d2b643deafab8f7036562e627c3667266a044c919050565b81601a1415620007a857507f2d3c88b23175c5a5565db928414c66d1912b11acf974b2e644caaac04739ce99919050565b81601b1415620007d957507f2eab55f6ae4e66e32c5189eed5c470840863445760f5ed7e7b69b2a62600f354919050565b81601c14156200080957507e2df37a2642621802383cf952bf4dd1f32e05433beeb1fd41031fb7eace979d919050565b81601d14156200083a57507f104aeb41435db66c3e62feccc1d6f5d98d0a0ed75d1374db457cf462e3a1f427919050565b81601e14156200086b57507f1f3c6fd858e9a7d4b0d1f38e256a09d81d5a5e3c963987e2d4b814cfab7c6ebb919050565b81601f14156200089c57507f2c7a07d20dff79d01fecedc1134284a8d08436606c93693b67e333f671bf69cc919050565b60405162461bcd60e51b815260206004820152601360248201527f496e646578206f7574206f6620626f756e6473000000000000000000000000006044820152606401620000aa565b600380546001600160a01b0383811668010000000000000000818102600160401b600160e01b031985161790945560405193909204169182907f8be0079c531659141344cd1fd0a4f28419497f9722a3daafe3b4186f6b6457e090600090a35050565b6001600160a01b03811681146200095e57600080fd5b50565b60008060008060008060c087890312156200097b57600080fd5b8651620009888162000948565b60208801519096506200099b8162000948565b60408801516060890151919650945063ffffffff81168114620009bd57600080fd5b6080880151909350620009d08162000948565b60a0880151909250620009e38162000948565b809150509295509295509295565b634e487b7160e01b600052601160045260246000fd5b600063ffffffff8083168181141562000a245762000a24620009f1565b6001019392505050565b600063ffffffff8381169083168181101562000a4e5762000a4e620009f1565b039392505050565b60805160a051612d8e62000a8a6000396000818161029e015261093b0152600081816106ac0152611df80152612d8e6000f3fe6080604052600436106102025760003560e01c8063a9059cbb1161011d578063e3a0f264116100b0578063ed33639f1161007f578063f2fde38b11610064578063f2fde38b146106fb578063fc0c546a1461071b578063fc7e9c6f1461074857600080fd5b8063ed33639f1461069a578063f178e47c146106ce57600080fd5b8063e3a0f264146105e9578063e5285dcc14610616578063e829558814610646578063ec7329591461066657600080fd5b8063beabacc8116100ec578063beabacc814610556578063c2b40ae414610576578063c59d4847146105a3578063cd87a3b4146105d457600080fd5b8063a9059cbb146104ce578063b0cd3d14146104ee578063b214faa514610519578063ba70f7571461052c57600080fd5b8063839df9451161019557806390eeb02b1161016457806390eeb02b1461041d5780639d188c221461043a5780639fa12d0b1461048b578063a1244c67146104b857600080fd5b8063839df945146103805780638bca6d16146103b05780638da5cb5b146103c65780638ea3099e146103fd57600080fd5b8063414a37ba116101d1578063414a37ba146102e55780634ecf518b146103195780636d9833e31461034b578063715018a61461036b57600080fd5b80631101f8181461020e57806317cc915c1461023757806321a0adb6146102775780632b7ac3f31461028c57600080fd5b3661020957005b600080fd5b34801561021a57600080fd5b50610224600a5481565b6040519081526020015b60405180910390f35b34801561024357600080fd5b50610267610252366004612508565b60076020526000908152604090205460ff1681565b604051901515815260200161022e565b61028a61028536600461254e565b61076d565b005b34801561029857600080fd5b506102c07f000000000000000000000000000000000000000000000000000000000000000081565b60405173ffffffffffffffffffffffffffffffffffffffff909116815260200161022e565b3480156102f157600080fd5b506102247f30644e72e131a029b85045b68181585d2833e84879b9709143e1f593f000000181565b34801561032557600080fd5b506000546103369063ffffffff1681565b60405163ffffffff909116815260200161022e565b34801561035757600080fd5b50610267610366366004612508565b610ae8565b34801561037757600080fd5b5061028a610b63565b34801561038c57600080fd5b5061026761039b366004612508565b60086020526000908152604090205460ff1681565b3480156103bc57600080fd5b5061022460065481565b3480156103d257600080fd5b5060035468010000000000000000900473ffffffffffffffffffffffffffffffffffffffff166102c0565b34801561040957600080fd5b50610224610418366004612604565b610b77565b34801561042957600080fd5b506003546103369063ffffffff1681565b34801561044657600080fd5b5061045a610455366004612668565b610e16565b6040517fffffffff00000000000000000000000000000000000000000000000000000000909116815260200161022e565b34801561049757600080fd5b506104ab6104a6366004612766565b610e40565b60405161022e91906127db565b3480156104c457600080fd5b5061022460095481565b3480156104da57600080fd5b5061028a6104e9366004612821565b610f06565b3480156104fa57600080fd5b5060055473ffffffffffffffffffffffffffffffffffffffff166102c0565b61028a610527366004612508565b610f56565b34801561053857600080fd5b5060035463ffffffff16600090815260026020526040902054610224565b34801561056257600080fd5b5061028a61057136600461284d565b6110af565b34801561058257600080fd5b50610224610591366004612508565b60026020526000908152604090205481565b3480156105af57600080fd5b50600654600954600a546040805193845260208401929092529082015260600161022e565b3480156105e057600080fd5b50610336601e81565b3480156105f557600080fd5b506005546102c09073ffffffffffffffffffffffffffffffffffffffff1681565b34801561062257600080fd5b50610267610631366004612508565b60009081526007602052604090205460ff1690565b34801561065257600080fd5b50610224610661366004612508565b611205565b34801561067257600080fd5b506102247f2fe54c60d3acabf3343a35b6eba15db4821b340f76e741e2249685ed4899af6c81565b3480156106a657600080fd5b506102c07f000000000000000000000000000000000000000000000000000000000000000081565b3480156106da57600080fd5b506102246106e9366004612508565b60016020526000908152604090205481565b34801561070757600080fd5b5061028a61071636600461288e565b611868565b34801561072757600080fd5b50600b546102c09073ffffffffffffffffffffffffffffffffffffffff1681565b34801561075457600080fd5b5060035461033690640100000000900463ffffffff1681565b61077561191c565b6006548211156107e6576040517f08c379a000000000000000000000000000000000000000000000000000000000815260206004820152601a60248201527f4665652065786365656473207472616e736665722076616c756500000000000060448201526064015b60405180910390fd5b60008581526007602052604090205460ff161561085f576040517f08c379a000000000000000000000000000000000000000000000000000000000815260206004820152601f60248201527f546865206e6f746520686173206265656e20616c7265616479207370656e740060448201526064016107dd565b61086886610ae8565b6108ce576040517f08c379a000000000000000000000000000000000000000000000000000000000815260206004820152601c60248201527f43616e6e6f742066696e6420796f7572206d65726b6c6520726f6f740000000060448201526064016107dd565b6040805160c0810182528781526020810187905273ffffffffffffffffffffffffffffffffffffffff8681168284015285811660608301526080820185905260a0820184905291517f695ef6f90000000000000000000000000000000000000000000000000000000081527f00000000000000000000000000000000000000000000000000000000000000009092169163695ef6f991610974918c918c916004016128b2565b6020604051808303816000875af1158015610993573d6000803e3d6000fd5b505050506040513d601f19601f820116820180604052508101906109b7919061292e565b610a1d576040517f08c379a000000000000000000000000000000000000000000000000000000000815260206004820152601660248201527f496e76616c69642077697468647261772070726f6f660000000000000000000060448201526064016107dd565b600085815260076020526040902080547fffffffffffffffffffffffffffffffffffffffffffffffffffffffffffffff00166001179055610a6084848484611990565b6001600a6000828254610a73919061297f565b90915550506040805173ffffffffffffffffffffffffffffffffffffffff868116825260208201889052918101849052908416907fe9e508bad6d4c3227e881ca19068f099da81b5164dd6d62b2eaf1e8bc6c349319060600160405180910390a2610ade6001600455565b5050505050505050565b600081610af757506000919050565b60035463ffffffff16805b63ffffffff8116600090815260026020526040902054841415610b29575060019392505050565b63ffffffff8116610b385750601e5b80610b4281612997565b9150508163ffffffff168163ffffffff161415610b02575060009392505050565b610b6b611ba2565b610b756000611c30565b565b60007f30644e72e131a029b85045b68181585d2833e84879b9709143e1f593f00000018310610c02576040517f08c379a000000000000000000000000000000000000000000000000000000000815260206004820181905260248201527f5f6c6566742073686f756c6420626520696e7369646520746865206669656c6460448201526064016107dd565b7f30644e72e131a029b85045b68181585d2833e84879b9709143e1f593f00000018210610cb1576040517f08c379a000000000000000000000000000000000000000000000000000000000815260206004820152602160248201527f5f72696768742073686f756c6420626520696e7369646520746865206669656c60448201527f640000000000000000000000000000000000000000000000000000000000000060648201526084016107dd565b6040517ff47d33b500000000000000000000000000000000000000000000000000000000815260048101849052600060248201819052849173ffffffffffffffffffffffffffffffffffffffff87169063f47d33b5906044016040805180830381865afa158015610d26573d6000803e3d6000fd5b505050506040513d601f19601f82011682018060405250810190610d4a91906129d5565b90925090507f30644e72e131a029b85045b68181585d2833e84879b9709143e1f593f00000018483086040517ff47d33b5000000000000000000000000000000000000000000000000000000008152600481018290526024810183905290925073ffffffffffffffffffffffffffffffffffffffff87169063f47d33b5906044016040805180830381865afa158015610de7573d6000803e3d6000fd5b505050506040513d601f19601f82011682018060405250810190610e0b91906129d5565b509695505050505050565b7f9d188c22000000000000000000000000000000000000000000000000000000005b949350505050565b60608167ffffffffffffffff811115610e5b57610e5b612639565b604051908082528060200260200182016040528015610e84578160200160208202803683370190505b50905060005b82811015610eff57610ec3848483818110610ea757610ea7612a28565b9050602002013560009081526007602052604090205460ff1690565b15610eed576001828281518110610edc57610edc612a28565b911515602092830291909101909101525b80610ef781612a57565b915050610e8a565b5092915050565b610f0e611ba2565b60405173ffffffffffffffffffffffffffffffffffffffff83169082156108fc029083906000818181858888f19350505050158015610f51573d6000803e3d6000fd5b505050565b610f5e61191c565b60008181526008602052604090205460ff1615610ffd576040517f08c379a000000000000000000000000000000000000000000000000000000000815260206004820152602160248201527f54686520636f6d6d69746d656e7420686173206265656e207375626d6974746560448201527f640000000000000000000000000000000000000000000000000000000000000060648201526084016107dd565b600061100882611cb5565b600083815260086020526040902080547fffffffffffffffffffffffffffffffffffffffffffffffffffffffffffffff001660011790559050611049611eff565b60016009600082825461105c919061297f565b90915550506040805163ffffffff8316815242602082015283917fa945e51eec50ab98c161376f0db4cf2aeba3ec92755fe2fcd388bdbbb80ff196910160405180910390a2506110ac6001600455565b50565b6110b7611ba2565b600b5473ffffffffffffffffffffffffffffffffffffffff83811691161415611162576040517f08c379a000000000000000000000000000000000000000000000000000000000815260206004820152603560248201527f746f6b656e20616464726573732073686f756c64206e6f74206265207468652060448201527f73616d65206173206465706f73697420746f6b656e000000000000000000000060648201526084016107dd565b6040517fa9059cbb00000000000000000000000000000000000000000000000000000000815273ffffffffffffffffffffffffffffffffffffffff84811660048301526024820183905283919082169063a9059cbb906044016020604051808303816000875af11580156111da573d6000803e3d6000fd5b505050506040513d601f19601f820116820180604052508101906111fe919061292e565b5050505050565b60008161123357507f2fe54c60d3acabf3343a35b6eba15db4821b340f76e741e2249685ed4899af6c919050565b816001141561126357507f256a6135777eee2fd26f54b8b7037a25439d5235caee224154186d2b8a52e31d919050565b816002141561129357507f1151949895e82ab19924de92c40a3d6f7bcb60d92b00504b8199613683f0c200919050565b81600314156112c357507f20121ee811489ff8d61f09fb89e313f14959a0f28bb428a20dba6b0b068b3bdb919050565b81600414156112f357507f0a89ca6ffa14cc462cfedb842c30ed221a50a3d6bf022a6a57dc82ab24c157c9919050565b816005141561132357507f24ca05c2b5cd42e890d6be94c68d0689f4f21c9cec9c0f13fe41d566dfb54959919050565b816006141561135357507f1ccb97c932565a92c60156bdba2d08f3bf1377464e025cee765679e604a7315c919050565b816007141561138357507f19156fbd7d1a8bf5cba8909367de1b624534ebab4f0f79e003bccdd1b182bdb4919050565b81600814156113b357507f261af8c1f0912e465744641409f622d466c3920ac6e5ff37e36604cb11dfff80919050565b81600914156113e257507e58459724ff6ca5a1652fcbc3e82b93895cf08e975b19beab3f54c217d1c007919050565b81600a141561141257507f1f04ef20dee48d39984d8eabe768a70eafa6310ad20849d4573c3c40c2ad1e30919050565b81600b141561144257507f1bea3dec5dab51567ce7e200a30f7ba6d4276aeaa53e2686f962a46c66d511e5919050565b81600c141561147257507f0ee0f941e2da4b9e31c3ca97a40d8fa9ce68d97c084177071b3cb46cd3372f0f919050565b81600d14156114a257507f1ca9503e8935884501bbaf20be14eb4c46b89772c97b96e3b2ebf3a36a948bbd919050565b81600e14156114d257507f133a80e30697cd55d8f7d4b0965b7be24057ba5dc3da898ee2187232446cb108919050565b81600f141561150257507f13e6d8fc88839ed76e182c2a779af5b2c0da9dd18c90427a644f7e148a6253b6919050565b816010141561153257507f1eb16b057a477f4bc8f572ea6bee39561098f78f15bfb3699dcbb7bd8db61854919050565b816011141561156257507f0da2cb16a1ceaabf1c16b838f7a9e3f2a3a3088d9e0a6debaa748114620696ea919050565b816012141561159257507f24a3b3d822420b14b5d8cb6c28a574f01e98ea9e940551d2ebd75cee12649f9d919050565b81601314156115c257507f198622acbd783d1b0d9064105b1fc8e4d8889de95c4c519b3f635809fe6afc05919050565b81601414156115f257507f29d7ed391256ccc3ea596c86e933b89ff339d25ea8ddced975ae2fe30b5296d4919050565b816015141561162257507f19be59f2f0413ce78c0c3703a3a5451b1d7f39629fa33abd11548a76065b2967919050565b816016141561165257507f1ff3f61797e538b70e619310d33f2a063e7eb59104e112e95738da1254dc3453919050565b816017141561168257507f10c16ae9959cf8358980d9dd9616e48228737310a10e2b6b731c1a548f036c48919050565b81601814156116b257507f0ba433a63174a90ac20992e75e3095496812b652685b5e1a2eae0b1bf4e8fcd1919050565b81601914156116e257507f019ddb9df2bc98d987d0dfeca9d2b643deafab8f7036562e627c3667266a044c919050565b81601a141561171257507f2d3c88b23175c5a5565db928414c66d1912b11acf974b2e644caaac04739ce99919050565b81601b141561174257507f2eab55f6ae4e66e32c5189eed5c470840863445760f5ed7e7b69b2a62600f354919050565b81601c141561177157507e2df37a2642621802383cf952bf4dd1f32e05433beeb1fd41031fb7eace979d919050565b81601d14156117a157507f104aeb41435db66c3e62feccc1d6f5d98d0a0ed75d1374db457cf462e3a1f427919050565b81601e14156117d157507f1f3c6fd858e9a7d4b0d1f38e256a09d81d5a5e3c963987e2d4b814cfab7c6ebb919050565b81601f141561180157507f2c7a07d20dff79d01fecedc1134284a8d08436606c93693b67e333f671bf69cc919050565b6040517f08c379a000000000000000000000000000000000000000000000000000000000815260206004820152601360248201527f496e646578206f7574206f6620626f756e64730000000000000000000000000060448201526064016107dd565b919050565b611870611ba2565b73ffffffffffffffffffffffffffffffffffffffff8116611913576040517f08c379a000000000000000000000000000000000000000000000000000000000815260206004820152602660248201527f4f776e61626c653a206e6577206f776e657220697320746865207a65726f206160448201527f646472657373000000000000000000000000000000000000000000000000000060648201526084016107dd565b6110ac81611c30565b60026004541415611989576040517f08c379a000000000000000000000000000000000000000000000000000000000815260206004820152601f60248201527f5265656e7472616e637947756172643a207265656e7472616e742063616c6c0060448201526064016107dd565b6002600455565b803414611a1f576040517f08c379a000000000000000000000000000000000000000000000000000000000815260206004820152603060248201527f496e636f727265637420726566756e6420616d6f756e7420726563656976656460448201527f2062792074686520636f6e74726163740000000000000000000000000000000060648201526084016107dd565b6000611a29611fb9565b611a31612052565b600654611a3e9190612a90565b611a489190612acd565b905060008382600654611a5b9190612ae1565b611a659190612ae1565b600b54909150611a8c9073ffffffffffffffffffffffffffffffffffffffff1687836120c2565b8115611abd57611abd611a9d612196565b600b5473ffffffffffffffffffffffffffffffffffffffff1690846120c2565b8315611ae757600b54611ae79073ffffffffffffffffffffffffffffffffffffffff1686866120c2565b8215611b9a5760008673ffffffffffffffffffffffffffffffffffffffff168460405160006040518083038185875af1925050503d8060008114611b47576040519150601f19603f3d011682016040523d82523d6000602084013e611b4c565b606091505b5050905080611b985760405173ffffffffffffffffffffffffffffffffffffffff87169085156108fc029086906000818181858888f19350505050158015610ade573d6000803e3d6000fd5b505b505050505050565b60035473ffffffffffffffffffffffffffffffffffffffff68010000000000000000909104163314610b75576040517f08c379a000000000000000000000000000000000000000000000000000000000815260206004820181905260248201527f4f776e61626c653a2063616c6c6572206973206e6f7420746865206f776e657260448201526064016107dd565b6003805473ffffffffffffffffffffffffffffffffffffffff838116680100000000000000008181027fffffffff0000000000000000000000000000000000000000ffffffffffffffff85161790945560405193909204169182907f8be0079c531659141344cd1fd0a4f28419497f9722a3daafe3b4186f6b6457e090600090a35050565b60035460008054909163ffffffff640100000000909104811691611cdb91166002612c0b565b63ffffffff168163ffffffff161415611d76576040517f08c379a000000000000000000000000000000000000000000000000000000000815260206004820152603060248201527f4d65726b6c6520747265652069732066756c6c2e204e6f206d6f7265206c656160448201527f7665732063616e2062652061646465640000000000000000000000000000000060648201526084016107dd565b8083600080805b60005463ffffffff9081169082161015611e3f57611d9c600286612c20565b63ffffffff16611dd757839250611db88163ffffffff16611205565b63ffffffff821660009081526001602052604090208590559150611df3565b63ffffffff811660009081526001602052604090205492508391505b611e1e7f00000000000000000000000000000000000000000000000000000000000000008484610b77565b9350611e2b600286612c43565b945080611e3781612c66565b915050611d7d565b50600354600090601e90611e5a9063ffffffff166001612c8a565b611e649190612c20565b600380547fffffffffffffffffffffffffffffffffffffffffffffffffffffffff000000001663ffffffff831690811790915560009081526002602052604090208590559050611eb5866001612c8a565b6003805463ffffffff92909216640100000000027fffffffffffffffffffffffffffffffffffffffffffffffff00000000ffffffff90921691909117905550939695505050505050565b3415611f8d576040517f08c379a000000000000000000000000000000000000000000000000000000000815260206004820152603060248201527f4554482076616c756520697320737570706f73656420746f206265203020666f60448201527f7220455243323020696e7374616e63650000000000000000000000000000000060648201526084016107dd565b600654600b54610b759173ffffffffffffffffffffffffffffffffffffffff909116903390309061222a565b600554604080517f180b0d7e000000000000000000000000000000000000000000000000000000008152905160009273ffffffffffffffffffffffffffffffffffffffff169163180b0d7e9160048083019260209291908290030181865afa158015612029573d6000803e3d6000fd5b505050506040513d601f19601f8201168201806040525081019061204d9190612cb2565b905090565b600554604080517fe86dea4a000000000000000000000000000000000000000000000000000000008152905160009273ffffffffffffffffffffffffffffffffffffffff169163e86dea4a9160048083019260209291908290030181865afa158015612029573d6000803e3d6000fd5b60405173ffffffffffffffffffffffffffffffffffffffff8316602482015260448101829052610f519084907fa9059cbb00000000000000000000000000000000000000000000000000000000906064015b604080517fffffffffffffffffffffffffffffffffffffffffffffffffffffffffffffffe08184030181529190526020810180517bffffffffffffffffffffffffffffffffffffffffffffffffffffffff167fffffffff000000000000000000000000000000000000000000000000000000009093169290921790915261228e565b600554604080517f61d027b3000000000000000000000000000000000000000000000000000000008152905160009273ffffffffffffffffffffffffffffffffffffffff16916361d027b39160048083019260209291908290030181865afa158015612206573d6000803e3d6000fd5b505050506040513d601f19601f8201168201806040525081019061204d9190612ccb565b60405173ffffffffffffffffffffffffffffffffffffffff808516602483015283166044820152606481018290526122889085907f23b872dd0000000000000000000000000000000000000000000000000000000090608401612114565b50505050565b60006122f0826040518060400160405280602081526020017f5361666545524332303a206c6f772d6c6576656c2063616c6c206661696c65648152508573ffffffffffffffffffffffffffffffffffffffff1661239a9092919063ffffffff16565b805190915015610f51578080602001905181019061230e919061292e565b610f51576040517f08c379a000000000000000000000000000000000000000000000000000000000815260206004820152602a60248201527f5361666545524332303a204552433230206f7065726174696f6e20646964206e60448201527f6f7420737563636565640000000000000000000000000000000000000000000060648201526084016107dd565b6060610e388484600085856000808673ffffffffffffffffffffffffffffffffffffffff1685876040516123ce9190612d14565b60006040518083038185875af1925050503d806000811461240b576040519150601f19603f3d011682016040523d82523d6000602084013e612410565b606091505b50915091506124218783838761242c565b979650505050505050565b606083156124bf5782516124b85773ffffffffffffffffffffffffffffffffffffffff85163b6124b8576040517f08c379a000000000000000000000000000000000000000000000000000000000815260206004820152601d60248201527f416464726573733a2063616c6c20746f206e6f6e2d636f6e747261637400000060448201526064016107dd565b5081610e38565b610e3883838151156124d45781518083602001fd5b806040517f08c379a00000000000000000000000000000000000000000000000000000000081526004016107dd9190612d30565b60006020828403121561251a57600080fd5b5035919050565b73ffffffffffffffffffffffffffffffffffffffff811681146110ac57600080fd5b803561186381612521565b60008060008060008060008060e0898b03121561256a57600080fd5b883567ffffffffffffffff8082111561258257600080fd5b818b0191508b601f83011261259657600080fd5b8135818111156125a557600080fd5b8c60208285010111156125b757600080fd5b60209283019a509850508901359550604089013594506125d960608a01612543565b93506125e760808a01612543565b925060a0890135915060c089013590509295985092959890939650565b60008060006060848603121561261957600080fd5b833561262481612521565b95602085013595506040909401359392505050565b7f4e487b7100000000000000000000000000000000000000000000000000000000600052604160045260246000fd5b6000806000806080858703121561267e57600080fd5b843561268981612521565b9350602085013561269981612521565b925060408501359150606085013567ffffffffffffffff808211156126bd57600080fd5b818701915087601f8301126126d157600080fd5b8135818111156126e3576126e3612639565b604051601f82017fffffffffffffffffffffffffffffffffffffffffffffffffffffffffffffffe0908116603f0116810190838211818310171561272957612729612639565b816040528281528a602084870101111561274257600080fd5b82602086016020830137600060208483010152809550505050505092959194509250565b6000806020838503121561277957600080fd5b823567ffffffffffffffff8082111561279157600080fd5b818501915085601f8301126127a557600080fd5b8135818111156127b457600080fd5b8660208260051b85010111156127c957600080fd5b60209290920196919550909350505050565b6020808252825182820181905260009190848201906040850190845b818110156128155783511515835292840192918401916001016127f7565b50909695505050505050565b6000806040838503121561283457600080fd5b823561283f81612521565b946020939093013593505050565b60008060006060848603121561286257600080fd5b833561286d81612521565b9250602084013561287d81612521565b929592945050506040919091013590565b6000602082840312156128a057600080fd5b81356128ab81612521565b9392505050565b60e081528260e082015260006101008486828501376000818685010152807fffffffffffffffffffffffffffffffffffffffffffffffffffffffffffffffe0601f87011684010191505060208083018460005b600681101561292257815183529183019190830190600101612905565b50505050949350505050565b60006020828403121561294057600080fd5b815180151581146128ab57600080fd5b7f4e487b7100000000000000000000000000000000000000000000000000000000600052601160045260246000fd5b6000821982111561299257612992612950565b500190565b600063ffffffff8216806129ad576129ad612950565b7fffffffffffffffffffffffffffffffffffffffffffffffffffffffffffffffff0192915050565b600080604083850312156129e857600080fd5b505080516020909101519092909150565b7f4e487b7100000000000000000000000000000000000000000000000000000000600052601260045260246000fd5b7f4e487b7100000000000000000000000000000000000000000000000000000000600052603260045260246000fd5b60007fffffffffffffffffffffffffffffffffffffffffffffffffffffffffffffffff821415612a8957612a89612950565b5060010190565b6000817fffffffffffffffffffffffffffffffffffffffffffffffffffffffffffffffff0483118215151615612ac857612ac8612950565b500290565b600082612adc57612adc6129f9565b500490565b600082821015612af357612af3612950565b500390565b600181815b80851115612b35578163ffffffff04821115612b1b57612b1b612950565b80851615612b2857918102915b93841c9390800290612afd565b509250929050565b600082612b4c57506001612c05565b81612b5957506000612c05565b8160018114612b6f5760028114612b7957612baa565b6001915050612c05565b60ff841115612b8a57612b8a612950565b6001841b915063ffffffff821115612ba457612ba4612950565b50612c05565b5060208310610133831016604e8410600b8410161715612be1575081810a63ffffffff811115612bdc57612bdc612950565b612c05565b612beb8383612af8565b8063ffffffff04821115612c0157612c01612950565b0290505b92915050565b600063ffffffff610e38818516828516612b3d565b600063ffffffff80841680612c3757612c376129f9565b92169190910692915050565b600063ffffffff80841680612c5a57612c5a6129f9565b92169190910492915050565b600063ffffffff80831681811415612c8057612c80612950565b6001019392505050565b600063ffffffff808316818516808303821115612ca957612ca9612950565b01949350505050565b600060208284031215612cc457600080fd5b5051919050565b600060208284031215612cdd57600080fd5b81516128ab81612521565b60005b83811015612d03578181015183820152602001612ceb565b838111156122885750506000910152565b60008251612d26818460208701612ce8565b9190910192915050565b6020815260008251806020840152612d4f816040850160208701612ce8565b601f017fffffffffffffffffffffffffffffffffffffffffffffffffffffffffffffffe016919091016040019291505056fea164736f6c634300080a000a",
  "linkReferences": {},
  "deployedLinkReferences": {}
}