{
  "_format": "hh-sol-artifact-1",
  "contractName": "UniswapV2Router02",
  "sourceName": "contracts/swap/uniswap-v2/UniswapV2Router02.sol",
  "abi": [
    {
      "inputs": [
        {
          "internalType": "address",
          "name": "_factory",
          "type": "address"
        },
        {
          "internalType": "address",
          "name": "_WETH",
          "type": "address"
        }
      ],
      "stateMutability": "nonpayable",
      "type": "constructor"
    },
    {
      "inputs": [],
      "name": "WETH",
      "outputs": [
        {
          "internalType": "address",
          "name": "",
          "type": "address"
        }
      ],
      "stateMutability": "view",
      "type": "function"
    },
    {
      "inputs": [
        {
          "internalType": "address",
          "name": "tokenA",
          "type": "address"
        },
        {
          "internalType": "address",
          "name": "tokenB",
          "type": "address"
        },
        {
          "internalType": "uint256",
          "name": "amountADesired",
          "type": "uint256"
        },
        {
          "internalType": "uint256",
          "name": "amountBDesired",
          "type": "uint256"
        },
        {
          "internalType": "uint256",
          "name": "amountAMin",
          "type": "uint256"
        },
        {
          "internalType": "uint256",
          "name": "amountBMin",
          "type": "uint256"
        },
        {
          "internalType": "address",
          "name": "to",
          "type": "address"
        },
        {
          "internalType": "uint256",
          "name": "deadline",
          "type": "uint256"
        }
      ],
      "name": "addLiquidity",
      "outputs": [
        {
          "internalType": "uint256",
          "name": "amountA",
          "type": "uint256"
        },
        {
          "internalType": "uint256",
          "name": "amountB",
          "type": "uint256"
        },
        {
          "internalType": "uint256",
          "name": "liquidity",
          "type": "uint256"
        }
      ],
      "stateMutability": "nonpayable",
      "type": "function"
    },
    {
      "inputs": [
        {
          "internalType": "address",
          "name": "token",
          "type": "address"
        },
        {
          "internalType": "uint256",
          "name": "amountTokenDesired",
          "type": "uint256"
        },
        {
          "internalType": "uint256",
          "name": "amountTokenMin",
          "type": "uint256"
        },
        {
          "internalType": "uint256",
          "name": "amountETHMin",
          "type": "uint256"
        },
        {
          "internalType": "address",
          "name": "to",
          "type": "address"
        },
        {
          "internalType": "uint256",
          "name": "deadline",
          "type": "uint256"
        }
      ],
      "name": "addLiquidityETH",
      "outputs": [
        {
          "internalType": "uint256",
          "name": "amountToken",
          "type": "uint256"
        },
        {
          "internalType": "uint256",
          "name": "amountETH",
          "type": "uint256"
        },
        {
          "internalType": "uint256",
          "name": "liquidity",
          "type": "uint256"
        }
      ],
      "stateMutability": "payable",
      "type": "function"
    },
    {
      "inputs": [],
      "name": "factory",
      "outputs": [
        {
          "internalType": "address",
          "name": "",
          "type": "address"
        }
      ],
      "stateMutability": "view",
      "type": "function"
    },
    {
      "inputs": [
        {
          "internalType": "uint256",
          "name": "amountOut",
          "type": "uint256"
        },
        {
          "internalType": "uint256",
          "name": "reserveIn",
          "type": "uint256"
        },
        {
          "internalType": "uint256",
          "name": "reserveOut",
          "type": "uint256"
        }
      ],
      "name": "getAmountIn",
      "outputs": [
        {
          "internalType": "uint256",
          "name": "amountIn",
          "type": "uint256"
        }
      ],
      "stateMutability": "pure",
      "type": "function"
    },
    {
      "inputs": [
        {
          "internalType": "uint256",
          "name": "amountIn",
          "type": "uint256"
        },
        {
          "internalType": "uint256",
          "name": "reserveIn",
          "type": "uint256"
        },
        {
          "internalType": "uint256",
          "name": "reserveOut",
          "type": "uint256"
        }
      ],
      "name": "getAmountOut",
      "outputs": [
        {
          "internalType": "uint256",
          "name": "amountOut",
          "type": "uint256"
        }
      ],
      "stateMutability": "pure",
      "type": "function"
    },
    {
      "inputs": [
        {
          "internalType": "uint256",
          "name": "amountOut",
          "type": "uint256"
        },
        {
          "internalType": "address[]",
          "name": "path",
          "type": "address[]"
        }
      ],
      "name": "getAmountsIn",
      "outputs": [
        {
          "internalType": "uint256[]",
          "name": "amounts",
          "type": "uint256[]"
        }
      ],
      "stateMutability": "view",
      "type": "function"
    },
    {
      "inputs": [
        {
          "internalType": "uint256",
          "name": "amountIn",
          "type": "uint256"
        },
        {
          "internalType": "address[]",
          "name": "path",
          "type": "address[]"
        }
      ],
      "name": "getAmountsOut",
      "outputs": [
        {
          "internalType": "uint256[]",
          "name": "amounts",
          "type": "uint256[]"
        }
      ],
      "stateMutability": "view",
      "type": "function"
    },
    {
      "inputs": [
        {
          "internalType": "uint256",
          "name": "amountA",
          "type": "uint256"
        },
        {
          "internalType": "uint256",
          "name": "reserveA",
          "type": "uint256"
        },
        {
          "internalType": "uint256",
          "name": "reserveB",
          "type": "uint256"
        }
      ],
      "name": "quote",
      "outputs": [
        {
          "internalType": "uint256",
          "name": "amountB",
          "type": "uint256"
        }
      ],
      "stateMutability": "pure",
      "type": "function"
    },
    {
      "inputs": [
        {
          "internalType": "address",
          "name": "tokenA",
          "type": "address"
        },
        {
          "internalType": "address",
          "name": "tokenB",
          "type": "address"
        },
        {
          "internalType": "uint256",
          "name": "liquidity",
          "type": "uint256"
        },
        {
          "internalType": "uint256",
          "name": "amountAMin",
          "type": "uint256"
        },
        {
          "internalType": "uint256",
          "name": "amountBMin",
          "type": "uint256"
        },
        {
          "internalType": "address",
          "name": "to",
          "type": "address"
        },
        {
          "internalType": "uint256",
          "name": "deadline",
          "type": "uint256"
        }
      ],
      "name": "removeLiquidity",
      "outputs": [
        {
          "internalType": "uint256",
          "name": "amountA",
          "type": "uint256"
        },
        {
          "internalType": "uint256",
          "name": "amountB",
          "type": "uint256"
        }
      ],
      "stateMutability": "nonpayable",
      "type": "function"
    },
    {
      "inputs": [
        {
          "internalType": "address",
          "name": "token",
          "type": "address"
        },
        {
          "internalType": "uint256",
          "name": "liquidity",
          "type": "uint256"
        },
        {
          "internalType": "uint256",
          "name": "amountTokenMin",
          "type": "uint256"
        },
        {
          "internalType": "uint256",
          "name": "amountETHMin",
          "type": "uint256"
        },
        {
          "internalType": "address",
          "name": "to",
          "type": "address"
        },
        {
          "internalType": "uint256",
          "name": "deadline",
          "type": "uint256"
        }
      ],
      "name": "removeLiquidityETH",
      "outputs": [
        {
          "internalType": "uint256",
          "name": "amountToken",
          "type": "uint256"
        },
        {
          "internalType": "uint256",
          "name": "amountETH",
          "type": "uint256"
        }
      ],
      "stateMutability": "nonpayable",
      "type": "function"
    },
    {
      "inputs": [
        {
          "internalType": "address",
          "name": "token",
          "type": "address"
        },
        {
          "internalType": "uint256",
          "name": "liquidity",
          "type": "uint256"
        },
        {
          "internalType": "uint256",
          "name": "amountTokenMin",
          "type": "uint256"
        },
        {
          "internalType": "uint256",
          "name": "amountETHMin",
          "type": "uint256"
        },
        {
          "internalType": "address",
          "name": "to",
          "type": "address"
        },
        {
          "internalType": "uint256",
          "name": "deadline",
          "type": "uint256"
        }
      ],
      "name": "removeLiquidityETHSupportingFeeOnTransferTokens",
      "outputs": [
        {
          "internalType": "uint256",
          "name": "amountETH",
          "type": "uint256"
        }
      ],
      "stateMutability": "nonpayable",
      "type": "function"
    },
    {
      "inputs": [
        {
          "internalType": "uint256",
          "name": "amountOut",
          "type": "uint256"
        },
        {
          "internalType": "address[]",
          "name": "path",
          "type": "address[]"
        },
        {
          "internalType": "address",
          "name": "to",
          "type": "address"
        },
        {
          "internalType": "uint256",
          "name": "deadline",
          "type": "uint256"
        }
      ],
      "name": "swapETHForExactTokens",
      "outputs": [
        {
          "internalType": "uint256[]",
          "name": "amounts",
          "type": "uint256[]"
        }
      ],
      "stateMutability": "payable",
      "type": "function"
    },
    {
      "inputs": [
        {
          "internalType": "uint256",
          "name": "amountOutMin",
          "type": "uint256"
        },
        {
          "internalType": "address[]",
          "name": "path",
          "type": "address[]"
        },
        {
          "internalType": "address",
          "name": "to",
          "type": "address"
        },
        {
          "internalType": "uint256",
          "name": "deadline",
          "type": "uint256"
        }
      ],
      "name": "swapExactETHForTokens",
      "outputs": [
        {
          "internalType": "uint256[]",
          "name": "amounts",
          "type": "uint256[]"
        }
      ],
      "stateMutability": "payable",
      "type": "function"
    },
    {
      "inputs": [
        {
          "internalType": "uint256",
          "name": "amountOutMin",
          "type": "uint256"
        },
        {
          "internalType": "address[]",
          "name": "path",
          "type": "address[]"
        },
        {
          "internalType": "address",
          "name": "to",
          "type": "address"
        },
        {
          "internalType": "uint256",
          "name": "deadline",
          "type": "uint256"
        }
      ],
      "name": "swapExactETHForTokensSupportingFeeOnTransferTokens",
      "outputs": [],
      "stateMutability": "payable",
      "type": "function"
    },
    {
      "inputs": [
        {
          "internalType": "uint256",
          "name": "amountIn",
          "type": "uint256"
        },
        {
          "internalType": "uint256",
          "name": "amountOutMin",
          "type": "uint256"
        },
        {
          "internalType": "address[]",
          "name": "path",
          "type": "address[]"
        },
        {
          "internalType": "address",
          "name": "to",
          "type": "address"
        },
        {
          "internalType": "uint256",
          "name": "deadline",
          "type": "uint256"
        }
      ],
      "name": "swapExactTokensForETH",
      "outputs": [
        {
          "internalType": "uint256[]",
          "name": "amounts",
          "type": "uint256[]"
        }
      ],
      "stateMutability": "nonpayable",
      "type": "function"
    },
    {
      "inputs": [
        {
          "internalType": "uint256",
          "name": "amountIn",
          "type": "uint256"
        },
        {
          "internalType": "uint256",
          "name": "amountOutMin",
          "type": "uint256"
        },
        {
          "internalType": "address[]",
          "name": "path",
          "type": "address[]"
        },
        {
          "internalType": "address",
          "name": "to",
          "type": "address"
        },
        {
          "internalType": "uint256",
          "name": "deadline",
          "type": "uint256"
        }
      ],
      "name": "swapExactTokensForETHSupportingFeeOnTransferTokens",
      "outputs": [],
      "stateMutability": "nonpayable",
      "type": "function"
    },
    {
      "inputs": [
        {
          "internalType": "uint256",
          "name": "amountIn",
          "type": "uint256"
        },
        {
          "internalType": "uint256",
          "name": "amountOutMin",
          "type": "uint256"
        },
        {
          "internalType": "address[]",
          "name": "path",
          "type": "address[]"
        },
        {
          "internalType": "address",
          "name": "to",
          "type": "address"
        },
        {
          "internalType": "uint256",
          "name": "deadline",
          "type": "uint256"
        }
      ],
      "name": "swapExactTokensForTokens",
      "outputs": [
        {
          "internalType": "uint256[]",
          "name": "amounts",
          "type": "uint256[]"
        }
      ],
      "stateMutability": "nonpayable",
      "type": "function"
    },
    {
      "inputs": [
        {
          "internalType": "uint256",
          "name": "amountIn",
          "type": "uint256"
        },
        {
          "internalType": "uint256",
          "name": "amountOutMin",
          "type": "uint256"
        },
        {
          "internalType": "address[]",
          "name": "path",
          "type": "address[]"
        },
        {
          "internalType": "address",
          "name": "to",
          "type": "address"
        },
        {
          "internalType": "uint256",
          "name": "deadline",
          "type": "uint256"
        }
      ],
      "name": "swapExactTokensForTokensSupportingFeeOnTransferTokens",
      "outputs": [],
      "stateMutability": "nonpayable",
      "type": "function"
    },
    {
      "inputs": [
        {
          "internalType": "uint256",
          "name": "amountOut",
          "type": "uint256"
        },
        {
          "internalType": "uint256",
          "name": "amountInMax",
          "type": "uint256"
        },
        {
          "internalType": "address[]",
          "name": "path",
          "type": "address[]"
        },
        {
          "internalType": "address",
          "name": "to",
          "type": "address"
        },
        {
          "internalType": "uint256",
          "name": "deadline",
          "type": "uint256"
        }
      ],
      "name": "swapTokensForExactETH",
      "outputs": [
        {
          "internalType": "uint256[]",
          "name": "amounts",
          "type": "uint256[]"
        }
      ],
      "stateMutability": "nonpayable",
      "type": "function"
    },
    {
      "inputs": [
        {
          "internalType": "uint256",
          "name": "amountOut",
          "type": "uint256"
        },
        {
          "internalType": "uint256",
          "name": "amountInMax",
          "type": "uint256"
        },
        {
          "internalType": "address[]",
          "name": "path",
          "type": "address[]"
        },
        {
          "internalType": "address",
          "name": "to",
          "type": "address"
        },
        {
          "internalType": "uint256",
          "name": "deadline",
          "type": "uint256"
        }
      ],
      "name": "swapTokensForExactTokens",
      "outputs": [
        {
          "internalType": "uint256[]",
          "name": "amounts",
          "type": "uint256[]"
        }
      ],
      "stateMutability": "nonpayable",
      "type": "function"
    },
    {
      "stateMutability": "payable",
      "type": "receive"
    }
  ],
  "bytecode": "0x60806040523480156200001157600080fd5b5060405162004bf238038062004bf2833981016040819052620000349162000083565b600080546001600160a01b039384166001600160a01b03199182161790915560018054929093169116179055620000bb565b80516001600160a01b03811681146200007e57600080fd5b919050565b600080604083850312156200009757600080fd5b620000a28362000066565b9150620000b26020840162000066565b90509250929050565b614b2780620000cb6000396000f3fe60806040526004361061016e5760003560e01c80638803dbee116100cb578063baa2abde1161007f578063e8e3370011610059578063e8e337001461043b578063f305d71914610476578063fb3bdb411461048957600080fd5b8063baa2abde146103ce578063c45a0155146103ee578063d06ca61f1461041b57600080fd5b8063ad615dec116100b0578063ad615dec1461037b578063af2979eb1461039b578063b6f9de95146103bb57600080fd5b80638803dbee14610309578063ad5c46481461032957600080fd5b80634a25d94a11610122578063791ac94711610107578063791ac947146102b65780637ff36ab5146102d657806385f8c259146102e957600080fd5b80634a25d94a146102765780635c11d7951461029657600080fd5b806318cbafe51161015357806318cbafe5146102095780631f00ca741461023657806338ed17391461025657600080fd5b806302751cec146101a1578063054d50d4146101db57600080fd5b3661019c5760015473ffffffffffffffffffffffffffffffffffffffff16331461019a5761019a61437f565b005b600080fd5b3480156101ad57600080fd5b506101c16101bc3660046143e3565b61049c565b604080519283526020830191909152015b60405180910390f35b3480156101e757600080fd5b506101fb6101f6366004614441565b6105e2565b6040519081526020016101d2565b34801561021557600080fd5b506102296102243660046144b2565b6105f7565b6040516101d29190614525565b34801561024257600080fd5b50610229610251366004614598565b610a0e565b34801561026257600080fd5b506102296102713660046144b2565b610a3c565b34801561028257600080fd5b506102296102913660046144b2565b610c0d565b3480156102a257600080fd5b5061019a6102b13660046144b2565b610e47565b3480156102c257600080fd5b5061019a6102d13660046144b2565b6111aa565b6102296102e4366004614687565b6114e6565b3480156102f557600080fd5b506101fb610304366004614441565b6118cf565b34801561031557600080fd5b506102296103243660046144b2565b6118dc565b34801561033557600080fd5b506001546103569073ffffffffffffffffffffffffffffffffffffffff1681565b60405173ffffffffffffffffffffffffffffffffffffffff90911681526020016101d2565b34801561038757600080fd5b506101fb610396366004614441565b611a4c565b3480156103a757600080fd5b506101fb6103b63660046143e3565b611a59565b61019a6103c9366004614687565b611c1c565b3480156103da57600080fd5b506101c16103e93660046146ee565b612039565b3480156103fa57600080fd5b506000546103569073ffffffffffffffffffffffffffffffffffffffff1681565b34801561042757600080fd5b50610229610436366004614598565b612389565b34801561044757600080fd5b5061045b610456366004614760565b6123b0565b604080519384526020840192909252908201526060016101d2565b61045b6104843660046143e3565b612518565b610229610497366004614687565b6127db565b600080824281101561050f576040517f08c379a000000000000000000000000000000000000000000000000000000000815260206004820152601860248201527f556e69737761705632526f757465723a2045585049524544000000000000000060448201526064015b60405180910390fd5b600154610538908a9073ffffffffffffffffffffffffffffffffffffffff168a8a8a308a612039565b9093509150610548898685612bfa565b6001546040517f2e1a7d4d0000000000000000000000000000000000000000000000000000000081526004810184905273ffffffffffffffffffffffffffffffffffffffff90911690632e1a7d4d90602401600060405180830381600087803b1580156105b457600080fd5b505af11580156105c8573d6000803e3d6000fd5b505050506105d68583612d90565b50965096945050505050565b60006105ef848484612e9f565b949350505050565b60608142811015610664576040517f08c379a000000000000000000000000000000000000000000000000000000000815260206004820152601860248201527f556e69737761705632526f757465723a204558504952454400000000000000006044820152606401610506565b6001805473ffffffffffffffffffffffffffffffffffffffff16908790879061068d908261480b565b81811061069c5761069c614822565b90506020020160208101906106b19190614851565b73ffffffffffffffffffffffffffffffffffffffff161461072e576040517f08c379a000000000000000000000000000000000000000000000000000000000815260206004820152601d60248201527f556e69737761705632526f757465723a20494e56414c49445f504154480000006044820152606401610506565b60005460408051602080890282810182019093528882526107859373ffffffffffffffffffffffffffffffffffffffff16928c92918b918b9182919085019084908082843760009201919091525061301a92505050565b9150868260018451610797919061480b565b815181106107a7576107a7614822565b6020026020010151101561083d576040517f08c379a000000000000000000000000000000000000000000000000000000000815260206004820152602b60248201527f556e69737761705632526f757465723a20494e53554646494349454e545f4f5560448201527f545055545f414d4f554e540000000000000000000000000000000000000000006064820152608401610506565b6108fc8686600081811061085357610853614822565b90506020020160208101906108689190614851565b6000805433916108dc9173ffffffffffffffffffffffffffffffffffffffff16908b908b908161089a5761089a614822565b90506020020160208101906108af9190614851565b8b8b60018181106108c2576108c2614822565b90506020020160208101906108d79190614851565b6131bf565b856000815181106108ef576108ef614822565b602002602001015161325b565b61093b828787808060200260200160405190810160405280939291908181526020018383602002808284376000920191909152503092506133fa915050565b60018054835173ffffffffffffffffffffffffffffffffffffffff90911691632e1a7d4d91859161096b9161480b565b8151811061097b5761097b614822565b60200260200101516040518263ffffffff1660e01b81526004016109a191815260200190565b600060405180830381600087803b1580156109bb57600080fd5b505af11580156109cf573d6000803e3d6000fd5b50505050610a038483600185516109e6919061480b565b815181106109f6576109f6614822565b6020026020010151612d90565b509695505050505050565b600054606090610a359073ffffffffffffffffffffffffffffffffffffffff16848461361c565b9392505050565b60608142811015610aa9576040517f08c379a000000000000000000000000000000000000000000000000000000000815260206004820152601860248201527f556e69737761705632526f757465723a204558504952454400000000000000006044820152606401610506565b6000546040805160208089028281018201909352888252610b009373ffffffffffffffffffffffffffffffffffffffff16928c92918b918b9182919085019084908082843760009201919091525061301a92505050565b9150868260018451610b12919061480b565b81518110610b2257610b22614822565b60200260200101511015610bb8576040517f08c379a000000000000000000000000000000000000000000000000000000000815260206004820152602b60248201527f556e69737761705632526f757465723a20494e53554646494349454e545f4f5560448201527f545055545f414d4f554e540000000000000000000000000000000000000000006064820152608401610506565b610bce8686600081811061085357610853614822565b610a03828787808060200260200160405190810160405280939291908181526020018383602002808284376000920191909152508992506133fa915050565b60608142811015610c7a576040517f08c379a000000000000000000000000000000000000000000000000000000000815260206004820152601860248201527f556e69737761705632526f757465723a204558504952454400000000000000006044820152606401610506565b6001805473ffffffffffffffffffffffffffffffffffffffff169087908790610ca3908261480b565b818110610cb257610cb2614822565b9050602002016020810190610cc79190614851565b73ffffffffffffffffffffffffffffffffffffffff1614610d44576040517f08c379a000000000000000000000000000000000000000000000000000000000815260206004820152601d60248201527f556e69737761705632526f757465723a20494e56414c49445f504154480000006044820152606401610506565b6000546040805160208089028281018201909352888252610d9b9373ffffffffffffffffffffffffffffffffffffffff16928c92918b918b9182919085019084908082843760009201919091525061361c92505050565b91508682600081518110610db157610db1614822565b6020026020010151111561083d576040517f08c379a000000000000000000000000000000000000000000000000000000000815260206004820152602760248201527f556e69737761705632526f757465723a204558434553534956455f494e50555460448201527f5f414d4f554e54000000000000000000000000000000000000000000000000006064820152608401610506565b8042811015610eb2576040517f08c379a000000000000000000000000000000000000000000000000000000000815260206004820152601860248201527f556e69737761705632526f757465723a204558504952454400000000000000006044820152606401610506565b610f3d85856000818110610ec857610ec8614822565b9050602002016020810190610edd9190614851565b600080543391610f379173ffffffffffffffffffffffffffffffffffffffff16908a908a9081610f0f57610f0f614822565b9050602002016020810190610f249190614851565b8a8a60018181106108c2576108c2614822565b8a61325b565b60008585610f4c60018261480b565b818110610f5b57610f5b614822565b9050602002016020810190610f709190614851565b6040517f70a0823100000000000000000000000000000000000000000000000000000000815273ffffffffffffffffffffffffffffffffffffffff868116600483015291909116906370a0823190602401602060405180830381865afa158015610fde573d6000803e3d6000fd5b505050506040513d601f19601f82011682018060405250810190611002919061486e565b90506110428686808060200260200160405190810160405280939291908181526020018383602002808284376000920191909152508892506137b7915050565b8681878761105160018261480b565b81811061106057611060614822565b90506020020160208101906110759190614851565b6040517f70a0823100000000000000000000000000000000000000000000000000000000815273ffffffffffffffffffffffffffffffffffffffff888116600483015291909116906370a08231906024015b602060405180830381865afa1580156110e4573d6000803e3d6000fd5b505050506040513d601f19601f82011682018060405250810190611108919061486e565b611112919061480b565b10156111a0576040517f08c379a000000000000000000000000000000000000000000000000000000000815260206004820152602b60248201527f556e69737761705632526f757465723a20494e53554646494349454e545f4f5560448201527f545055545f414d4f554e540000000000000000000000000000000000000000006064820152608401610506565b5050505050505050565b8042811015611215576040517f08c379a000000000000000000000000000000000000000000000000000000000815260206004820152601860248201527f556e69737761705632526f757465723a204558504952454400000000000000006044820152606401610506565b6001805473ffffffffffffffffffffffffffffffffffffffff16908690869061123e908261480b565b81811061124d5761124d614822565b90506020020160208101906112629190614851565b73ffffffffffffffffffffffffffffffffffffffff16146112df576040517f08c379a000000000000000000000000000000000000000000000000000000000815260206004820152601d60248201527f556e69737761705632526f757465723a20494e56414c49445f504154480000006044820152606401610506565b6112f585856000818110610ec857610ec8614822565b6113338585808060200260200160405190810160405280939291908181526020018383602002808284376000920191909152503092506137b7915050565b6001546040517f70a0823100000000000000000000000000000000000000000000000000000000815230600482015260009173ffffffffffffffffffffffffffffffffffffffff16906370a0823190602401602060405180830381865afa1580156113a2573d6000803e3d6000fd5b505050506040513d601f19601f820116820180604052508101906113c6919061486e565b905086811015611458576040517f08c379a000000000000000000000000000000000000000000000000000000000815260206004820152602b60248201527f556e69737761705632526f757465723a20494e53554646494349454e545f4f5560448201527f545055545f414d4f554e540000000000000000000000000000000000000000006064820152608401610506565b6001546040517f2e1a7d4d0000000000000000000000000000000000000000000000000000000081526004810183905273ffffffffffffffffffffffffffffffffffffffff90911690632e1a7d4d90602401600060405180830381600087803b1580156114c457600080fd5b505af11580156114d8573d6000803e3d6000fd5b505050506111a08482612d90565b60608142811015611553576040517f08c379a000000000000000000000000000000000000000000000000000000000815260206004820152601860248201527f556e69737761705632526f757465723a204558504952454400000000000000006044820152606401610506565b60015473ffffffffffffffffffffffffffffffffffffffff16868660008161157d5761157d614822565b90506020020160208101906115929190614851565b73ffffffffffffffffffffffffffffffffffffffff161461160f576040517f08c379a000000000000000000000000000000000000000000000000000000000815260206004820152601d60248201527f556e69737761705632526f757465723a20494e56414c49445f504154480000006044820152606401610506565b60005460408051602080890282810182019093528882526116669373ffffffffffffffffffffffffffffffffffffffff16923492918b918b9182919085019084908082843760009201919091525061301a92505050565b9150868260018451611678919061480b565b8151811061168857611688614822565b6020026020010151101561171e576040517f08c379a000000000000000000000000000000000000000000000000000000000815260206004820152602b60248201527f556e69737761705632526f757465723a20494e53554646494349454e545f4f5560448201527f545055545f414d4f554e540000000000000000000000000000000000000000006064820152608401610506565b600154825173ffffffffffffffffffffffffffffffffffffffff9091169063d0e30db090849060009061175357611753614822565b60200260200101516040518263ffffffff1660e01b81526004016000604051808303818588803b15801561178657600080fd5b505af115801561179a573d6000803e3d6000fd5b50506001546000805473ffffffffffffffffffffffffffffffffffffffff928316955063a9059cbb94506117de9350909116908a908a9081610f0f57610f0f614822565b846000815181106117f1576117f1614822565b60200260200101516040518363ffffffff1660e01b815260040161183792919073ffffffffffffffffffffffffffffffffffffffff929092168252602082015260400190565b6020604051808303816000875af1158015611856573d6000803e3d6000fd5b505050506040513d601f19601f8201168201806040525081019061187a9190614887565b6118865761188661437f565b6118c5828787808060200260200160405190810160405280939291908181526020018383602002808284376000920191909152508992506133fa915050565b5095945050505050565b60006105ef848484613b1f565b60608142811015611949576040517f08c379a000000000000000000000000000000000000000000000000000000000815260206004820152601860248201527f556e69737761705632526f757465723a204558504952454400000000000000006044820152606401610506565b60005460408051602080890282810182019093528882526119a09373ffffffffffffffffffffffffffffffffffffffff16928c92918b918b9182919085019084908082843760009201919091525061361c92505050565b915086826000815181106119b6576119b6614822565b60200260200101511115610bb8576040517f08c379a000000000000000000000000000000000000000000000000000000000815260206004820152602760248201527f556e69737761705632526f757465723a204558434553534956455f494e50555460448201527f5f414d4f554e54000000000000000000000000000000000000000000000000006064820152608401610506565b60006105ef848484613c9f565b60008142811015611ac6576040517f08c379a000000000000000000000000000000000000000000000000000000000815260206004820152601860248201527f556e69737761705632526f757465723a204558504952454400000000000000006044820152606401610506565b600154611aef90899073ffffffffffffffffffffffffffffffffffffffff168989893089612039565b6040517f70a08231000000000000000000000000000000000000000000000000000000008152306004820152909350611b8e91508990869073ffffffffffffffffffffffffffffffffffffffff8316906370a0823190602401602060405180830381865afa158015611b65573d6000803e3d6000fd5b505050506040513d601f19601f82011682018060405250810190611b89919061486e565b612bfa565b6001546040517f2e1a7d4d0000000000000000000000000000000000000000000000000000000081526004810184905273ffffffffffffffffffffffffffffffffffffffff90911690632e1a7d4d90602401600060405180830381600087803b158015611bfa57600080fd5b505af1158015611c0e573d6000803e3d6000fd5b50505050610a038483612d90565b8042811015611c87576040517f08c379a000000000000000000000000000000000000000000000000000000000815260206004820152601860248201527f556e69737761705632526f757465723a204558504952454400000000000000006044820152606401610506565b60015473ffffffffffffffffffffffffffffffffffffffff168585600081611cb157611cb1614822565b9050602002016020810190611cc69190614851565b73ffffffffffffffffffffffffffffffffffffffff1614611d43576040517f08c379a000000000000000000000000000000000000000000000000000000000815260206004820152601d60248201527f556e69737761705632526f757465723a20494e56414c49445f504154480000006044820152606401610506565b600154604080517fd0e30db00000000000000000000000000000000000000000000000000000000081529051349273ffffffffffffffffffffffffffffffffffffffff169163d0e30db091849160048082019260009290919082900301818588803b158015611db157600080fd5b505af1158015611dc5573d6000803e3d6000fd5b50506001546000805473ffffffffffffffffffffffffffffffffffffffff928316955063a9059cbb9450611e099350909116908a908a9081610f0f57610f0f614822565b6040517fffffffff0000000000000000000000000000000000000000000000000000000060e084901b16815273ffffffffffffffffffffffffffffffffffffffff9091166004820152602481018490526044016020604051808303816000875af1158015611e7b573d6000803e3d6000fd5b505050506040513d601f19601f82011682018060405250810190611e9f9190614887565b611eab57611eab61437f565b60008686611eba60018261480b565b818110611ec957611ec9614822565b9050602002016020810190611ede9190614851565b6040517f70a0823100000000000000000000000000000000000000000000000000000000815273ffffffffffffffffffffffffffffffffffffffff878116600483015291909116906370a0823190602401602060405180830381865afa158015611f4c573d6000803e3d6000fd5b505050506040513d601f19601f82011682018060405250810190611f70919061486e565b9050611fb08787808060200260200160405190810160405280939291908181526020018383602002808284376000920191909152508992506137b7915050565b87818888611fbf60018261480b565b818110611fce57611fce614822565b9050602002016020810190611fe39190614851565b6040517f70a0823100000000000000000000000000000000000000000000000000000000815273ffffffffffffffffffffffffffffffffffffffff898116600483015291909116906370a08231906024016110c7565b60008082428110156120a7576040517f08c379a000000000000000000000000000000000000000000000000000000000815260206004820152601860248201527f556e69737761705632526f757465723a204558504952454400000000000000006044820152606401610506565b600080546120cc9073ffffffffffffffffffffffffffffffffffffffff168c8c6131bf565b6040517f23b872dd00000000000000000000000000000000000000000000000000000000815233600482015273ffffffffffffffffffffffffffffffffffffffff821660248201819052604482018c90529192506323b872dd906064016020604051808303816000875af1158015612148573d6000803e3d6000fd5b505050506040513d601f19601f8201168201806040525081019061216c9190614887565b506040517f89afcb4400000000000000000000000000000000000000000000000000000000815273ffffffffffffffffffffffffffffffffffffffff878116600483015260009182918416906389afcb449060240160408051808303816000875af11580156121df573d6000803e3d6000fd5b505050506040513d601f19601f8201168201806040525081019061220391906148a9565b9150915060006122138e8e613de1565b5090508073ffffffffffffffffffffffffffffffffffffffff168e73ffffffffffffffffffffffffffffffffffffffff1614612250578183612253565b82825b90975095508a8710156122e8576040517f08c379a000000000000000000000000000000000000000000000000000000000815260206004820152602660248201527f556e69737761705632526f757465723a20494e53554646494349454e545f415f60448201527f414d4f554e5400000000000000000000000000000000000000000000000000006064820152608401610506565b89861015612378576040517f08c379a000000000000000000000000000000000000000000000000000000000815260206004820152602660248201527f556e69737761705632526f757465723a20494e53554646494349454e545f425f60448201527f414d4f554e5400000000000000000000000000000000000000000000000000006064820152608401610506565b505050505097509795505050505050565b600054606090610a359073ffffffffffffffffffffffffffffffffffffffff16848461301a565b60008060008342811015612420576040517f08c379a000000000000000000000000000000000000000000000000000000000815260206004820152601860248201527f556e69737761705632526f757465723a204558504952454400000000000000006044820152606401610506565b61242e8c8c8c8c8c8c613f66565b600080549296509094509061245a9073ffffffffffffffffffffffffffffffffffffffff168e8e6131bf565b90506124688d33838861325b565b6124748c33838761325b565b6040517f6a62784200000000000000000000000000000000000000000000000000000000815273ffffffffffffffffffffffffffffffffffffffff8881166004830152821690636a627842906024016020604051808303816000875af11580156124e2573d6000803e3d6000fd5b505050506040513d601f19601f82011682018060405250810190612506919061486e565b92505050985098509895505050505050565b60008060008342811015612588576040517f08c379a000000000000000000000000000000000000000000000000000000000815260206004820152601860248201527f556e69737761705632526f757465723a204558504952454400000000000000006044820152606401610506565b6001546125b0908b9073ffffffffffffffffffffffffffffffffffffffff168b348c8c613f66565b60008054600154939750919550916125e39173ffffffffffffffffffffffffffffffffffffffff908116918e91166131bf565b90506125f18b33838861325b565b600160009054906101000a900473ffffffffffffffffffffffffffffffffffffffff1673ffffffffffffffffffffffffffffffffffffffff1663d0e30db0856040518263ffffffff1660e01b81526004016000604051808303818588803b15801561265b57600080fd5b505af115801561266f573d6000803e3d6000fd5b50506001546040517fa9059cbb00000000000000000000000000000000000000000000000000000000815273ffffffffffffffffffffffffffffffffffffffff8681166004830152602482018a9052909116935063a9059cbb925060440190506020604051808303816000875af11580156126ee573d6000803e3d6000fd5b505050506040513d601f19601f820116820180604052508101906127129190614887565b61271e5761271e61437f565b6040517f6a62784200000000000000000000000000000000000000000000000000000000815273ffffffffffffffffffffffffffffffffffffffff8881166004830152821690636a627842906024016020604051808303816000875af115801561278c573d6000803e3d6000fd5b505050506040513d601f19601f820116820180604052508101906127b0919061486e565b9250833411156127cd576127cd336127c8863461480b565b612d90565b505096509650969350505050565b60608142811015612848576040517f08c379a000000000000000000000000000000000000000000000000000000000815260206004820152601860248201527f556e69737761705632526f757465723a204558504952454400000000000000006044820152606401610506565b60015473ffffffffffffffffffffffffffffffffffffffff16868660008161287257612872614822565b90506020020160208101906128879190614851565b73ffffffffffffffffffffffffffffffffffffffff1614612904576040517f08c379a000000000000000000000000000000000000000000000000000000000815260206004820152601d60248201527f556e69737761705632526f757465723a20494e56414c49445f504154480000006044820152606401610506565b600054604080516020808902828101820190935288825261295b9373ffffffffffffffffffffffffffffffffffffffff16928b92918b918b9182919085019084908082843760009201919091525061361c92505050565b9150348260008151811061297157612971614822565b60200260200101511115612a07576040517f08c379a000000000000000000000000000000000000000000000000000000000815260206004820152602760248201527f556e69737761705632526f757465723a204558434553534956455f494e50555460448201527f5f414d4f554e54000000000000000000000000000000000000000000000000006064820152608401610506565b600154825173ffffffffffffffffffffffffffffffffffffffff9091169063d0e30db0908490600090612a3c57612a3c614822565b60200260200101516040518263ffffffff1660e01b81526004016000604051808303818588803b158015612a6f57600080fd5b505af1158015612a83573d6000803e3d6000fd5b50506001546000805473ffffffffffffffffffffffffffffffffffffffff928316955063a9059cbb9450612ac79350909116908a908a9081610f0f57610f0f614822565b84600081518110612ada57612ada614822565b60200260200101516040518363ffffffff1660e01b8152600401612b2092919073ffffffffffffffffffffffffffffffffffffffff929092168252602082015260400190565b6020604051808303816000875af1158015612b3f573d6000803e3d6000fd5b505050506040513d601f19601f82011682018060405250810190612b639190614887565b612b6f57612b6f61437f565b612bae828787808060200260200160405190810160405280939291908181526020018383602002808284376000920191909152508992506133fa915050565b81600081518110612bc157612bc1614822565b60200260200101513411156118c5576118c53383600081518110612be757612be7614822565b6020026020010151346127c8919061480b565b6040805173ffffffffffffffffffffffffffffffffffffffff8481166024830152604480830185905283518084039091018152606490920183526020820180517bffffffffffffffffffffffffffffffffffffffffffffffffffffffff167fa9059cbb000000000000000000000000000000000000000000000000000000001790529151600092839290871691612c9191906148f9565b6000604051808303816000865af19150503d8060008114612cce576040519150601f19603f3d011682016040523d82523d6000602084013e612cd3565b606091505b5091509150818015612cfd575080511580612cfd575080806020019051810190612cfd9190614887565b612d89576040517f08c379a000000000000000000000000000000000000000000000000000000000815260206004820152602d60248201527f5472616e7366657248656c7065723a3a736166655472616e736665723a20747260448201527f616e73666572206661696c6564000000000000000000000000000000000000006064820152608401610506565b5050505050565b6040805160008082526020820190925273ffffffffffffffffffffffffffffffffffffffff8416908390604051612dc791906148f9565b60006040518083038185875af1925050503d8060008114612e04576040519150601f19603f3d011682016040523d82523d6000602084013e612e09565b606091505b5050905080612e9a576040517f08c379a000000000000000000000000000000000000000000000000000000000815260206004820152603460248201527f5472616e7366657248656c7065723a3a736166655472616e736665724554483a60448201527f20455448207472616e73666572206661696c65640000000000000000000000006064820152608401610506565b505050565b6000808411612f30576040517f08c379a000000000000000000000000000000000000000000000000000000000815260206004820152602b60248201527f556e697377617056324c6962726172793a20494e53554646494349454e545f4960448201527f4e5055545f414d4f554e540000000000000000000000000000000000000000006064820152608401610506565b600083118015612f405750600082115b612fcc576040517f08c379a000000000000000000000000000000000000000000000000000000000815260206004820152602860248201527f556e697377617056324c6962726172793a20494e53554646494349454e545f4c60448201527f49515549444954590000000000000000000000000000000000000000000000006064820152608401610506565b6000612fda856103e5614915565b90506000612fe88483614915565b9050600082612ff9876103e8614915565b6130039190614952565b905061300f818361496a565b979650505050505050565b6060600282511015613088576040517f08c379a000000000000000000000000000000000000000000000000000000000815260206004820152601e60248201527f556e697377617056324c6962726172793a20494e56414c49445f5041544800006044820152606401610506565b815167ffffffffffffffff8111156130a2576130a2614569565b6040519080825280602002602001820160405280156130cb578160200160208202803683370190505b50905082816000815181106130e2576130e2614822565b60200260200101818152505060005b600183516130ff919061480b565b8110156131b7576000806131528786858151811061311f5761311f614822565b6020026020010151878660016131359190614952565b8151811061314557613145614822565b6020026020010151614280565b9150915061317a84848151811061316b5761316b614822565b60200260200101518383612e9f565b84613186856001614952565b8151811061319657613196614822565b602002602001018181525050505080806131af906149a5565b9150506130f1565b509392505050565b6040517fe6a4390500000000000000000000000000000000000000000000000000000000815273ffffffffffffffffffffffffffffffffffffffff838116600483015282811660248301526000919085169063e6a4390590604401602060405180830381865afa158015613237573d6000803e3d6000fd5b505050506040513d601f19601f820116820180604052508101906105ef91906149de565b6040805173ffffffffffffffffffffffffffffffffffffffff85811660248301528481166044830152606480830185905283518084039091018152608490920183526020820180517bffffffffffffffffffffffffffffffffffffffffffffffffffffffff167f23b872dd0000000000000000000000000000000000000000000000000000000017905291516000928392908816916132fa91906148f9565b6000604051808303816000865af19150503d8060008114613337576040519150601f19603f3d011682016040523d82523d6000602084013e61333c565b606091505b50915091508180156133665750805115806133665750808060200190518101906133669190614887565b6133f2576040517f08c379a000000000000000000000000000000000000000000000000000000000815260206004820152603160248201527f5472616e7366657248656c7065723a3a7472616e7366657246726f6d3a20747260448201527f616e7366657246726f6d206661696c65640000000000000000000000000000006064820152608401610506565b505050505050565b60005b6001835161340b919061480b565b8110156136165760008084838151811061342757613427614822565b60200260200101518584600161343d9190614952565b8151811061344d5761344d614822565b60200260200101519150915060006134658383613de1565b509050600087613476866001614952565b8151811061348657613486614822565b602002602001015190506000808373ffffffffffffffffffffffffffffffffffffffff168673ffffffffffffffffffffffffffffffffffffffff16146134ce578260006134d2565b6000835b91509150600060028a516134e6919061480b565b88106134f25788613539565b6000546135399073ffffffffffffffffffffffffffffffffffffffff16878c61351c8c6002614952565b8151811061352c5761352c614822565b60200260200101516131bf565b6000549091506135609073ffffffffffffffffffffffffffffffffffffffff1688886131bf565b73ffffffffffffffffffffffffffffffffffffffff1663022c0d9f84848460006040519080825280601f01601f1916602001820160405280156135aa576020820181803683370190505b506040518563ffffffff1660e01b81526004016135ca94939291906149fb565b600060405180830381600087803b1580156135e457600080fd5b505af11580156135f8573d6000803e3d6000fd5b5050505050505050505050808061360e906149a5565b9150506133fd565b50505050565b606060028251101561368a576040517f08c379a000000000000000000000000000000000000000000000000000000000815260206004820152601e60248201527f556e697377617056324c6962726172793a20494e56414c49445f5041544800006044820152606401610506565b815167ffffffffffffffff8111156136a4576136a4614569565b6040519080825280602002602001820160405280156136cd578160200160208202803683370190505b5090508281600183516136e0919061480b565b815181106136f0576136f0614822565b60200260200101818152505060006001835161370c919061480b565b90505b80156131b757600080613752878661372860018761480b565b8151811061373857613738614822565b602002602001015187868151811061314557613145614822565b9150915061377a84848151811061376b5761376b614822565b60200260200101518383613b1f565b8461378660018661480b565b8151811061379657613796614822565b602002602001018181525050505080806137af90614a77565b91505061370f565b60005b600183516137c8919061480b565b811015612e9a576000808483815181106137e4576137e4614822565b6020026020010151858460016137fa9190614952565b8151811061380a5761380a614822565b60200260200101519150915060006138228383613de1565b50600080549192509061384c9073ffffffffffffffffffffffffffffffffffffffff1685856131bf565b90506000806000808473ffffffffffffffffffffffffffffffffffffffff16630902f1ac6040518163ffffffff1660e01b8152600401606060405180830381865afa15801561389f573d6000803e3d6000fd5b505050506040513d601f19601f820116820180604052508101906138c39190614aca565b506dffffffffffffffffffffffffffff1691506dffffffffffffffffffffffffffff1691506000808773ffffffffffffffffffffffffffffffffffffffff168a73ffffffffffffffffffffffffffffffffffffffff1614613925578284613928565b83835b6040517f70a0823100000000000000000000000000000000000000000000000000000000815273ffffffffffffffffffffffffffffffffffffffff8a8116600483015292945090925083918c16906370a0823190602401602060405180830381865afa15801561399c573d6000803e3d6000fd5b505050506040513d601f19601f820116820180604052508101906139c0919061486e565b6139ca919061480b565b95506139d7868383612e9f565b9450505050506000808573ffffffffffffffffffffffffffffffffffffffff168873ffffffffffffffffffffffffffffffffffffffff1614613a1b57826000613a1f565b6000835b91509150600060028c51613a33919061480b565b8a10613a3f578a613a69565b600054613a699073ffffffffffffffffffffffffffffffffffffffff16898e61351c8e6002614952565b604080516000815260208101918290527f022c0d9f0000000000000000000000000000000000000000000000000000000090915290915073ffffffffffffffffffffffffffffffffffffffff87169063022c0d9f90613ad190869086908690602481016149fb565b600060405180830381600087803b158015613aeb57600080fd5b505af1158015613aff573d6000803e3d6000fd5b505050505050505050505050508080613b17906149a5565b9150506137ba565b6000808411613bb0576040517f08c379a000000000000000000000000000000000000000000000000000000000815260206004820152602c60248201527f556e697377617056324c6962726172793a20494e53554646494349454e545f4f60448201527f55545055545f414d4f554e5400000000000000000000000000000000000000006064820152608401610506565b600083118015613bc05750600082115b613c4c576040517f08c379a000000000000000000000000000000000000000000000000000000000815260206004820152602860248201527f556e697377617056324c6962726172793a20494e53554646494349454e545f4c60448201527f49515549444954590000000000000000000000000000000000000000000000006064820152608401610506565b6000613c588585614915565b613c64906103e8614915565b90506000613c72868561480b565b613c7e906103e5614915565b9050613c8a818361496a565b613c95906001614952565b9695505050505050565b6000808411613d30576040517f08c379a000000000000000000000000000000000000000000000000000000000815260206004820152602560248201527f556e697377617056324c6962726172793a20494e53554646494349454e545f4160448201527f4d4f554e540000000000000000000000000000000000000000000000000000006064820152608401610506565b600083118015613d405750600082115b613dcc576040517f08c379a000000000000000000000000000000000000000000000000000000000815260206004820152602860248201527f556e697377617056324c6962726172793a20494e53554646494349454e545f4c60448201527f49515549444954590000000000000000000000000000000000000000000000006064820152608401610506565b82613dd78386614915565b6105ef919061496a565b6000808273ffffffffffffffffffffffffffffffffffffffff168473ffffffffffffffffffffffffffffffffffffffff161415613ea0576040517f08c379a000000000000000000000000000000000000000000000000000000000815260206004820152602560248201527f556e697377617056324c6962726172793a204944454e544943414c5f4144445260448201527f45535345530000000000000000000000000000000000000000000000000000006064820152608401610506565b8273ffffffffffffffffffffffffffffffffffffffff168473ffffffffffffffffffffffffffffffffffffffff1610613eda578284613edd565b83835b909250905073ffffffffffffffffffffffffffffffffffffffff8216613f5f576040517f08c379a000000000000000000000000000000000000000000000000000000000815260206004820152601e60248201527f556e697377617056324c6962726172793a205a45524f5f4144445245535300006044820152606401610506565b9250929050565b600080546040517fe6a4390500000000000000000000000000000000000000000000000000000000815273ffffffffffffffffffffffffffffffffffffffff898116600483015288811660248301528392839291169063e6a4390590604401602060405180830381865afa158015613fe2573d6000803e3d6000fd5b505050506040513d601f19601f8201168201806040525081019061400691906149de565b73ffffffffffffffffffffffffffffffffffffffff1614156140c2576000546040517fc9c6539600000000000000000000000000000000000000000000000000000000815273ffffffffffffffffffffffffffffffffffffffff8a8116600483015289811660248301529091169063c9c65396906044016020604051808303816000875af115801561409c573d6000803e3d6000fd5b505050506040513d601f19601f820116820180604052508101906140c091906149de565b505b6000805481906140e99073ffffffffffffffffffffffffffffffffffffffff168b8b614280565b915091508160001480156140fb575080155b1561410b57879350869250614273565b6000614118898484613c9f565b90508781116141bc57858110156141b1576040517f08c379a000000000000000000000000000000000000000000000000000000000815260206004820152602660248201527f556e69737761705632526f757465723a20494e53554646494349454e545f425f60448201527f414d4f554e5400000000000000000000000000000000000000000000000000006064820152608401610506565b889450925082614271565b60006141c9898486613c9f565b9050898111156141db576141db61437f565b8781101561426b576040517f08c379a000000000000000000000000000000000000000000000000000000000815260206004820152602660248201527f556e69737761705632526f757465723a20494e53554646494349454e545f415f60448201527f414d4f554e5400000000000000000000000000000000000000000000000000006064820152608401610506565b94508793505b505b5050965096945050505050565b600080600061428f8585613de1565b5090506000806142a08888886131bf565b73ffffffffffffffffffffffffffffffffffffffff16630902f1ac6040518163ffffffff1660e01b8152600401606060405180830381865afa1580156142ea573d6000803e3d6000fd5b505050506040513d601f19601f8201168201806040525081019061430e9190614aca565b506dffffffffffffffffffffffffffff1691506dffffffffffffffffffffffffffff1691508273ffffffffffffffffffffffffffffffffffffffff168773ffffffffffffffffffffffffffffffffffffffff161461436d578082614370565b81815b90999098509650505050505050565b7f4e487b7100000000000000000000000000000000000000000000000000000000600052600160045260246000fd5b73ffffffffffffffffffffffffffffffffffffffff811681146143d057600080fd5b50565b80356143de816143ae565b919050565b60008060008060008060c087890312156143fc57600080fd5b8635614407816143ae565b9550602087013594506040870135935060608701359250608087013561442c816143ae565b8092505060a087013590509295509295509295565b60008060006060848603121561445657600080fd5b505081359360208301359350604090920135919050565b60008083601f84011261447f57600080fd5b50813567ffffffffffffffff81111561449757600080fd5b6020830191508360208260051b8501011115613f5f57600080fd5b60008060008060008060a087890312156144cb57600080fd5b8635955060208701359450604087013567ffffffffffffffff8111156144f057600080fd5b6144fc89828a0161446d565b9095509350506060870135614510816143ae565b80925050608087013590509295509295509295565b6020808252825182820181905260009190848201906040850190845b8181101561455d57835183529284019291840191600101614541565b50909695505050505050565b7f4e487b7100000000000000000000000000000000000000000000000000000000600052604160045260246000fd5b600080604083850312156145ab57600080fd5b8235915060208084013567ffffffffffffffff808211156145cb57600080fd5b818601915086601f8301126145df57600080fd5b8135818111156145f1576145f1614569565b8060051b6040517fffffffffffffffffffffffffffffffffffffffffffffffffffffffffffffffe0603f8301168101818110858211171561463457614634614569565b60405291825284820192508381018501918983111561465257600080fd5b938501935b8285101561467757614668856143d3565b84529385019392850192614657565b8096505050505050509250929050565b60008060008060006080868803121561469f57600080fd5b85359450602086013567ffffffffffffffff8111156146bd57600080fd5b6146c98882890161446d565b90955093505060408601356146dd816143ae565b949793965091946060013592915050565b600080600080600080600060e0888a03121561470957600080fd5b8735614714816143ae565b96506020880135614724816143ae565b955060408801359450606088013593506080880135925060a0880135614749816143ae565b8092505060c0880135905092959891949750929550565b600080600080600080600080610100898b03121561477d57600080fd5b8835614788816143ae565b97506020890135614798816143ae565b965060408901359550606089013594506080890135935060a0890135925060c08901356147c4816143ae565b8092505060e089013590509295985092959890939650565b7f4e487b7100000000000000000000000000000000000000000000000000000000600052601160045260246000fd5b60008282101561481d5761481d6147dc565b500390565b7f4e487b7100000000000000000000000000000000000000000000000000000000600052603260045260246000fd5b60006020828403121561486357600080fd5b8135610a35816143ae565b60006020828403121561488057600080fd5b5051919050565b60006020828403121561489957600080fd5b81518015158114610a3557600080fd5b600080604083850312156148bc57600080fd5b505080516020909101519092909150565b60005b838110156148e85781810151838201526020016148d0565b838111156136165750506000910152565b6000825161490b8184602087016148cd565b9190910192915050565b6000817fffffffffffffffffffffffffffffffffffffffffffffffffffffffffffffffff048311821515161561494d5761494d6147dc565b500290565b60008219821115614965576149656147dc565b500190565b6000826149a0577f4e487b7100000000000000000000000000000000000000000000000000000000600052601260045260246000fd5b500490565b60007fffffffffffffffffffffffffffffffffffffffffffffffffffffffffffffffff8214156149d7576149d76147dc565b5060010190565b6000602082840312156149f057600080fd5b8151610a35816143ae565b84815283602082015273ffffffffffffffffffffffffffffffffffffffff831660408201526080606082015260008251806080840152614a428160a08501602087016148cd565b601f017fffffffffffffffffffffffffffffffffffffffffffffffffffffffffffffffe0169190910160a00195945050505050565b600081614a8657614a866147dc565b507fffffffffffffffffffffffffffffffffffffffffffffffffffffffffffffffff0190565b80516dffffffffffffffffffffffffffff811681146143de57600080fd5b600080600060608486031215614adf57600080fd5b614ae884614aac565b9250614af660208501614aac565b9150604084015163ffffffff81168114614b0f57600080fd5b80915050925092509256fea164736f6c634300080a000a",
  "linkReferences": {},
  "deployedLinkReferences": {}
}