{
  "_format": "hh-sol-artifact-1",
  "contractName": "MiningTreasury",
  "sourceName": "contracts/swap/MiningTreasury.sol",
  "abi": [
    {
      "anonymous": false,
      "inputs": [
        {
          "indexed": false,
          "internalType": "uint256",
          "name": "clsRewardRatio",
          "type": "uint256"
        }
      ],
      "name": "LogSetTonicRewardRatio",
      "type": "event"
    },
    {
      "anonymous": false,
      "inputs": [
        {
          "indexed": true,
          "internalType": "address",
          "name": "previousOwner",
          "type": "address"
        },
        {
          "indexed": true,
          "internalType": "address",
          "name": "newOwner",
          "type": "address"
        }
      ],
      "name": "OwnershipTransferred",
      "type": "event"
    },
    {
      "inputs": [],
      "name": "masterChef",
      "outputs": [
        {
          "internalType": "contract IMasterChef",
          "name": "",
          "type": "address"
        }
      ],
      "stateMutability": "view",
      "type": "function"
    },
    {
      "inputs": [],
      "name": "owner",
      "outputs": [
        {
          "internalType": "address",
          "name": "",
          "type": "address"
        }
      ],
      "stateMutability": "view",
      "type": "function"
    },
    {
      "inputs": [],
      "name": "ratioSetter",
      "outputs": [
        {
          "internalType": "address",
          "name": "",
          "type": "address"
        }
      ],
      "stateMutability": "view",
      "type": "function"
    },
    {
      "inputs": [],
      "name": "renounceOwnership",
      "outputs": [],
      "stateMutability": "nonpayable",
      "type": "function"
    },
    {
      "inputs": [
        {
          "internalType": "uint256",
          "name": "clsRewardRatio",
          "type": "uint256"
        },
        {
          "internalType": "bool",
          "name": "withUpdate",
          "type": "bool"
        }
      ],
      "name": "setClsRewardRatio",
      "outputs": [],
      "stateMutability": "nonpayable",
      "type": "function"
    },
    {
      "inputs": [
        {
          "internalType": "contract IMasterChef",
          "name": "masterChef_",
          "type": "address"
        }
      ],
      "name": "setMasterChef",
      "outputs": [],
      "stateMutability": "nonpayable",
      "type": "function"
    },
    {
      "inputs": [
        {
          "internalType": "address",
          "name": "ratioSetter_",
          "type": "address"
        }
      ],
      "name": "setRatioSetter",
      "outputs": [],
      "stateMutability": "nonpayable",
      "type": "function"
    },
    {
      "inputs": [
        {
          "internalType": "contract IERC20",
          "name": "tonic_",
          "type": "address"
        }
      ],
      "name": "setTonic",
      "outputs": [],
      "stateMutability": "nonpayable",
      "type": "function"
    },
    {
      "inputs": [
        {
          "internalType": "contract ITonicDistributor",
          "name": "tonicDistributor_",
          "type": "address"
        }
      ],
      "name": "setTonicDistributor",
      "outputs": [],
      "stateMutability": "nonpayable",
      "type": "function"
    },
    {
      "inputs": [],
      "name": "tonic",
      "outputs": [
        {
          "internalType": "contract IERC20",
          "name": "",
          "type": "address"
        }
      ],
      "stateMutability": "view",
      "type": "function"
    },
    {
      "inputs": [],
      "name": "tonicDistributor",
      "outputs": [
        {
          "internalType": "contract ITonicDistributor",
          "name": "",
          "type": "address"
        }
      ],
      "stateMutability": "view",
      "type": "function"
    },
    {
      "inputs": [
        {
          "internalType": "address",
          "name": "to",
          "type": "address"
        },
        {
          "internalType": "uint256",
          "name": "amount",
          "type": "uint256"
        }
      ],
      "name": "transfer",
      "outputs": [],
      "stateMutability": "nonpayable",
      "type": "function"
    },
    {
      "inputs": [
        {
          "internalType": "address",
          "name": "newOwner",
          "type": "address"
        }
      ],
      "name": "transferOwnership",
      "outputs": [],
      "stateMutability": "nonpayable",
      "type": "function"
    }
  ],
  "bytecode": "0x608060405234801561001057600080fd5b5061001a3361001f565b61006f565b600080546001600160a01b038381166001600160a01b0319831681178455604051919092169283917f8be0079c531659141344cd1fd0a4f28419497f9722a3daafe3b4186f6b6457e09190a35050565b610fba8061007e6000396000f3fe608060405234801561001057600080fd5b50600436106100df5760003560e01c80637f9c570b1161008c578063a2d9f4dc11610066578063a2d9f4dc146101ee578063a9059cbb14610201578063b723669414610214578063f2fde38b1461022757600080fd5b80637f9c570b146101905780638da5cb5b146101b05780639db6480a146101ce57600080fd5b8063575a86b2116100bd578063575a86b214610155578063715018a6146101755780637634262b1461017d57600080fd5b80632fa4ea9c146100e45780633d072559146100f9578063546b0f231461010c575b600080fd5b6100f76100f2366004610e27565b61023a565b005b6100f7610107366004610e27565b610306565b60015461012c9073ffffffffffffffffffffffffffffffffffffffff1681565b60405173ffffffffffffffffffffffffffffffffffffffff909116815260200160405180910390f35b60035461012c9073ffffffffffffffffffffffffffffffffffffffff1681565b6100f7610355565b6100f761018b366004610e27565b610369565b60025461012c9073ffffffffffffffffffffffffffffffffffffffff1681565b60005473ffffffffffffffffffffffffffffffffffffffff1661012c565b60045461012c9073ffffffffffffffffffffffffffffffffffffffff1681565b6100f76101fc366004610e27565b61046f565b6100f761020f366004610e4b565b6104be565b6100f7610222366004610e85565b6105af565b6100f7610235366004610e27565b6108ae565b60015473ffffffffffffffffffffffffffffffffffffffff16156102bf576040517f08c379a000000000000000000000000000000000000000000000000000000000815260206004820152601460248201527f746f6e696320697320616c72656164792073657400000000000000000000000060448201526064015b60405180910390fd5b600180547fffffffffffffffffffffffff00000000000000000000000000000000000000001673ffffffffffffffffffffffffffffffffffffffff92909216919091179055565b61030e610965565b600280547fffffffffffffffffffffffff00000000000000000000000000000000000000001673ffffffffffffffffffffffffffffffffffffffff92909216919091179055565b61035d610965565b61036760006109e6565b565b3361038960005473ffffffffffffffffffffffffffffffffffffffff1690565b73ffffffffffffffffffffffffffffffffffffffff1614806103c2575060045473ffffffffffffffffffffffffffffffffffffffff1633145b610428576040517f08c379a000000000000000000000000000000000000000000000000000000000815260206004820152601160248201527f726174696f5365747465723a207775743f00000000000000000000000000000060448201526064016102b6565b600480547fffffffffffffffffffffffff00000000000000000000000000000000000000001673ffffffffffffffffffffffffffffffffffffffff92909216919091179055565b610477610965565b600380547fffffffffffffffffffffffff00000000000000000000000000000000000000001673ffffffffffffffffffffffffffffffffffffffff92909216919091179055565b60025473ffffffffffffffffffffffffffffffffffffffff163314806104fb575060035473ffffffffffffffffffffffffffffffffffffffff1633145b610587576040517f08c379a000000000000000000000000000000000000000000000000000000000815260206004820152603760248201527f4f776e61626c653a2063616c6c6572206973206e6f7420746865206d6173746560448201527f72436865667c7c746f6e69634469737472696275746f7200000000000000000060648201526084016102b6565b6001546105ab9073ffffffffffffffffffffffffffffffffffffffff168383610a5b565b5050565b336105cf60005473ffffffffffffffffffffffffffffffffffffffff1690565b73ffffffffffffffffffffffffffffffffffffffff161480610608575060045473ffffffffffffffffffffffffffffffffffffffff1633145b610694576040517f08c379a000000000000000000000000000000000000000000000000000000000815260206004820152602d60248201527f4f776e61626c653a2063616c6c6572206973206e6f7420746865206f776e657260448201527f7c7c726174696f5365747465720000000000000000000000000000000000000060648201526084016102b6565b64e8d4a5100082111561072b57604080517f08c379a00000000000000000000000000000000000000000000000000000000081526020600482015260248101919091527f746f6e6963526577617264526174696f2073686f756c64206265206c6f77657260448201527f207468616e20544f4e49435f5245574152445f524154494f5f44495649534f5260648201526084016102b6565b600061073c8364e8d4a51000610eb5565b6003546040517f570bcb2100000000000000000000000000000000000000000000000000000000815260048101839052841515602482015291925073ffffffffffffffffffffffffffffffffffffffff169063570bcb2190604401600060405180830381600087803b1580156107b157600080fd5b505af11580156107c5573d6000803e3d6000fd5b505060025473ffffffffffffffffffffffffffffffffffffffff161591506108769050576002546040517fb723669400000000000000000000000000000000000000000000000000000000815260048101859052831515602482015273ffffffffffffffffffffffffffffffffffffffff9091169063b723669490604401600060405180830381600087803b15801561085d57600080fd5b505af1158015610871573d6000803e3d6000fd5b505050505b6040518381527f74fa0e17d8dfe29db688d916a6f14f176ba8bf79e4613d7cb9eb9360e0ee6c9f9060200160405180910390a1505050565b6108b6610965565b73ffffffffffffffffffffffffffffffffffffffff8116610959576040517f08c379a000000000000000000000000000000000000000000000000000000000815260206004820152602660248201527f4f776e61626c653a206e6577206f776e657220697320746865207a65726f206160448201527f646472657373000000000000000000000000000000000000000000000000000060648201526084016102b6565b610962816109e6565b50565b60005473ffffffffffffffffffffffffffffffffffffffff163314610367576040517f08c379a000000000000000000000000000000000000000000000000000000000815260206004820181905260248201527f4f776e61626c653a2063616c6c6572206973206e6f7420746865206f776e657260448201526064016102b6565b6000805473ffffffffffffffffffffffffffffffffffffffff8381167fffffffffffffffffffffffff0000000000000000000000000000000000000000831681178455604051919092169283917f8be0079c531659141344cd1fd0a4f28419497f9722a3daafe3b4186f6b6457e09190a35050565b6040805173ffffffffffffffffffffffffffffffffffffffff8416602482015260448082018490528251808303909101815260649091019091526020810180517bffffffffffffffffffffffffffffffffffffffffffffffffffffffff167fa9059cbb00000000000000000000000000000000000000000000000000000000179052610ae8908490610aed565b505050565b6000610b4f826040518060400160405280602081526020017f5361666545524332303a206c6f772d6c6576656c2063616c6c206661696c65648152508573ffffffffffffffffffffffffffffffffffffffff16610bf99092919063ffffffff16565b805190915015610ae85780806020019051810190610b6d9190610ef3565b610ae8576040517f08c379a000000000000000000000000000000000000000000000000000000000815260206004820152602a60248201527f5361666545524332303a204552433230206f7065726174696f6e20646964206e60448201527f6f7420737563636565640000000000000000000000000000000000000000000060648201526084016102b6565b6060610c088484600085610c10565b949350505050565b606082471015610ca2576040517f08c379a000000000000000000000000000000000000000000000000000000000815260206004820152602660248201527f416464726573733a20696e73756666696369656e742062616c616e636520666f60448201527f722063616c6c000000000000000000000000000000000000000000000000000060648201526084016102b6565b6000808673ffffffffffffffffffffffffffffffffffffffff168587604051610ccb9190610f40565b60006040518083038185875af1925050503d8060008114610d08576040519150601f19603f3d011682016040523d82523d6000602084013e610d0d565b606091505b5091509150610d1e87838387610d29565b979650505050505050565b60608315610dbc578251610db55773ffffffffffffffffffffffffffffffffffffffff85163b610db5576040517f08c379a000000000000000000000000000000000000000000000000000000000815260206004820152601d60248201527f416464726573733a2063616c6c20746f206e6f6e2d636f6e747261637400000060448201526064016102b6565b5081610c08565b610c088383815115610dd15781518083602001fd5b806040517f08c379a00000000000000000000000000000000000000000000000000000000081526004016102b69190610f5c565b73ffffffffffffffffffffffffffffffffffffffff8116811461096257600080fd5b600060208284031215610e3957600080fd5b8135610e4481610e05565b9392505050565b60008060408385031215610e5e57600080fd5b8235610e6981610e05565b946020939093013593505050565b801515811461096257600080fd5b60008060408385031215610e9857600080fd5b823591506020830135610eaa81610e77565b809150509250929050565b600082821015610eee577f4e487b7100000000000000000000000000000000000000000000000000000000600052601160045260246000fd5b500390565b600060208284031215610f0557600080fd5b8151610e4481610e77565b60005b83811015610f2b578181015183820152602001610f13565b83811115610f3a576000848401525b50505050565b60008251610f52818460208701610f10565b9190910192915050565b6020815260008251806020840152610f7b816040850160208701610f10565b601f017fffffffffffffffffffffffffffffffffffffffffffffffffffffffffffffffe016919091016040019291505056fea164736f6c634300080a000a",
  "linkReferences": {},
  "deployedLinkReferences": {}
}