{
  "_format": "hh-sol-artifact-1",
  "contractName": "Verifier",
  "sourceName": "contracts/classic/libraries/Verifier.sol",
  "abi": [
    {
      "inputs": [
        {
          "internalType": "bytes",
          "name": "proof",
          "type": "bytes"
        },
        {
          "internalType": "uint256[6]",
          "name": "input",
          "type": "uint256[6]"
        }
      ],
      "name": "verifyProof",
      "outputs": [
        {
          "internalType": "bool",
          "name": "",
          "type": "bool"
        }
      ],
      "stateMutability": "view",
      "type": "function"
    }
  ],
  "bytecode": "0x608060405234801561001057600080fd5b50611281806100206000396000f3fe608060405234801561001057600080fd5b506004361061002b5760003560e01c8063695ef6f914610030575b600080fd5b61004361003e366004610fd2565b610057565b604051901515815260200160405180910390f35b6000808380602001905181019061006e9190611097565b905060005b60088160ff16101561015e577f30644e72e131a029b85045b68181585d97816a916871ca8d3c208c16d87cfd47828260ff16600881106100b5576100b5611116565b60200201511061014c576040517f08c379a000000000000000000000000000000000000000000000000000000000815260206004820152602260248201527f76657269666965722d70726f6f662d656c656d656e742d6774652d7072696d6560448201527f2d7100000000000000000000000000000000000000000000000000000000000060648201526084015b60405180910390fd5b8061015681611174565b915050610073565b50610167610d73565b6040805180820182528351815260208085015181830152908352815160808082018452858401518285019081526060808801519084015282528351808501855290860151815260a08601518184015281830152838201528151808301835260c0850151815260e0850151918101919091529082015260006101e6610378565b905060006040518060400160405280600081526020016000815250905061022881836080015160006007811061021e5761021e611116565b6020020151610843565b905060005b6006811015610338577f30644e72e131a029b85045b68181585d2833e84879b9709143e1f593f000000187826006811061026957610269611116565b6020020151106102d5576040517f08c379a000000000000000000000000000000000000000000000000000000000815260206004820152601f60248201527f76657269666965722d6774652d736e61726b2d7363616c61722d6669656c64006044820152606401610143565b6103248261031f85608001518460016102ee9190611194565b600781106102fe576102fe611116565b60200201518a856006811061031557610315611116565b602002015161090f565b610843565b915080610330816111ac565b91505061022d565b5061036d61034984600001516109c1565b84602001518460000151856020015185876040015189604001518960600151610a7b565b979650505050505050565b610380610dc4565b6040805180820182527f2dbfc3ec62a3eee5a3b4b464bcf1f8527bbca12adea0f1f12033cd4f61b0e09181527f19e55bd0b72c126da18665039556776642ff82e2f347f24fcea2475f4db087df6020808301919091529083528151608080820184527f1ae724ab134e5a7c6bd8a116fa5505b259522c0f164a5e8126e3ec7d34465f6e8285019081527e9f1bcdc853f8e3531756bb625b0d1dc014f4ab57c3f79f4f4e2e7ef7e0ead6606080850191909152908352845180860186527f23a8ca5760457e726365b92fd0ceb486665797cd68c35dcffd8e4ae8066691e981527f13ec7182c9fd68331a10f8be0fe885d730de5c7f89aa7d0b7bafaa009bbc9e3e818601528385015285840192909252835180820185527f198e9393920d483a7260bfb731fb5d25f1aa493335a9e71297e485b7aef312c28186019081527f1800deef121f1e76426a00665e5c4479674322d4f75edadd46debd5cd992f6ed828501528152845180860186527f090689d0585ff075ec9e99ad690c3395bc4b313370b38ef355acdadcd122975b81527f12c85ea5db8c6deb4aab71808dcb408fe3d1e7690c43d37b4ce6cc0166fa7daa818601528185015285850152835180820185527f2f0c63d0c53b3dfbca27b6b43ae7fbf55a38d78a21470996485b03128accc2088186019081527e556502356e37ed150db2e36531b0f275fd6835c0fc1945922e270b48c48a86828501528152845180860186527f02644c27b5dbd793592a70b735e22c798a5e309fa17a992a7dc2a050e01b298f81527f194776b6a53439d7336f389d2a8f6651e40885f5ca2538b0dc9cb534fb23f7fa818601528185015282860152835180850185527f23df1bc9165e9c1c9b2bc036d8ebdd10e7aeae7e5e8019fde68aec7c818bb23e81527f0b6c92080d37c5fb2ddf30892a33665e5478432ef3f71ac8768ecbbe62c7789281850152818601805191909152845180860186527f1c7b2adf45e046caea000956b2ecb2d8617e710d2a7bb201a95ea276f92307b481527f2b15f07536f45948cf4abe6596637d902ffabb18c8c2f5c151544c294ce4a672818601528151850152845180860186527f1cecfe92882a8c835a47bf01bfa655cf628cbba7f81cf4042179fd13edcd6a3981527f0154bfbb2cb786ca247d4b69183d1751f267bbc7656be8d0f0e7a5a47e2c1101818601528151860152845180860186527f1584616a7423efcc72f69ea84fa0b2bc01433677297f4e8351bebfc15bcd0cda81527f0623755b1488526daa9fecf0e11b110dd6df12c461579d792e1db65af523c8be81860152815190930192909252835180850185527f12fbb5bfca9d61357ba2d641604cf4852e21ef54faa180fe539c18994dc1da5a81527f2f09dd9972a1af5f7bcfccf3d7ab600c9d898ea6d6933150ba0ae228ece17e5f81850152825190910152825180840184527f0adb513796fdf2103022c64151ce05f7c7a6d9200e8d819fa59e654fc4bfe83c81527f2d64f72ef4eddf9ca032058ed2bf691758387e913a77cf99d6a3cfb37c8ba7ee81840152815160a0015282518084019093527f21e7c9bffda74bfd2c4393b6803d775545de6fa89145f4a23476241d9881b66183527f0bbe41e52237ac13eb7b01f3cb999b7394d08734e71b1c3ada62713e17eb560c918301919091525160c0015290565b604080518082019091526000808252602082015261085f610e15565b8351815260208085015181830152835160408301528301516060808301919091526000908360c08460066107d05a03fa905080801561089d5761089f565bfe5b5080610907576040517f08c379a000000000000000000000000000000000000000000000000000000000815260206004820152601260248201527f70616972696e672d6164642d6661696c656400000000000000000000000000006044820152606401610143565b505092915050565b604080518082019091526000808252602082015261092b610e33565b835181526020808501519082015260408101839052600060608360808460076107d05a03fa905080801561089d575080610907576040517f08c379a000000000000000000000000000000000000000000000000000000000815260206004820152601260248201527f70616972696e672d6d756c2d6661696c656400000000000000000000000000006044820152606401610143565b604080518082019091526000808252602082015281511580156109e657506020820151155b15610a04575050604080518082019091526000808252602082015290565b6040518060400160405280836000015181526020017f30644e72e131a029b85045b68181585d97816a916871ca8d3c208c16d87cfd478460200151610a4991906111e5565b610a73907f30644e72e131a029b85045b68181585d97816a916871ca8d3c208c16d87cfd47611220565b905292915050565b60408051608080820183528a825260208083018a90528284018890526060808401879052845192830185528b83528282018a9052828501889052820185905283516018808252610320820190955260009491859190839082016103008036833701905050905060005b6004811015610ccf576000610afa826006611237565b9050858260048110610b0e57610b0e611116565b60200201515183610b20836000611194565b81518110610b3057610b30611116565b602002602001018181525050858260048110610b4e57610b4e611116565b60200201516020015183826001610b659190611194565b81518110610b7557610b75611116565b602002602001018181525050848260048110610b9357610b93611116565b6020020151515183610ba6836002611194565b81518110610bb657610bb6611116565b602002602001018181525050848260048110610bd457610bd4611116565b6020020151516001602002015183610bed836003611194565b81518110610bfd57610bfd611116565b602002602001018181525050848260048110610c1b57610c1b611116565b602002015160200151600060028110610c3657610c36611116565b602002015183610c47836004611194565b81518110610c5757610c57611116565b602002602001018181525050848260048110610c7557610c75611116565b602002015160200151600160028110610c9057610c90611116565b602002015183610ca1836005611194565b81518110610cb157610cb1611116565b60209081029190910101525080610cc7816111ac565b915050610ae4565b50610cd8610e51565b6000602082602086026020860160086107d05a03fa905080801561089d575080610d5e576040517f08c379a000000000000000000000000000000000000000000000000000000000815260206004820152601560248201527f70616972696e672d6f70636f64652d6661696c656400000000000000000000006044820152606401610143565b505115159d9c50505050505050505050505050565b6040805160a081019091526000606082018181526080830191909152815260208101610d9d610e6f565b8152602001610dbf604051806040016040528060008152602001600081525090565b905290565b6040805160e08101909152600060a0820181815260c0830191909152815260208101610dee610e6f565b8152602001610dfb610e6f565b8152602001610e08610e6f565b8152602001610dbf610e8f565b60405180608001604052806004906020820280368337509192915050565b60405180606001604052806003906020820280368337509192915050565b60405180602001604052806001906020820280368337509192915050565b6040518060400160405280610e82610ec8565b8152602001610dbf610ec8565b6040518060e001604052806007905b6040805180820190915260008082526020820152815260200190600190039081610e9e5790505090565b60405180604001604052806002906020820280368337509192915050565b7f4e487b7100000000000000000000000000000000000000000000000000000000600052604160045260246000fd5b604051601f82017fffffffffffffffffffffffffffffffffffffffffffffffffffffffffffffffe016810167ffffffffffffffff81118282101715610f5c57610f5c610ee6565b604052919050565b600082601f830112610f7557600080fd5b60405160c0810181811067ffffffffffffffff82111715610f9857610f98610ee6565b6040528060c0840185811115610fad57600080fd5b845b81811015610fc7578035835260209283019201610faf565b509195945050505050565b60008060e08385031215610fe557600080fd5b823567ffffffffffffffff80821115610ffd57600080fd5b818501915085601f83011261101157600080fd5b813560208282111561102557611025610ee6565b611055817fffffffffffffffffffffffffffffffffffffffffffffffffffffffffffffffe0601f85011601610f15565b9250818352878183860101111561106b57600080fd5b8181850182850137600081838501015282955061108a88828901610f64565b9450505050509250929050565b60006101008083850312156110ab57600080fd5b83601f8401126110ba57600080fd5b60405181810181811067ffffffffffffffff821117156110dc576110dc610ee6565b6040529083019080858311156110f157600080fd5b845b8381101561110b5780518252602091820191016110f3565b509095945050505050565b7f4e487b7100000000000000000000000000000000000000000000000000000000600052603260045260246000fd5b7f4e487b7100000000000000000000000000000000000000000000000000000000600052601160045260246000fd5b600060ff821660ff81141561118b5761118b611145565b60010192915050565b600082198211156111a7576111a7611145565b500190565b60007fffffffffffffffffffffffffffffffffffffffffffffffffffffffffffffffff8214156111de576111de611145565b5060010190565b60008261121b577f4e487b7100000000000000000000000000000000000000000000000000000000600052601260045260246000fd5b500690565b60008282101561123257611232611145565b500390565b6000817fffffffffffffffffffffffffffffffffffffffffffffffffffffffffffffffff048311821515161561126f5761126f611145565b50029056fea164736f6c634300080a000a",
  "linkReferences": {},
  "deployedLinkReferences": {}
}