{
  "_format": "hh-sol-artifact-1",
  "contractName": "ETHTonic",
  "sourceName": "contracts/classic/ETHTonic.sol",
  "abi": [
    {
      "inputs": [
        {
          "internalType": "contract IVerifier",
          "name": "_verifier",
          "type": "address"
        },
        {
          "internalType": "contract IHasher",
          "name": "_hasher",
          "type": "address"
        },
        {
          "internalType": "uint256",
          "name": "_denomination",
          "type": "uint256"
        },
        {
          "internalType": "uint32",
          "name": "_merkleTreeHeight",
          "type": "uint32"
        },
        {
          "internalType": "address payable",
          "name": "_feePolicyManagerAddress",
          "type": "address"
        }
      ],
      "stateMutability": "nonpayable",
      "type": "constructor"
    },
    {
      "anonymous": false,
      "inputs": [
        {
          "indexed": true,
          "internalType": "bytes32",
          "name": "commitment",
          "type": "bytes32"
        },
        {
          "indexed": false,
          "internalType": "uint32",
          "name": "leafIndex",
          "type": "uint32"
        },
        {
          "indexed": false,
          "internalType": "uint256",
          "name": "timestamp",
          "type": "uint256"
        }
      ],
      "name": "Deposit",
      "type": "event"
    },
    {
      "anonymous": false,
      "inputs": [
        {
          "indexed": true,
          "internalType": "address",
          "name": "previousOwner",
          "type": "address"
        },
        {
          "indexed": true,
          "internalType": "address",
          "name": "newOwner",
          "type": "address"
        }
      ],
      "name": "OwnershipTransferred",
      "type": "event"
    },
    {
      "anonymous": false,
      "inputs": [
        {
          "indexed": false,
          "internalType": "address",
          "name": "to",
          "type": "address"
        },
        {
          "indexed": false,
          "internalType": "bytes32",
          "name": "nullifierHash",
          "type": "bytes32"
        },
        {
          "indexed": true,
          "internalType": "address",
          "name": "relayer",
          "type": "address"
        },
        {
          "indexed": false,
          "internalType": "uint256",
          "name": "fee",
          "type": "uint256"
        }
      ],
      "name": "Withdrawal",
      "type": "event"
    },
    {
      "inputs": [],
      "name": "FIELD_SIZE",
      "outputs": [
        {
          "internalType": "uint256",
          "name": "",
          "type": "uint256"
        }
      ],
      "stateMutability": "view",
      "type": "function"
    },
    {
      "inputs": [],
      "name": "ROOT_HISTORY_SIZE",
      "outputs": [
        {
          "internalType": "uint32",
          "name": "",
          "type": "uint32"
        }
      ],
      "stateMutability": "view",
      "type": "function"
    },
    {
      "inputs": [],
      "name": "ZERO_VALUE",
      "outputs": [
        {
          "internalType": "uint256",
          "name": "",
          "type": "uint256"
        }
      ],
      "stateMutability": "view",
      "type": "function"
    },
    {
      "inputs": [
        {
          "internalType": "bytes32",
          "name": "",
          "type": "bytes32"
        }
      ],
      "name": "commitments",
      "outputs": [
        {
          "internalType": "bool",
          "name": "",
          "type": "bool"
        }
      ],
      "stateMutability": "view",
      "type": "function"
    },
    {
      "inputs": [],
      "name": "currentRootIndex",
      "outputs": [
        {
          "internalType": "uint32",
          "name": "",
          "type": "uint32"
        }
      ],
      "stateMutability": "view",
      "type": "function"
    },
    {
      "inputs": [],
      "name": "denomination",
      "outputs": [
        {
          "internalType": "uint256",
          "name": "",
          "type": "uint256"
        }
      ],
      "stateMutability": "view",
      "type": "function"
    },
    {
      "inputs": [
        {
          "internalType": "bytes32",
          "name": "_commitment",
          "type": "bytes32"
        }
      ],
      "name": "deposit",
      "outputs": [],
      "stateMutability": "payable",
      "type": "function"
    },
    {
      "inputs": [],
      "name": "feePolicyManager",
      "outputs": [
        {
          "internalType": "contract TonicFeePolicyManager",
          "name": "",
          "type": "address"
        }
      ],
      "stateMutability": "view",
      "type": "function"
    },
    {
      "inputs": [
        {
          "internalType": "uint256",
          "name": "",
          "type": "uint256"
        }
      ],
      "name": "filledSubtrees",
      "outputs": [
        {
          "internalType": "bytes32",
          "name": "",
          "type": "bytes32"
        }
      ],
      "stateMutability": "view",
      "type": "function"
    },
    {
      "inputs": [],
      "name": "getFeePolicyManagerAddress",
      "outputs": [
        {
          "internalType": "address",
          "name": "",
          "type": "address"
        }
      ],
      "stateMutability": "view",
      "type": "function"
    },
    {
      "inputs": [],
      "name": "getLastRoot",
      "outputs": [
        {
          "internalType": "bytes32",
          "name": "",
          "type": "bytes32"
        }
      ],
      "stateMutability": "view",
      "type": "function"
    },
    {
      "inputs": [],
      "name": "getStats",
      "outputs": [
        {
          "internalType": "uint256",
          "name": "_denomination",
          "type": "uint256"
        },
        {
          "internalType": "uint256",
          "name": "_numberOfDeposits",
          "type": "uint256"
        },
        {
          "internalType": "uint256",
          "name": "_numberOfWithdrawals",
          "type": "uint256"
        }
      ],
      "stateMutability": "view",
      "type": "function"
    },
    {
      "inputs": [
        {
          "internalType": "contract IHasher",
          "name": "_hasher",
          "type": "address"
        },
        {
          "internalType": "bytes32",
          "name": "_left",
          "type": "bytes32"
        },
        {
          "internalType": "bytes32",
          "name": "_right",
          "type": "bytes32"
        }
      ],
      "name": "hashLeftRight",
      "outputs": [
        {
          "internalType": "bytes32",
          "name": "",
          "type": "bytes32"
        }
      ],
      "stateMutability": "pure",
      "type": "function"
    },
    {
      "inputs": [],
      "name": "hasher",
      "outputs": [
        {
          "internalType": "contract IHasher",
          "name": "",
          "type": "address"
        }
      ],
      "stateMutability": "view",
      "type": "function"
    },
    {
      "inputs": [
        {
          "internalType": "bytes32",
          "name": "_root",
          "type": "bytes32"
        }
      ],
      "name": "isKnownRoot",
      "outputs": [
        {
          "internalType": "bool",
          "name": "",
          "type": "bool"
        }
      ],
      "stateMutability": "view",
      "type": "function"
    },
    {
      "inputs": [
        {
          "internalType": "bytes32",
          "name": "_nullifierHash",
          "type": "bytes32"
        }
      ],
      "name": "isSpent",
      "outputs": [
        {
          "internalType": "bool",
          "name": "",
          "type": "bool"
        }
      ],
      "stateMutability": "view",
      "type": "function"
    },
    {
      "inputs": [
        {
          "internalType": "bytes32[]",
          "name": "_nullifierHashes",
          "type": "bytes32[]"
        }
      ],
      "name": "isSpentArray",
      "outputs": [
        {
          "internalType": "bool[]",
          "name": "spent",
          "type": "bool[]"
        }
      ],
      "stateMutability": "view",
      "type": "function"
    },
    {
      "inputs": [],
      "name": "levels",
      "outputs": [
        {
          "internalType": "uint32",
          "name": "",
          "type": "uint32"
        }
      ],
      "stateMutability": "view",
      "type": "function"
    },
    {
      "inputs": [],
      "name": "nextIndex",
      "outputs": [
        {
          "internalType": "uint32",
          "name": "",
          "type": "uint32"
        }
      ],
      "stateMutability": "view",
      "type": "function"
    },
    {
      "inputs": [
        {
          "internalType": "bytes32",
          "name": "",
          "type": "bytes32"
        }
      ],
      "name": "nullifierHashes",
      "outputs": [
        {
          "internalType": "bool",
          "name": "",
          "type": "bool"
        }
      ],
      "stateMutability": "view",
      "type": "function"
    },
    {
      "inputs": [],
      "name": "numberOfDeposits",
      "outputs": [
        {
          "internalType": "uint256",
          "name": "",
          "type": "uint256"
        }
      ],
      "stateMutability": "view",
      "type": "function"
    },
    {
      "inputs": [],
      "name": "numberOfWithdrawals",
      "outputs": [
        {
          "internalType": "uint256",
          "name": "",
          "type": "uint256"
        }
      ],
      "stateMutability": "view",
      "type": "function"
    },
    {
      "inputs": [
        {
          "internalType": "address",
          "name": "",
          "type": "address"
        },
        {
          "internalType": "address",
          "name": "",
          "type": "address"
        },
        {
          "internalType": "uint256",
          "name": "",
          "type": "uint256"
        },
        {
          "internalType": "bytes",
          "name": "",
          "type": "bytes"
        }
      ],
      "name": "onKIP7Received",
      "outputs": [
        {
          "internalType": "bytes4",
          "name": "",
          "type": "bytes4"
        }
      ],
      "stateMutability": "pure",
      "type": "function"
    },
    {
      "inputs": [],
      "name": "owner",
      "outputs": [
        {
          "internalType": "address",
          "name": "",
          "type": "address"
        }
      ],
      "stateMutability": "view",
      "type": "function"
    },
    {
      "inputs": [],
      "name": "renounceOwnership",
      "outputs": [],
      "stateMutability": "nonpayable",
      "type": "function"
    },
    {
      "inputs": [
        {
          "internalType": "uint256",
          "name": "",
          "type": "uint256"
        }
      ],
      "name": "roots",
      "outputs": [
        {
          "internalType": "bytes32",
          "name": "",
          "type": "bytes32"
        }
      ],
      "stateMutability": "view",
      "type": "function"
    },
    {
      "inputs": [
        {
          "internalType": "address",
          "name": "_recipient",
          "type": "address"
        },
        {
          "internalType": "address",
          "name": "_token",
          "type": "address"
        },
        {
          "internalType": "uint256",
          "name": "_amount",
          "type": "uint256"
        }
      ],
      "name": "transfer",
      "outputs": [],
      "stateMutability": "nonpayable",
      "type": "function"
    },
    {
      "inputs": [
        {
          "internalType": "address",
          "name": "newOwner",
          "type": "address"
        }
      ],
      "name": "transferOwnership",
      "outputs": [],
      "stateMutability": "nonpayable",
      "type": "function"
    },
    {
      "inputs": [],
      "name": "verifier",
      "outputs": [
        {
          "internalType": "contract IVerifier",
          "name": "",
          "type": "address"
        }
      ],
      "stateMutability": "view",
      "type": "function"
    },
    {
      "inputs": [
        {
          "internalType": "bytes",
          "name": "_proof",
          "type": "bytes"
        },
        {
          "internalType": "bytes32",
          "name": "_root",
          "type": "bytes32"
        },
        {
          "internalType": "bytes32",
          "name": "_nullifierHash",
          "type": "bytes32"
        },
        {
          "internalType": "address payable",
          "name": "_recipient",
          "type": "address"
        },
        {
          "internalType": "address payable",
          "name": "_relayer",
          "type": "address"
        },
        {
          "internalType": "uint256",
          "name": "_relayerFee",
          "type": "uint256"
        },
        {
          "internalType": "uint256",
          "name": "_refund",
          "type": "uint256"
        }
      ],
      "name": "withdraw",
      "outputs": [],
      "stateMutability": "payable",
      "type": "function"
    },
    {
      "inputs": [
        {
          "internalType": "uint256",
          "name": "i",
          "type": "uint256"
        }
      ],
      "name": "zeros",
      "outputs": [
        {
          "internalType": "bytes32",
          "name": "",
          "type": "bytes32"
        }
      ],
      "stateMutability": "pure",
      "type": "function"
    },
    {
      "stateMutability": "payable",
      "type": "receive"
    }
  ],
  "bytecode": "0x60c0604052600380546001600160401b03191690553480156200002157600080fd5b506040516200342838038062003428833981016040819052620000449162000951565b8484848484818460008263ffffffff1611620000b35760405162461bcd60e51b815260206004820152602360248201527f5f6c6576656c732073686f756c642062652067726561746572207468616e207a60448201526265726f60e81b60648201526084015b60405180910390fd5b60208263ffffffff16106200010b5760405162461bcd60e51b815260206004820152601e60248201527f5f6c6576656c732073686f756c64206265206c657373207468616e20333200006044820152606401620000aa565b6000805463ffffffff191663ffffffff84161781556001600160a01b0382166080525b8263ffffffff168163ffffffff1610156200017f576200015463ffffffff821662000270565b63ffffffff8216600090815260016020526040902055806200017681620009e3565b9150506200012e565b506200019d6200019160018462000a0a565b63ffffffff1662000270565b6000805260026020527fac33ff75c19e70fe83507db0d683fd3465c996598dc972688b7ace676c89077b5550620001d6905033620008d5565b600160045582620002385760405162461bcd60e51b815260206004820152602560248201527f64656e6f6d696e6174696f6e2073686f756c6420626520677265617465722074604482015264068616e20360dc1b6064820152608401620000aa565b6001600160a01b0394851660a05260069290925550600580546001600160a01b03191691909316179091555062000a32945050505050565b6000816200029f57507f2fe54c60d3acabf3343a35b6eba15db4821b340f76e741e2249685ed4899af6c919050565b8160011415620002d057507f256a6135777eee2fd26f54b8b7037a25439d5235caee224154186d2b8a52e31d919050565b81600214156200030157507f1151949895e82ab19924de92c40a3d6f7bcb60d92b00504b8199613683f0c200919050565b81600314156200033257507f20121ee811489ff8d61f09fb89e313f14959a0f28bb428a20dba6b0b068b3bdb919050565b81600414156200036357507f0a89ca6ffa14cc462cfedb842c30ed221a50a3d6bf022a6a57dc82ab24c157c9919050565b81600514156200039457507f24ca05c2b5cd42e890d6be94c68d0689f4f21c9cec9c0f13fe41d566dfb54959919050565b8160061415620003c557507f1ccb97c932565a92c60156bdba2d08f3bf1377464e025cee765679e604a7315c919050565b8160071415620003f657507f19156fbd7d1a8bf5cba8909367de1b624534ebab4f0f79e003bccdd1b182bdb4919050565b81600814156200042757507f261af8c1f0912e465744641409f622d466c3920ac6e5ff37e36604cb11dfff80919050565b81600914156200045757507e58459724ff6ca5a1652fcbc3e82b93895cf08e975b19beab3f54c217d1c007919050565b81600a14156200048857507f1f04ef20dee48d39984d8eabe768a70eafa6310ad20849d4573c3c40c2ad1e30919050565b81600b1415620004b957507f1bea3dec5dab51567ce7e200a30f7ba6d4276aeaa53e2686f962a46c66d511e5919050565b81600c1415620004ea57507f0ee0f941e2da4b9e31c3ca97a40d8fa9ce68d97c084177071b3cb46cd3372f0f919050565b81600d14156200051b57507f1ca9503e8935884501bbaf20be14eb4c46b89772c97b96e3b2ebf3a36a948bbd919050565b81600e14156200054c57507f133a80e30697cd55d8f7d4b0965b7be24057ba5dc3da898ee2187232446cb108919050565b81600f14156200057d57507f13e6d8fc88839ed76e182c2a779af5b2c0da9dd18c90427a644f7e148a6253b6919050565b8160101415620005ae57507f1eb16b057a477f4bc8f572ea6bee39561098f78f15bfb3699dcbb7bd8db61854919050565b8160111415620005df57507f0da2cb16a1ceaabf1c16b838f7a9e3f2a3a3088d9e0a6debaa748114620696ea919050565b81601214156200061057507f24a3b3d822420b14b5d8cb6c28a574f01e98ea9e940551d2ebd75cee12649f9d919050565b81601314156200064157507f198622acbd783d1b0d9064105b1fc8e4d8889de95c4c519b3f635809fe6afc05919050565b81601414156200067257507f29d7ed391256ccc3ea596c86e933b89ff339d25ea8ddced975ae2fe30b5296d4919050565b8160151415620006a357507f19be59f2f0413ce78c0c3703a3a5451b1d7f39629fa33abd11548a76065b2967919050565b8160161415620006d457507f1ff3f61797e538b70e619310d33f2a063e7eb59104e112e95738da1254dc3453919050565b81601714156200070557507f10c16ae9959cf8358980d9dd9616e48228737310a10e2b6b731c1a548f036c48919050565b81601814156200073657507f0ba433a63174a90ac20992e75e3095496812b652685b5e1a2eae0b1bf4e8fcd1919050565b81601914156200076757507f019ddb9df2bc98d987d0dfeca9d2b643deafab8f7036562e627c3667266a044c919050565b81601a14156200079857507f2d3c88b23175c5a5565db928414c66d1912b11acf974b2e644caaac04739ce99919050565b81601b1415620007c957507f2eab55f6ae4e66e32c5189eed5c470840863445760f5ed7e7b69b2a62600f354919050565b81601c1415620007f957507e2df37a2642621802383cf952bf4dd1f32e05433beeb1fd41031fb7eace979d919050565b81601d14156200082a57507f104aeb41435db66c3e62feccc1d6f5d98d0a0ed75d1374db457cf462e3a1f427919050565b81601e14156200085b57507f1f3c6fd858e9a7d4b0d1f38e256a09d81d5a5e3c963987e2d4b814cfab7c6ebb919050565b81601f14156200088c57507f2c7a07d20dff79d01fecedc1134284a8d08436606c93693b67e333f671bf69cc919050565b60405162461bcd60e51b815260206004820152601360248201527f496e646578206f7574206f6620626f756e6473000000000000000000000000006044820152606401620000aa565b600380546001600160a01b0383811668010000000000000000818102600160401b600160e01b031985161790945560405193909204169182907f8be0079c531659141344cd1fd0a4f28419497f9722a3daafe3b4186f6b6457e090600090a35050565b6001600160a01b03811681146200094e57600080fd5b50565b600080600080600060a086880312156200096a57600080fd5b8551620009778162000938565b60208701519095506200098a8162000938565b60408701516060880151919550935063ffffffff81168114620009ac57600080fd5b6080870151909250620009bf8162000938565b809150509295509295909350565b634e487b7160e01b600052601160045260246000fd5b600063ffffffff8083168181141562000a005762000a00620009cd565b6001019392505050565b600063ffffffff8381169083168181101562000a2a5762000a2a620009cd565b039392505050565b60805160a0516129c262000a666000396000818161027801526108ec01526000818161068a0152611ec401526129c26000f3fe6080604052600436106101dc5760003560e01c8063a1244c6711610102578063e3a0f26411610095578063ed33639f11610064578063ed33639f14610678578063f178e47c146106ac578063f2fde38b146106d9578063fc7e9c6f146106f957600080fd5b8063e3a0f264146105c7578063e5285dcc146105f4578063e829558814610624578063ec7329591461064457600080fd5b8063beabacc8116100d1578063beabacc814610534578063c2b40ae414610554578063c59d484714610581578063cd87a3b4146105b257600080fd5b8063a1244c67146104b6578063b0cd3d14146104cc578063b214faa5146104f7578063ba70f7571461050a57600080fd5b8063715018a61161017a5780638ea3099e116101495780638ea3099e146103d757806390eeb02b146103f75780639d188c22146104145780639fa12d0b1461048957600080fd5b8063715018a614610345578063839df9451461035a5780638bca6d161461038a5780638da5cb5b146103a057600080fd5b80632b7ac3f3116101b65780632b7ac3f314610266578063414a37ba146102bf5780634ecf518b146102f35780636d9833e31461032557600080fd5b80631101f818146101e857806317cc915c1461021157806321a0adb61461025157600080fd5b366101e357005b600080fd5b3480156101f457600080fd5b506101fe600a5481565b6040519081526020015b60405180910390f35b34801561021d57600080fd5b5061024161022c3660046121f9565b60076020526000908152604090205460ff1681565b6040519015158152602001610208565b61026461025f36600461223f565b61071e565b005b34801561027257600080fd5b5061029a7f000000000000000000000000000000000000000000000000000000000000000081565b60405173ffffffffffffffffffffffffffffffffffffffff9091168152602001610208565b3480156102cb57600080fd5b506101fe7f30644e72e131a029b85045b68181585d2833e84879b9709143e1f593f000000181565b3480156102ff57600080fd5b506000546103109063ffffffff1681565b60405163ffffffff9091168152602001610208565b34801561033157600080fd5b506102416103403660046121f9565b610a99565b34801561035157600080fd5b50610264610b14565b34801561036657600080fd5b506102416103753660046121f9565b60086020526000908152604090205460ff1681565b34801561039657600080fd5b506101fe60065481565b3480156103ac57600080fd5b5060035468010000000000000000900473ffffffffffffffffffffffffffffffffffffffff1661029a565b3480156103e357600080fd5b506101fe6103f23660046122f5565b610b28565b34801561040357600080fd5b506003546103109063ffffffff1681565b34801561042057600080fd5b5061045861042f366004612359565b7f9d188c2200000000000000000000000000000000000000000000000000000000949350505050565b6040517fffffffff000000000000000000000000000000000000000000000000000000009091168152602001610208565b34801561049557600080fd5b506104a96104a4366004612457565b610dc7565b60405161020891906124cc565b3480156104c257600080fd5b506101fe60095481565b3480156104d857600080fd5b5060055473ffffffffffffffffffffffffffffffffffffffff1661029a565b6102646105053660046121f9565b610e8d565b34801561051657600080fd5b5060035463ffffffff166000908152600260205260409020546101fe565b34801561054057600080fd5b5061026461054f366004612512565b610fe6565b34801561056057600080fd5b506101fe61056f3660046121f9565b60026020526000908152604090205481565b34801561058d57600080fd5b50600654600954600a5460408051938452602084019290925290820152606001610208565b3480156105be57600080fd5b50610310601e81565b3480156105d357600080fd5b5060055461029a9073ffffffffffffffffffffffffffffffffffffffff1681565b34801561060057600080fd5b5061024161060f3660046121f9565b60009081526007602052604090205460ff1690565b34801561063057600080fd5b506101fe61063f3660046121f9565b611091565b34801561065057600080fd5b506101fe7f2fe54c60d3acabf3343a35b6eba15db4821b340f76e741e2249685ed4899af6c81565b34801561068457600080fd5b5061029a7f000000000000000000000000000000000000000000000000000000000000000081565b3480156106b857600080fd5b506101fe6106c73660046121f9565b60016020526000908152604090205481565b3480156106e557600080fd5b506102646106f4366004612553565b6116f4565b34801561070557600080fd5b5060035461031090640100000000900463ffffffff1681565b6107266117a8565b600654821115610797576040517f08c379a000000000000000000000000000000000000000000000000000000000815260206004820152601a60248201527f4665652065786365656473207472616e736665722076616c756500000000000060448201526064015b60405180910390fd5b60008581526007602052604090205460ff1615610810576040517f08c379a000000000000000000000000000000000000000000000000000000000815260206004820152601f60248201527f546865206e6f746520686173206265656e20616c7265616479207370656e7400604482015260640161078e565b61081986610a99565b61087f576040517f08c379a000000000000000000000000000000000000000000000000000000000815260206004820152601c60248201527f43616e6e6f742066696e6420796f7572206d65726b6c6520726f6f7400000000604482015260640161078e565b6040805160c0810182528781526020810187905273ffffffffffffffffffffffffffffffffffffffff8681168284015285811660608301526080820185905260a0820184905291517f695ef6f90000000000000000000000000000000000000000000000000000000081527f00000000000000000000000000000000000000000000000000000000000000009092169163695ef6f991610925918c918c91600401612577565b6020604051808303816000875af1158015610944573d6000803e3d6000fd5b505050506040513d601f19601f8201168201806040525081019061096891906125f3565b6109ce576040517f08c379a000000000000000000000000000000000000000000000000000000000815260206004820152601660248201527f496e76616c69642077697468647261772070726f6f6600000000000000000000604482015260640161078e565b600085815260076020526040902080547fffffffffffffffffffffffffffffffffffffffffffffffffffffffffffffff00166001179055610a118484848461181c565b6001600a6000828254610a249190612644565b90915550506040805173ffffffffffffffffffffffffffffffffffffffff868116825260208201889052918101849052908416907fe9e508bad6d4c3227e881ca19068f099da81b5164dd6d62b2eaf1e8bc6c349319060600160405180910390a2610a8f6001600455565b5050505050505050565b600081610aa857506000919050565b60035463ffffffff16805b63ffffffff8116600090815260026020526040902054841415610ada575060019392505050565b63ffffffff8116610ae95750601e5b80610af38161265c565b9150508163ffffffff168163ffffffff161415610ab3575060009392505050565b610b1c611c6e565b610b266000611cfc565b565b60007f30644e72e131a029b85045b68181585d2833e84879b9709143e1f593f00000018310610bb3576040517f08c379a000000000000000000000000000000000000000000000000000000000815260206004820181905260248201527f5f6c6566742073686f756c6420626520696e7369646520746865206669656c64604482015260640161078e565b7f30644e72e131a029b85045b68181585d2833e84879b9709143e1f593f00000018210610c62576040517f08c379a000000000000000000000000000000000000000000000000000000000815260206004820152602160248201527f5f72696768742073686f756c6420626520696e7369646520746865206669656c60448201527f6400000000000000000000000000000000000000000000000000000000000000606482015260840161078e565b6040517ff47d33b500000000000000000000000000000000000000000000000000000000815260048101849052600060248201819052849173ffffffffffffffffffffffffffffffffffffffff87169063f47d33b5906044016040805180830381865afa158015610cd7573d6000803e3d6000fd5b505050506040513d601f19601f82011682018060405250810190610cfb919061269a565b90925090507f30644e72e131a029b85045b68181585d2833e84879b9709143e1f593f00000018483086040517ff47d33b5000000000000000000000000000000000000000000000000000000008152600481018290526024810183905290925073ffffffffffffffffffffffffffffffffffffffff87169063f47d33b5906044016040805180830381865afa158015610d98573d6000803e3d6000fd5b505050506040513d601f19601f82011682018060405250810190610dbc919061269a565b509695505050505050565b60608167ffffffffffffffff811115610de257610de261232a565b604051908082528060200260200182016040528015610e0b578160200160208202803683370190505b50905060005b82811015610e8657610e4a848483818110610e2e57610e2e6126ed565b9050602002013560009081526007602052604090205460ff1690565b15610e74576001828281518110610e6357610e636126ed565b911515602092830291909101909101525b80610e7e8161271c565b915050610e11565b5092915050565b610e956117a8565b60008181526008602052604090205460ff1615610f34576040517f08c379a000000000000000000000000000000000000000000000000000000000815260206004820152602160248201527f54686520636f6d6d69746d656e7420686173206265656e207375626d6974746560448201527f6400000000000000000000000000000000000000000000000000000000000000606482015260840161078e565b6000610f3f82611d81565b600083815260086020526040902080547fffffffffffffffffffffffffffffffffffffffffffffffffffffffffffffff001660011790559050610f80611fcb565b600160096000828254610f939190612644565b90915550506040805163ffffffff8316815242602082015283917fa945e51eec50ab98c161376f0db4cf2aeba3ec92755fe2fcd388bdbbb80ff196910160405180910390a250610fe36001600455565b50565b610fee611c6e565b6040517fa9059cbb00000000000000000000000000000000000000000000000000000000815273ffffffffffffffffffffffffffffffffffffffff84811660048301526024820183905283919082169063a9059cbb906044016020604051808303816000875af1158015611066573d6000803e3d6000fd5b505050506040513d601f19601f8201168201806040525081019061108a91906125f3565b5050505050565b6000816110bf57507f2fe54c60d3acabf3343a35b6eba15db4821b340f76e741e2249685ed4899af6c919050565b81600114156110ef57507f256a6135777eee2fd26f54b8b7037a25439d5235caee224154186d2b8a52e31d919050565b816002141561111f57507f1151949895e82ab19924de92c40a3d6f7bcb60d92b00504b8199613683f0c200919050565b816003141561114f57507f20121ee811489ff8d61f09fb89e313f14959a0f28bb428a20dba6b0b068b3bdb919050565b816004141561117f57507f0a89ca6ffa14cc462cfedb842c30ed221a50a3d6bf022a6a57dc82ab24c157c9919050565b81600514156111af57507f24ca05c2b5cd42e890d6be94c68d0689f4f21c9cec9c0f13fe41d566dfb54959919050565b81600614156111df57507f1ccb97c932565a92c60156bdba2d08f3bf1377464e025cee765679e604a7315c919050565b816007141561120f57507f19156fbd7d1a8bf5cba8909367de1b624534ebab4f0f79e003bccdd1b182bdb4919050565b816008141561123f57507f261af8c1f0912e465744641409f622d466c3920ac6e5ff37e36604cb11dfff80919050565b816009141561126e57507e58459724ff6ca5a1652fcbc3e82b93895cf08e975b19beab3f54c217d1c007919050565b81600a141561129e57507f1f04ef20dee48d39984d8eabe768a70eafa6310ad20849d4573c3c40c2ad1e30919050565b81600b14156112ce57507f1bea3dec5dab51567ce7e200a30f7ba6d4276aeaa53e2686f962a46c66d511e5919050565b81600c14156112fe57507f0ee0f941e2da4b9e31c3ca97a40d8fa9ce68d97c084177071b3cb46cd3372f0f919050565b81600d141561132e57507f1ca9503e8935884501bbaf20be14eb4c46b89772c97b96e3b2ebf3a36a948bbd919050565b81600e141561135e57507f133a80e30697cd55d8f7d4b0965b7be24057ba5dc3da898ee2187232446cb108919050565b81600f141561138e57507f13e6d8fc88839ed76e182c2a779af5b2c0da9dd18c90427a644f7e148a6253b6919050565b81601014156113be57507f1eb16b057a477f4bc8f572ea6bee39561098f78f15bfb3699dcbb7bd8db61854919050565b81601114156113ee57507f0da2cb16a1ceaabf1c16b838f7a9e3f2a3a3088d9e0a6debaa748114620696ea919050565b816012141561141e57507f24a3b3d822420b14b5d8cb6c28a574f01e98ea9e940551d2ebd75cee12649f9d919050565b816013141561144e57507f198622acbd783d1b0d9064105b1fc8e4d8889de95c4c519b3f635809fe6afc05919050565b816014141561147e57507f29d7ed391256ccc3ea596c86e933b89ff339d25ea8ddced975ae2fe30b5296d4919050565b81601514156114ae57507f19be59f2f0413ce78c0c3703a3a5451b1d7f39629fa33abd11548a76065b2967919050565b81601614156114de57507f1ff3f61797e538b70e619310d33f2a063e7eb59104e112e95738da1254dc3453919050565b816017141561150e57507f10c16ae9959cf8358980d9dd9616e48228737310a10e2b6b731c1a548f036c48919050565b816018141561153e57507f0ba433a63174a90ac20992e75e3095496812b652685b5e1a2eae0b1bf4e8fcd1919050565b816019141561156e57507f019ddb9df2bc98d987d0dfeca9d2b643deafab8f7036562e627c3667266a044c919050565b81601a141561159e57507f2d3c88b23175c5a5565db928414c66d1912b11acf974b2e644caaac04739ce99919050565b81601b14156115ce57507f2eab55f6ae4e66e32c5189eed5c470840863445760f5ed7e7b69b2a62600f354919050565b81601c14156115fd57507e2df37a2642621802383cf952bf4dd1f32e05433beeb1fd41031fb7eace979d919050565b81601d141561162d57507f104aeb41435db66c3e62feccc1d6f5d98d0a0ed75d1374db457cf462e3a1f427919050565b81601e141561165d57507f1f3c6fd858e9a7d4b0d1f38e256a09d81d5a5e3c963987e2d4b814cfab7c6ebb919050565b81601f141561168d57507f2c7a07d20dff79d01fecedc1134284a8d08436606c93693b67e333f671bf69cc919050565b6040517f08c379a000000000000000000000000000000000000000000000000000000000815260206004820152601360248201527f496e646578206f7574206f6620626f756e647300000000000000000000000000604482015260640161078e565b919050565b6116fc611c6e565b73ffffffffffffffffffffffffffffffffffffffff811661179f576040517f08c379a000000000000000000000000000000000000000000000000000000000815260206004820152602660248201527f4f776e61626c653a206e6577206f776e657220697320746865207a65726f206160448201527f6464726573730000000000000000000000000000000000000000000000000000606482015260840161078e565b610fe381611cfc565b60026004541415611815576040517f08c379a000000000000000000000000000000000000000000000000000000000815260206004820152601f60248201527f5265656e7472616e637947756172643a207265656e7472616e742063616c6c00604482015260640161078e565b6002600455565b34156118aa576040517f08c379a000000000000000000000000000000000000000000000000000000000815260206004820152603560248201527f4d6573736167652076616c756520697320737570706f73656420746f2062652060448201527f7a65726f20666f722045544820696e7374616e63650000000000000000000000606482015260840161078e565b8015611938576040517f08c379a000000000000000000000000000000000000000000000000000000000815260206004820152603460248201527f526566756e642076616c756520697320737570706f73656420746f206265207a60448201527f65726f20666f722045544820696e7374616e6365000000000000000000000000606482015260840161078e565b600061194261205c565b61194a6120f5565b6006546119579190612755565b6119619190612792565b90506000838260065461197491906127a6565b61197e91906127a6565b905060008673ffffffffffffffffffffffffffffffffffffffff168260405160006040518083038185875af1925050503d80600081146119da576040519150601f19603f3d011682016040523d82523d6000602084013e6119df565b606091505b5050905080611a70576040517f08c379a000000000000000000000000000000000000000000000000000000000815260206004820152602560248201527f7061796d656e7420746f205f726563697069656e7420646964206e6f7420676f60448201527f2074687275000000000000000000000000000000000000000000000000000000606482015260840161078e565b8215611b6f576000611a80612165565b73ffffffffffffffffffffffffffffffffffffffff168460405160006040518083038185875af1925050503d8060008114611ad7576040519150601f19603f3d011682016040523d82523d6000602084013e611adc565b606091505b5050905080611b6d576040517f08c379a000000000000000000000000000000000000000000000000000000000815260206004820152602360248201527f7061796d656e7420746f20747265617375727920646964206e6f7420676f207460448201527f6872750000000000000000000000000000000000000000000000000000000000606482015260840161078e565b505b8415611c655760008673ffffffffffffffffffffffffffffffffffffffff168660405160006040518083038185875af1925050503d8060008114611bcf576040519150601f19603f3d011682016040523d82523d6000602084013e611bd4565b606091505b5050905080610a8f576040517f08c379a000000000000000000000000000000000000000000000000000000000815260206004820152602360248201527f7061796d656e7420746f205f72656c6179657220646964206e6f7420676f207460448201527f6872750000000000000000000000000000000000000000000000000000000000606482015260840161078e565b50505050505050565b60035473ffffffffffffffffffffffffffffffffffffffff68010000000000000000909104163314610b26576040517f08c379a000000000000000000000000000000000000000000000000000000000815260206004820181905260248201527f4f776e61626c653a2063616c6c6572206973206e6f7420746865206f776e6572604482015260640161078e565b6003805473ffffffffffffffffffffffffffffffffffffffff838116680100000000000000008181027fffffffff0000000000000000000000000000000000000000ffffffffffffffff85161790945560405193909204169182907f8be0079c531659141344cd1fd0a4f28419497f9722a3daafe3b4186f6b6457e090600090a35050565b60035460008054909163ffffffff640100000000909104811691611da7911660026128d0565b63ffffffff168163ffffffff161415611e42576040517f08c379a000000000000000000000000000000000000000000000000000000000815260206004820152603060248201527f4d65726b6c6520747265652069732066756c6c2e204e6f206d6f7265206c656160448201527f7665732063616e20626520616464656400000000000000000000000000000000606482015260840161078e565b8083600080805b60005463ffffffff9081169082161015611f0b57611e686002866128ed565b63ffffffff16611ea357839250611e848163ffffffff16611091565b63ffffffff821660009081526001602052604090208590559150611ebf565b63ffffffff811660009081526001602052604090205492508391505b611eea7f00000000000000000000000000000000000000000000000000000000000000008484610b28565b9350611ef7600286612910565b945080611f0381612933565b915050611e49565b50600354600090601e90611f269063ffffffff166001612957565b611f3091906128ed565b600380547fffffffffffffffffffffffffffffffffffffffffffffffffffffffff000000001663ffffffff831690811790915560009081526002602052604090208590559050611f81866001612957565b6003805463ffffffff92909216640100000000027fffffffffffffffffffffffffffffffffffffffffffffffff00000000ffffffff90921691909117905550939695505050505050565b6006543414610b26576040517f08c379a000000000000000000000000000000000000000000000000000000000815260206004820152603860248201527f506c656173652073656e6420606d697844656e6f6d696e6174696f6e6020455460448201527f4820616c6f6e672077697468207472616e73616374696f6e0000000000000000606482015260840161078e565b600554604080517f180b0d7e000000000000000000000000000000000000000000000000000000008152905160009273ffffffffffffffffffffffffffffffffffffffff169163180b0d7e9160048083019260209291908290030181865afa1580156120cc573d6000803e3d6000fd5b505050506040513d601f19601f820116820180604052508101906120f0919061297f565b905090565b600554604080517fe86dea4a000000000000000000000000000000000000000000000000000000008152905160009273ffffffffffffffffffffffffffffffffffffffff169163e86dea4a9160048083019260209291908290030181865afa1580156120cc573d6000803e3d6000fd5b600554604080517f61d027b3000000000000000000000000000000000000000000000000000000008152905160009273ffffffffffffffffffffffffffffffffffffffff16916361d027b39160048083019260209291908290030181865afa1580156121d5573d6000803e3d6000fd5b505050506040513d601f19601f820116820180604052508101906120f09190612998565b60006020828403121561220b57600080fd5b5035919050565b73ffffffffffffffffffffffffffffffffffffffff81168114610fe357600080fd5b80356116ef81612212565b60008060008060008060008060e0898b03121561225b57600080fd5b883567ffffffffffffffff8082111561227357600080fd5b818b0191508b601f83011261228757600080fd5b81358181111561229657600080fd5b8c60208285010111156122a857600080fd5b60209283019a509850508901359550604089013594506122ca60608a01612234565b93506122d860808a01612234565b925060a0890135915060c089013590509295985092959890939650565b60008060006060848603121561230a57600080fd5b833561231581612212565b95602085013595506040909401359392505050565b7f4e487b7100000000000000000000000000000000000000000000000000000000600052604160045260246000fd5b6000806000806080858703121561236f57600080fd5b843561237a81612212565b9350602085013561238a81612212565b925060408501359150606085013567ffffffffffffffff808211156123ae57600080fd5b818701915087601f8301126123c257600080fd5b8135818111156123d4576123d461232a565b604051601f82017fffffffffffffffffffffffffffffffffffffffffffffffffffffffffffffffe0908116603f0116810190838211818310171561241a5761241a61232a565b816040528281528a602084870101111561243357600080fd5b82602086016020830137600060208483010152809550505050505092959194509250565b6000806020838503121561246a57600080fd5b823567ffffffffffffffff8082111561248257600080fd5b818501915085601f83011261249657600080fd5b8135818111156124a557600080fd5b8660208260051b85010111156124ba57600080fd5b60209290920196919550909350505050565b6020808252825182820181905260009190848201906040850190845b818110156125065783511515835292840192918401916001016124e8565b50909695505050505050565b60008060006060848603121561252757600080fd5b833561253281612212565b9250602084013561254281612212565b929592945050506040919091013590565b60006020828403121561256557600080fd5b813561257081612212565b9392505050565b60e081528260e082015260006101008486828501376000818685010152807fffffffffffffffffffffffffffffffffffffffffffffffffffffffffffffffe0601f87011684010191505060208083018460005b60068110156125e7578151835291830191908301906001016125ca565b50505050949350505050565b60006020828403121561260557600080fd5b8151801515811461257057600080fd5b7f4e487b7100000000000000000000000000000000000000000000000000000000600052601160045260246000fd5b6000821982111561265757612657612615565b500190565b600063ffffffff82168061267257612672612615565b7fffffffffffffffffffffffffffffffffffffffffffffffffffffffffffffffff0192915050565b600080604083850312156126ad57600080fd5b505080516020909101519092909150565b7f4e487b7100000000000000000000000000000000000000000000000000000000600052601260045260246000fd5b7f4e487b7100000000000000000000000000000000000000000000000000000000600052603260045260246000fd5b60007fffffffffffffffffffffffffffffffffffffffffffffffffffffffffffffffff82141561274e5761274e612615565b5060010190565b6000817fffffffffffffffffffffffffffffffffffffffffffffffffffffffffffffffff048311821515161561278d5761278d612615565b500290565b6000826127a1576127a16126be565b500490565b6000828210156127b8576127b8612615565b500390565b600181815b808511156127fa578163ffffffff048211156127e0576127e0612615565b808516156127ed57918102915b93841c93908002906127c2565b509250929050565b600082612811575060016128ca565b8161281e575060006128ca565b8160018114612834576002811461283e5761286f565b60019150506128ca565b60ff84111561284f5761284f612615565b6001841b915063ffffffff82111561286957612869612615565b506128ca565b5060208310610133831016604e8410600b84101617156128a6575081810a63ffffffff8111156128a1576128a1612615565b6128ca565b6128b083836127bd565b8063ffffffff048211156128c6576128c6612615565b0290505b92915050565b600063ffffffff6128e5818516828516612802565b949350505050565b600063ffffffff80841680612904576129046126be565b92169190910692915050565b600063ffffffff80841680612927576129276126be565b92169190910492915050565b600063ffffffff8083168181141561294d5761294d612615565b6001019392505050565b600063ffffffff80831681851680830382111561297657612976612615565b01949350505050565b60006020828403121561299157600080fd5b5051919050565b6000602082840312156129aa57600080fd5b81516125708161221256fea164736f6c634300080a000a",
  "linkReferences": {},
  "deployedLinkReferences": {}
}