{
  "_format": "hh-sol-artifact-1",
  "contractName": "MerkleTreeWithHistoryMock",
  "sourceName": "contracts/classic/mocks/MerkleTreeWithHistoryMock.sol",
  "abi": [
    {
      "inputs": [
        {
          "internalType": "uint32",
          "name": "_treeLevels",
          "type": "uint32"
        },
        {
          "internalType": "contract IHasher",
          "name": "_hasher",
          "type": "address"
        }
      ],
      "stateMutability": "nonpayable",
      "type": "constructor"
    },
    {
      "inputs": [],
      "name": "FIELD_SIZE",
      "outputs": [
        {
          "internalType": "uint256",
          "name": "",
          "type": "uint256"
        }
      ],
      "stateMutability": "view",
      "type": "function"
    },
    {
      "inputs": [],
      "name": "ROOT_HISTORY_SIZE",
      "outputs": [
        {
          "internalType": "uint32",
          "name": "",
          "type": "uint32"
        }
      ],
      "stateMutability": "view",
      "type": "function"
    },
    {
      "inputs": [],
      "name": "ZERO_VALUE",
      "outputs": [
        {
          "internalType": "uint256",
          "name": "",
          "type": "uint256"
        }
      ],
      "stateMutability": "view",
      "type": "function"
    },
    {
      "inputs": [],
      "name": "currentRootIndex",
      "outputs": [
        {
          "internalType": "uint32",
          "name": "",
          "type": "uint32"
        }
      ],
      "stateMutability": "view",
      "type": "function"
    },
    {
      "inputs": [
        {
          "internalType": "uint256",
          "name": "",
          "type": "uint256"
        }
      ],
      "name": "filledSubtrees",
      "outputs": [
        {
          "internalType": "bytes32",
          "name": "",
          "type": "bytes32"
        }
      ],
      "stateMutability": "view",
      "type": "function"
    },
    {
      "inputs": [],
      "name": "getLastRoot",
      "outputs": [
        {
          "internalType": "bytes32",
          "name": "",
          "type": "bytes32"
        }
      ],
      "stateMutability": "view",
      "type": "function"
    },
    {
      "inputs": [
        {
          "internalType": "contract IHasher",
          "name": "_hasher",
          "type": "address"
        },
        {
          "internalType": "bytes32",
          "name": "_left",
          "type": "bytes32"
        },
        {
          "internalType": "bytes32",
          "name": "_right",
          "type": "bytes32"
        }
      ],
      "name": "hashLeftRight",
      "outputs": [
        {
          "internalType": "bytes32",
          "name": "",
          "type": "bytes32"
        }
      ],
      "stateMutability": "pure",
      "type": "function"
    },
    {
      "inputs": [],
      "name": "hasher",
      "outputs": [
        {
          "internalType": "contract IHasher",
          "name": "",
          "type": "address"
        }
      ],
      "stateMutability": "view",
      "type": "function"
    },
    {
      "inputs": [
        {
          "internalType": "bytes32",
          "name": "_leaf",
          "type": "bytes32"
        }
      ],
      "name": "insert",
      "outputs": [],
      "stateMutability": "nonpayable",
      "type": "function"
    },
    {
      "inputs": [
        {
          "internalType": "bytes32",
          "name": "_root",
          "type": "bytes32"
        }
      ],
      "name": "isKnownRoot",
      "outputs": [
        {
          "internalType": "bool",
          "name": "",
          "type": "bool"
        }
      ],
      "stateMutability": "view",
      "type": "function"
    },
    {
      "inputs": [],
      "name": "levels",
      "outputs": [
        {
          "internalType": "uint32",
          "name": "",
          "type": "uint32"
        }
      ],
      "stateMutability": "view",
      "type": "function"
    },
    {
      "inputs": [],
      "name": "nextIndex",
      "outputs": [
        {
          "internalType": "uint32",
          "name": "",
          "type": "uint32"
        }
      ],
      "stateMutability": "view",
      "type": "function"
    },
    {
      "inputs": [
        {
          "internalType": "uint256",
          "name": "",
          "type": "uint256"
        }
      ],
      "name": "roots",
      "outputs": [
        {
          "internalType": "bytes32",
          "name": "",
          "type": "bytes32"
        }
      ],
      "stateMutability": "view",
      "type": "function"
    },
    {
      "inputs": [
        {
          "internalType": "uint256",
          "name": "i",
          "type": "uint256"
        }
      ],
      "name": "zeros",
      "outputs": [
        {
          "internalType": "bytes32",
          "name": "",
          "type": "bytes32"
        }
      ],
      "stateMutability": "pure",
      "type": "function"
    }
  ],
  "bytecode": "0x60a0604052600380546001600160401b03191690553480156200002157600080fd5b5060405162001a8338038062001a83833981016040819052620000449162000833565b818160008263ffffffff1611620000ae5760405162461bcd60e51b815260206004820152602360248201527f5f6c6576656c732073686f756c642062652067726561746572207468616e207a60448201526265726f60e81b60648201526084015b60405180910390fd5b60208263ffffffff1610620001065760405162461bcd60e51b815260206004820152601e60248201527f5f6c6576656c732073686f756c64206265206c657373207468616e20333200006044820152606401620000a5565b6000805463ffffffff191663ffffffff84161781556001600160a01b0382166080525b8263ffffffff168163ffffffff1610156200017a576200014f63ffffffff8216620001ce565b63ffffffff82166000908152600160205260409020558062000171816200089b565b91505062000129565b50620001986200018c600184620008c2565b63ffffffff16620001ce565b6000805260026020527fac33ff75c19e70fe83507db0d683fd3465c996598dc972688b7ace676c89077b5550620008ea92505050565b600081620001fd57507f2fe54c60d3acabf3343a35b6eba15db4821b340f76e741e2249685ed4899af6c919050565b81600114156200022e57507f256a6135777eee2fd26f54b8b7037a25439d5235caee224154186d2b8a52e31d919050565b81600214156200025f57507f1151949895e82ab19924de92c40a3d6f7bcb60d92b00504b8199613683f0c200919050565b81600314156200029057507f20121ee811489ff8d61f09fb89e313f14959a0f28bb428a20dba6b0b068b3bdb919050565b8160041415620002c157507f0a89ca6ffa14cc462cfedb842c30ed221a50a3d6bf022a6a57dc82ab24c157c9919050565b8160051415620002f257507f24ca05c2b5cd42e890d6be94c68d0689f4f21c9cec9c0f13fe41d566dfb54959919050565b81600614156200032357507f1ccb97c932565a92c60156bdba2d08f3bf1377464e025cee765679e604a7315c919050565b81600714156200035457507f19156fbd7d1a8bf5cba8909367de1b624534ebab4f0f79e003bccdd1b182bdb4919050565b81600814156200038557507f261af8c1f0912e465744641409f622d466c3920ac6e5ff37e36604cb11dfff80919050565b8160091415620003b557507e58459724ff6ca5a1652fcbc3e82b93895cf08e975b19beab3f54c217d1c007919050565b81600a1415620003e657507f1f04ef20dee48d39984d8eabe768a70eafa6310ad20849d4573c3c40c2ad1e30919050565b81600b14156200041757507f1bea3dec5dab51567ce7e200a30f7ba6d4276aeaa53e2686f962a46c66d511e5919050565b81600c14156200044857507f0ee0f941e2da4b9e31c3ca97a40d8fa9ce68d97c084177071b3cb46cd3372f0f919050565b81600d14156200047957507f1ca9503e8935884501bbaf20be14eb4c46b89772c97b96e3b2ebf3a36a948bbd919050565b81600e1415620004aa57507f133a80e30697cd55d8f7d4b0965b7be24057ba5dc3da898ee2187232446cb108919050565b81600f1415620004db57507f13e6d8fc88839ed76e182c2a779af5b2c0da9dd18c90427a644f7e148a6253b6919050565b81601014156200050c57507f1eb16b057a477f4bc8f572ea6bee39561098f78f15bfb3699dcbb7bd8db61854919050565b81601114156200053d57507f0da2cb16a1ceaabf1c16b838f7a9e3f2a3a3088d9e0a6debaa748114620696ea919050565b81601214156200056e57507f24a3b3d822420b14b5d8cb6c28a574f01e98ea9e940551d2ebd75cee12649f9d919050565b81601314156200059f57507f198622acbd783d1b0d9064105b1fc8e4d8889de95c4c519b3f635809fe6afc05919050565b8160141415620005d057507f29d7ed391256ccc3ea596c86e933b89ff339d25ea8ddced975ae2fe30b5296d4919050565b81601514156200060157507f19be59f2f0413ce78c0c3703a3a5451b1d7f39629fa33abd11548a76065b2967919050565b81601614156200063257507f1ff3f61797e538b70e619310d33f2a063e7eb59104e112e95738da1254dc3453919050565b81601714156200066357507f10c16ae9959cf8358980d9dd9616e48228737310a10e2b6b731c1a548f036c48919050565b81601814156200069457507f0ba433a63174a90ac20992e75e3095496812b652685b5e1a2eae0b1bf4e8fcd1919050565b8160191415620006c557507f019ddb9df2bc98d987d0dfeca9d2b643deafab8f7036562e627c3667266a044c919050565b81601a1415620006f657507f2d3c88b23175c5a5565db928414c66d1912b11acf974b2e644caaac04739ce99919050565b81601b14156200072757507f2eab55f6ae4e66e32c5189eed5c470840863445760f5ed7e7b69b2a62600f354919050565b81601c14156200075757507e2df37a2642621802383cf952bf4dd1f32e05433beeb1fd41031fb7eace979d919050565b81601d14156200078857507f104aeb41435db66c3e62feccc1d6f5d98d0a0ed75d1374db457cf462e3a1f427919050565b81601e1415620007b957507f1f3c6fd858e9a7d4b0d1f38e256a09d81d5a5e3c963987e2d4b814cfab7c6ebb919050565b81601f1415620007ea57507f2c7a07d20dff79d01fecedc1134284a8d08436606c93693b67e333f671bf69cc919050565b60405162461bcd60e51b815260206004820152601360248201527f496e646578206f7574206f6620626f756e6473000000000000000000000000006044820152606401620000a5565b600080604083850312156200084757600080fd5b825163ffffffff811681146200085c57600080fd5b60208401519092506001600160a01b03811681146200087a57600080fd5b809150509250929050565b634e487b7160e01b600052601160045260246000fd5b600063ffffffff80831681811415620008b857620008b862000885565b6001019392505050565b600063ffffffff83811690831681811015620008e257620008e262000885565b039392505050565b6080516111766200090d6000396000818161022d0152610d7901526111766000f3fe608060405234801561001057600080fd5b50600436106100ea5760003560e01c8063c2b40ae41161008c578063ec73295911610066578063ec73295914610201578063ed33639f14610228578063f178e47c14610274578063fc7e9c6f1461029457600080fd5b8063c2b40ae4146101c6578063cd87a3b4146101e6578063e8295588146101ee57600080fd5b80636d9833e3116100c85780636d9833e3146101635780638ea3099e1461018657806390eeb02b14610199578063ba70f757146101a957600080fd5b80632d287e43146100ef578063414a37ba146101045780634ecf518b1461013e575b600080fd5b6101026100fd366004610e80565b6102ac565b005b61012b7f30644e72e131a029b85045b68181585d2833e84879b9709143e1f593f000000181565b6040519081526020015b60405180910390f35b60005461014e9063ffffffff1681565b60405163ffffffff9091168152602001610135565b610176610171366004610e80565b6102b9565b6040519015158152602001610135565b61012b610194366004610e99565b610334565b60035461014e9063ffffffff1681565b60035463ffffffff1660009081526002602052604090205461012b565b61012b6101d4366004610e80565b60026020526000908152604090205481565b61014e601e81565b61012b6101fc366004610e80565b6105d8565b61012b7f2fe54c60d3acabf3343a35b6eba15db4821b340f76e741e2249685ed4899af6c81565b61024f7f000000000000000000000000000000000000000000000000000000000000000081565b60405173ffffffffffffffffffffffffffffffffffffffff9091168152602001610135565b61012b610282366004610e80565b60016020526000908152604090205481565b60035461014e90640100000000900463ffffffff1681565b6102b581610c36565b5050565b6000816102c857506000919050565b60035463ffffffff16805b63ffffffff81166000908152600260205260409020548414156102fa575060019392505050565b63ffffffff81166103095750601e5b8061031381610f16565b9150508163ffffffff168163ffffffff1614156102d3575060009392505050565b60007f30644e72e131a029b85045b68181585d2833e84879b9709143e1f593f000000183106103c4576040517f08c379a000000000000000000000000000000000000000000000000000000000815260206004820181905260248201527f5f6c6566742073686f756c6420626520696e7369646520746865206669656c6460448201526064015b60405180910390fd5b7f30644e72e131a029b85045b68181585d2833e84879b9709143e1f593f00000018210610473576040517f08c379a000000000000000000000000000000000000000000000000000000000815260206004820152602160248201527f5f72696768742073686f756c6420626520696e7369646520746865206669656c60448201527f640000000000000000000000000000000000000000000000000000000000000060648201526084016103bb565b6040517ff47d33b500000000000000000000000000000000000000000000000000000000815260048101849052600060248201819052849173ffffffffffffffffffffffffffffffffffffffff87169063f47d33b5906044016040805180830381865afa1580156104e8573d6000803e3d6000fd5b505050506040513d601f19601f8201168201806040525081019061050c9190610f54565b90925090507f30644e72e131a029b85045b68181585d2833e84879b9709143e1f593f00000018483086040517ff47d33b5000000000000000000000000000000000000000000000000000000008152600481018290526024810183905290925073ffffffffffffffffffffffffffffffffffffffff87169063f47d33b5906044016040805180830381865afa1580156105a9573d6000803e3d6000fd5b505050506040513d601f19601f820116820180604052508101906105cd9190610f54565b509695505050505050565b60008161060657507f2fe54c60d3acabf3343a35b6eba15db4821b340f76e741e2249685ed4899af6c919050565b816001141561063657507f256a6135777eee2fd26f54b8b7037a25439d5235caee224154186d2b8a52e31d919050565b816002141561066657507f1151949895e82ab19924de92c40a3d6f7bcb60d92b00504b8199613683f0c200919050565b816003141561069657507f20121ee811489ff8d61f09fb89e313f14959a0f28bb428a20dba6b0b068b3bdb919050565b81600414156106c657507f0a89ca6ffa14cc462cfedb842c30ed221a50a3d6bf022a6a57dc82ab24c157c9919050565b81600514156106f657507f24ca05c2b5cd42e890d6be94c68d0689f4f21c9cec9c0f13fe41d566dfb54959919050565b816006141561072657507f1ccb97c932565a92c60156bdba2d08f3bf1377464e025cee765679e604a7315c919050565b816007141561075657507f19156fbd7d1a8bf5cba8909367de1b624534ebab4f0f79e003bccdd1b182bdb4919050565b816008141561078657507f261af8c1f0912e465744641409f622d466c3920ac6e5ff37e36604cb11dfff80919050565b81600914156107b557507e58459724ff6ca5a1652fcbc3e82b93895cf08e975b19beab3f54c217d1c007919050565b81600a14156107e557507f1f04ef20dee48d39984d8eabe768a70eafa6310ad20849d4573c3c40c2ad1e30919050565b81600b141561081557507f1bea3dec5dab51567ce7e200a30f7ba6d4276aeaa53e2686f962a46c66d511e5919050565b81600c141561084557507f0ee0f941e2da4b9e31c3ca97a40d8fa9ce68d97c084177071b3cb46cd3372f0f919050565b81600d141561087557507f1ca9503e8935884501bbaf20be14eb4c46b89772c97b96e3b2ebf3a36a948bbd919050565b81600e14156108a557507f133a80e30697cd55d8f7d4b0965b7be24057ba5dc3da898ee2187232446cb108919050565b81600f14156108d557507f13e6d8fc88839ed76e182c2a779af5b2c0da9dd18c90427a644f7e148a6253b6919050565b816010141561090557507f1eb16b057a477f4bc8f572ea6bee39561098f78f15bfb3699dcbb7bd8db61854919050565b816011141561093557507f0da2cb16a1ceaabf1c16b838f7a9e3f2a3a3088d9e0a6debaa748114620696ea919050565b816012141561096557507f24a3b3d822420b14b5d8cb6c28a574f01e98ea9e940551d2ebd75cee12649f9d919050565b816013141561099557507f198622acbd783d1b0d9064105b1fc8e4d8889de95c4c519b3f635809fe6afc05919050565b81601414156109c557507f29d7ed391256ccc3ea596c86e933b89ff339d25ea8ddced975ae2fe30b5296d4919050565b81601514156109f557507f19be59f2f0413ce78c0c3703a3a5451b1d7f39629fa33abd11548a76065b2967919050565b8160161415610a2557507f1ff3f61797e538b70e619310d33f2a063e7eb59104e112e95738da1254dc3453919050565b8160171415610a5557507f10c16ae9959cf8358980d9dd9616e48228737310a10e2b6b731c1a548f036c48919050565b8160181415610a8557507f0ba433a63174a90ac20992e75e3095496812b652685b5e1a2eae0b1bf4e8fcd1919050565b8160191415610ab557507f019ddb9df2bc98d987d0dfeca9d2b643deafab8f7036562e627c3667266a044c919050565b81601a1415610ae557507f2d3c88b23175c5a5565db928414c66d1912b11acf974b2e644caaac04739ce99919050565b81601b1415610b1557507f2eab55f6ae4e66e32c5189eed5c470840863445760f5ed7e7b69b2a62600f354919050565b81601c1415610b4457507e2df37a2642621802383cf952bf4dd1f32e05433beeb1fd41031fb7eace979d919050565b81601d1415610b7457507f104aeb41435db66c3e62feccc1d6f5d98d0a0ed75d1374db457cf462e3a1f427919050565b81601e1415610ba457507f1f3c6fd858e9a7d4b0d1f38e256a09d81d5a5e3c963987e2d4b814cfab7c6ebb919050565b81601f1415610bd457507f2c7a07d20dff79d01fecedc1134284a8d08436606c93693b67e333f671bf69cc919050565b6040517f08c379a000000000000000000000000000000000000000000000000000000000815260206004820152601360248201527f496e646578206f7574206f6620626f756e64730000000000000000000000000060448201526064016103bb565b60035460008054909163ffffffff640100000000909104811691610c5c911660026110ba565b63ffffffff168163ffffffff161415610cf7576040517f08c379a000000000000000000000000000000000000000000000000000000000815260206004820152603060248201527f4d65726b6c6520747265652069732066756c6c2e204e6f206d6f7265206c656160448201527f7665732063616e2062652061646465640000000000000000000000000000000060648201526084016103bb565b8083600080805b60005463ffffffff9081169082161015610dc057610d1d6002866110d7565b63ffffffff16610d5857839250610d398163ffffffff166105d8565b63ffffffff821660009081526001602052604090208590559150610d74565b63ffffffff811660009081526001602052604090205492508391505b610d9f7f00000000000000000000000000000000000000000000000000000000000000008484610334565b9350610dac6002866110fa565b945080610db88161111d565b915050610cfe565b50600354600090601e90610ddb9063ffffffff166001611141565b610de591906110d7565b600380547fffffffffffffffffffffffffffffffffffffffffffffffffffffffff000000001663ffffffff831690811790915560009081526002602052604090208590559050610e36866001611141565b6003805463ffffffff92909216640100000000027fffffffffffffffffffffffffffffffffffffffffffffffff00000000ffffffff90921691909117905550939695505050505050565b600060208284031215610e9257600080fd5b5035919050565b600080600060608486031215610eae57600080fd5b833573ffffffffffffffffffffffffffffffffffffffff81168114610ed257600080fd5b95602085013595506040909401359392505050565b7f4e487b7100000000000000000000000000000000000000000000000000000000600052601160045260246000fd5b600063ffffffff821680610f2c57610f2c610ee7565b7fffffffffffffffffffffffffffffffffffffffffffffffffffffffffffffffff0192915050565b60008060408385031215610f6757600080fd5b505080516020909101519092909150565b7f4e487b7100000000000000000000000000000000000000000000000000000000600052601260045260246000fd5b600181815b80851115610fe4578163ffffffff04821115610fca57610fca610ee7565b80851615610fd757918102915b93841c9390800290610fac565b509250929050565b600082610ffb575060016110b4565b81611008575060006110b4565b816001811461101e576002811461102857611059565b60019150506110b4565b60ff84111561103957611039610ee7565b6001841b915063ffffffff82111561105357611053610ee7565b506110b4565b5060208310610133831016604e8410600b8410161715611090575081810a63ffffffff81111561108b5761108b610ee7565b6110b4565b61109a8383610fa7565b8063ffffffff048211156110b0576110b0610ee7565b0290505b92915050565b600063ffffffff6110cf818516828516610fec565b949350505050565b600063ffffffff808416806110ee576110ee610f78565b92169190910692915050565b600063ffffffff8084168061111157611111610f78565b92169190910492915050565b600063ffffffff8083168181141561113757611137610ee7565b6001019392505050565b600063ffffffff80831681851680830382111561116057611160610ee7565b0194935050505056fea164736f6c634300080a000a",
  "linkReferences": {},
  "deployedLinkReferences": {}
}